{
  "contractName": "CreatorController",
  "abi": [
    {
      "inputs": [
        {
          "internalType": "address",
          "name": "_dataPoolAddress",
          "type": "address"
        }
      ],
      "stateMutability": "nonpayable",
      "type": "constructor"
    },
    {
      "anonymous": false,
      "inputs": [
        {
          "indexed": false,
          "internalType": "address",
          "name": "_creatorAddress",
          "type": "address"
        }
      ],
      "name": "CreatorUpdated",
      "type": "event"
    },
    {
      "anonymous": false,
      "inputs": [
        {
          "indexed": true,
          "internalType": "address",
          "name": "previousOwner",
          "type": "address"
        },
        {
          "indexed": true,
          "internalType": "address",
          "name": "newOwner",
          "type": "address"
        }
      ],
      "name": "OwnershipTransferred",
      "type": "event"
    },
    {
      "inputs": [],
      "name": "owner",
      "outputs": [
        {
          "internalType": "address",
          "name": "",
          "type": "address"
        }
      ],
      "stateMutability": "view",
      "type": "function",
      "constant": true
    },
    {
      "inputs": [],
      "name": "renounceOwnership",
      "outputs": [],
      "stateMutability": "nonpayable",
      "type": "function"
    },
    {
      "inputs": [
        {
          "internalType": "address",
          "name": "newOwner",
          "type": "address"
        }
      ],
      "name": "transferOwnership",
      "outputs": [],
      "stateMutability": "nonpayable",
      "type": "function"
    },
    {
      "inputs": [
        {
          "internalType": "address",
          "name": "_invitationAddress",
          "type": "address"
        }
      ],
      "name": "inviteCreator",
      "outputs": [],
      "stateMutability": "nonpayable",
      "type": "function"
    },
    {
      "inputs": [
        {
          "internalType": "string",
          "name": "_name",
          "type": "string"
        }
      ],
      "name": "redeemInvitation",
      "outputs": [],
      "stateMutability": "nonpayable",
      "type": "function"
    },
    {
      "inputs": [
        {
          "internalType": "string",
          "name": "_name",
          "type": "string"
        }
      ],
      "name": "updateCreatorName",
      "outputs": [],
      "stateMutability": "nonpayable",
      "type": "function"
    },
    {
      "inputs": [],
      "name": "deactivateAccount",
      "outputs": [],
      "stateMutability": "nonpayable",
      "type": "function"
    }
  ],
  "bytecode": "0x608060405234801561001057600080fd5b5060405161107f38038061107f83398101604081905261002f916100b8565b61003f61003a610064565b610068565b600180546001600160a01b0319166001600160a01b03929092169190911790556100e6565b3390565b600080546001600160a01b038381166001600160a01b0319831681178455604051919092169283917f8be0079c531659141344cd1fd0a4f28419497f9722a3daafe3b4186f6b6457e09190a35050565b6000602082840312156100c9578081fd5b81516001600160a01b03811681146100df578182fd5b9392505050565b610f8a806100f56000396000f3fe608060405234801561001057600080fd5b506004361061007d5760003560e01c8063860020f21161005b578063860020f2146100b25780638da5cb5b146100c5578063e040e9a0146100e3578063f2fde38b146100eb5761007d565b80633cab1e9414610082578063715018a6146100975780637a24a1801461009f575b600080fd5b610095610090366004610c14565b6100fe565b005b6100956102c1565b6100956100ad366004610c14565b61030c565b6100956100c0366004610bcd565b610472565b6100cd61090d565b6040516100da9190610cef565b60405180910390f35b61009561091c565b6100956100f9366004610bcd565b610af5565b6001546001600160a01b031663bf538e1d610117610b66565b60016040518363ffffffff1660e01b8152600401610136929190610d27565b60206040518083038186803b15801561014e57600080fd5b505afa158015610162573d6000803e3d6000fd5b505050506040513d601f19601f820116820180604052508101906101869190610bf4565b6101ab5760405162461bcd60e51b81526004016101a290610e70565b60405180910390fd5b6001546001600160a01b0316636cc46e886101c4610b66565b836040518363ffffffff1660e01b81526004016101e2929190610d44565b600060405180830381600087803b1580156101fc57600080fd5b505af1158015610210573d6000803e3d6000fd5b50506001546001600160a01b03169150636aadadf1905061022f610b66565b60026040518363ffffffff1660e01b815260040161024e929190610d27565b600060405180830381600087803b15801561026857600080fd5b505af115801561027c573d6000803e3d6000fd5b505050507f40ce16136d64bc46500073cc9655e1b0b622a8a3023a5b4a35ea71b2dc4a24b36102a9610b66565b6040516102b69190610cef565b60405180910390a150565b6102c9610b66565b6001600160a01b03166102da61090d565b6001600160a01b0316146103005760405162461bcd60e51b81526004016101a290610e96565b61030a6000610b6a565b565b6001546001600160a01b031663bf538e1d610325610b66565b60026040518363ffffffff1660e01b8152600401610344929190610d27565b60206040518083038186803b15801561035c57600080fd5b505afa158015610370573d6000803e3d6000fd5b505050506040513d601f19601f820116820180604052508101906103949190610bf4565b8061041f57506001546001600160a01b03166324d7806c6103b3610b66565b6040518263ffffffff1660e01b81526004016103cf9190610cef565b60206040518083038186803b1580156103e757600080fd5b505afa1580156103fb573d6000803e3d6000fd5b505050506040513d601f19601f8201168201806040525081019061041f9190610bf4565b61043b5760405162461bcd60e51b81526004016101a290610ecb565b6001546001600160a01b0316636cc46e88610454610b66565b836040518363ffffffff1660e01b815260040161024e929190610d44565b6001546001600160a01b031663bf538e1d61048b610b66565b60026040518363ffffffff1660e01b81526004016104aa929190610d27565b60206040518083038186803b1580156104c257600080fd5b505afa1580156104d6573d6000803e3d6000fd5b505050506040513d601f19601f820116820180604052508101906104fa9190610bf4565b8061058557506001546001600160a01b03166324d7806c610519610b66565b6040518263ffffffff1660e01b81526004016105359190610cef565b60206040518083038186803b15801561054d57600080fd5b505afa158015610561573d6000803e3d6000fd5b505050506040513d601f19601f820116820180604052508101906105859190610bf4565b6105a15760405162461bcd60e51b81526004016101a290610ecb565b6001546000906001600160a01b031663efa0ff6e6105bd610b66565b6040518263ffffffff1660e01b81526004016105d99190610cef565b60206040518083038186803b1580156105f157600080fd5b505afa158015610605573d6000803e3d6000fd5b505050506040513d601f19601f820116820180604052508101906106299190610cb5565b90506000811161064b5760405162461bcd60e51b81526004016101a290610eef565b60015460405163bf538e1d60e01b81526001600160a01b039091169063bf538e1d9061067e908590600090600401610d27565b60206040518083038186803b15801561069657600080fd5b505afa1580156106aa573d6000803e3d6000fd5b505050506040513d601f19601f820116820180604052508101906106ce9190610bf4565b6106ea5760405162461bcd60e51b81526004016101a290610df3565b6106f5816001610bba565b6001549091506001600160a01b031663e3bc111b610711610b66565b84846040518463ffffffff1660e01b815260040161073193929190610d03565b600060405180830381600087803b15801561074b57600080fd5b505af115801561075f573d6000803e3d6000fd5b505060015460408051637f0258e360e01b815290516001600160a01b03909216935063fc8a156f925085918491637f0258e3916004808301926020929190829003018186803b1580156107b157600080fd5b505afa1580156107c5573d6000803e3d6000fd5b505050506040513d601f19601f820116820180604052508101906107e99190610cb5565b600160009054906101000a90046001600160a01b03166001600160a01b031663b5a70f606040518163ffffffff1660e01b815260040160206040518083038186803b15801561083757600080fd5b505afa15801561084b573d6000803e3d6000fd5b505050506040513d601f19601f8201168201806040525081019061086f9190610cb5565b610877610b66565b60016040518663ffffffff1660e01b8152600401610899959493929190610da7565b600060405180830381600087803b1580156108b357600080fd5b505af11580156108c7573d6000803e3d6000fd5b505050507f40ce16136d64bc46500073cc9655e1b0b622a8a3023a5b4a35ea71b2dc4a24b36108f4610b66565b6040516109019190610cef565b60405180910390a15050565b6000546001600160a01b031690565b6001546001600160a01b031663bf538e1d610935610b66565b60026040518363ffffffff1660e01b8152600401610954929190610d27565b60206040518083038186803b15801561096c57600080fd5b505afa158015610980573d6000803e3d6000fd5b505050506040513d601f19601f820116820180604052508101906109a49190610bf4565b80610a2f57506001546001600160a01b03166324d7806c6109c3610b66565b6040518263ffffffff1660e01b81526004016109df9190610cef565b60206040518083038186803b1580156109f757600080fd5b505afa158015610a0b573d6000803e3d6000fd5b505050506040513d601f19601f82011682018060405250810190610a2f9190610bf4565b610a4b5760405162461bcd60e51b81526004016101a290610ecb565b6001546001600160a01b0316636aadadf1610a64610b66565b60036040518363ffffffff1660e01b8152600401610a83929190610d27565b600060405180830381600087803b158015610a9d57600080fd5b505af1158015610ab1573d6000803e3d6000fd5b505050507f40ce16136d64bc46500073cc9655e1b0b622a8a3023a5b4a35ea71b2dc4a24b3610ade610b66565b604051610aeb9190610cef565b60405180910390a1565b610afd610b66565b6001600160a01b0316610b0e61090d565b6001600160a01b031614610b345760405162461bcd60e51b81526004016101a290610e96565b6001600160a01b038116610b5a5760405162461bcd60e51b81526004016101a290610e2a565b610b6381610b6a565b50565b3390565b600080546001600160a01b038381166001600160a01b0319831681178455604051919092169283917f8be0079c531659141344cd1fd0a4f28419497f9722a3daafe3b4186f6b6457e09190a35050565b6000610bc68284610f1b565b9392505050565b600060208284031215610bde578081fd5b81356001600160a01b0381168114610bc6578182fd5b600060208284031215610c05578081fd5b81518015158114610bc6578182fd5b60006020808385031215610c26578182fd5b823567ffffffffffffffff80821115610c3d578384fd5b818501915085601f830112610c50578384fd5b813581811115610c6257610c62610f3e565b604051601f8201601f1916810185018381118282101715610c8557610c85610f3e565b6040528181528382018501881015610c9b578586fd5b818585018683013790810190930193909352509392505050565b600060208284031215610cc6578081fd5b5051919050565b60058110610ceb57634e487b7160e01b600052602160045260246000fd5b9052565b6001600160a01b0391909116815260200190565b6001600160a01b039384168152919092166020820152604081019190915260600190565b6001600160a01b038316815260408101610bc66020830184610ccd565b600060018060a01b038416825260206040818401528351806040850152825b81811015610d7f57858101830151858201606001528201610d63565b81811115610d905783606083870101525b50601f01601f191692909201606001949350505050565b6001600160a01b03868116825260c06020830181905260009083015260408201869052606082018590528316608082015260e08101610de960a0830184610ccd565b9695505050505050565b60208082526018908201527f43726561746f7220616c726561647920696e76697465642e0000000000000000604082015260600190565b60208082526026908201527f4f776e61626c653a206e6577206f776e657220697320746865207a65726f206160408201526564647265737360d01b606082015260800190565b6020808252600c908201526b2737ba1024b73b34ba32b21760a11b604082015260600190565b6020808252818101527f4f776e61626c653a2063616c6c6572206973206e6f7420746865206f776e6572604082015260600190565b6020808252600a908201526927379030b1b1b2b9b99760b11b604082015260600190565b60208082526012908201527127379034b73b34ba32b9903932b6b0b4b71760711b604082015260600190565b600082821015610f3957634e487b7160e01b81526011600452602481fd5b500390565b634e487b7160e01b600052604160045260246000fdfea26469706673582212208cb42d4bd4635843bacc50b7f89a23cecd3a565878b87acf83719695d254387764736f6c63430008000033",
  "immutableReferences": {},
  "source": "// SPDX-License-Identifier: MEH\n\npragma solidity ^0.8.0;\n\nimport \"./interfaces/IUserDataPoolCreator.sol\";\nimport \"./interfaces/ICreatorDataType.sol\";\nimport \"./oz/Ownable.sol\";\nimport \"./oz/SafeMath.sol\";\n\ncontract CreatorController is Ownable, ICreatorDataType {\n    using SafeMath for uint256;\n\n    event CreatorUpdated(address _creatorAddress);\n\n    address dataPoolAddress;\n\n    modifier onlyActiveCreatorOrAdmin() {\n\n        require(\n            IUserDataPoolCreator(\n                dataPoolAddress\n            ).isCreatorStatus(_msgSender(), CreatorStatus.Active) || \n            IUserDataPoolCreator(\n                dataPoolAddress\n            ).isAdmin(_msgSender()),\n            \"No access.\"\n        );\n        _;\n    }\n\n    constructor(address _dataPoolAddress) {\n        dataPoolAddress = _dataPoolAddress;\n    }\n\n    function inviteCreator(\n        address _invitationAddress\n    ) external onlyActiveCreatorOrAdmin() {\n\n        uint remainingInvites = IUserDataPoolCreator(\n                dataPoolAddress\n            ).getCreatorRemainingInvites(_msgSender());\n        require (\n            remainingInvites > 0,\n            \"No invites remain.\"\n        );\n\n        require(\n            IUserDataPoolCreator(\n                dataPoolAddress\n            ).isCreatorStatus(_invitationAddress,CreatorStatus.NotInvited),\n            \"Creator already invited.\"\n        );\n\n        remainingInvites = remainingInvites.sub(1);\n\n        IUserDataPoolCreator(\n            dataPoolAddress\n        ).updateCreatorInvitations(\n            _msgSender(),\n            _invitationAddress,\n            remainingInvites\n        );\n        \n        IUserDataPoolCreator(\n            dataPoolAddress\n        ).addCreator(\n            _invitationAddress,\n            \"\",\n            IUserDataPoolCreator(\n            dataPoolAddress\n            ).getDefaultPlatformPercent(),\n            IUserDataPoolCreator(\n            dataPoolAddress\n            ).getDefaultInvitations(),\n            _msgSender(),\n            CreatorStatus.Invited\n        );\n\n        emit CreatorUpdated(_msgSender());\n    }\n\n    function redeemInvitation(\n        string memory _name\n    ) external {\n        require(\n            IUserDataPoolCreator(\n                dataPoolAddress\n            ).isCreatorStatus(_msgSender(),CreatorStatus.Invited),\n            \"Not Invited.\"\n        );\n\n        IUserDataPoolCreator(\n            dataPoolAddress\n        ).updateCreatorName(_msgSender(),_name);\n\n        IUserDataPoolCreator(\n            dataPoolAddress\n        ).updateCreatorStatus(_msgSender(),CreatorStatus.Active);\n\n\n        emit CreatorUpdated(_msgSender());\n    }\n\n    function updateCreatorName(\n        string memory _name\n    ) external onlyActiveCreatorOrAdmin() {\n\n        IUserDataPoolCreator(\n            dataPoolAddress\n        ).updateCreatorName(_msgSender(),_name);\n\n        emit CreatorUpdated(_msgSender());\n    }\n\n    function deactivateAccount(\n    ) external onlyActiveCreatorOrAdmin() {\n\n        IUserDataPoolCreator(\n            dataPoolAddress\n        ).updateCreatorStatus(_msgSender(),CreatorStatus.Inactive);\n        \n        emit CreatorUpdated(_msgSender());\n    }\n}",
  "sourcePath": "/Users/jzito/dev/solidity/MintCaseManager/contracts/CreatorController.sol",
  "compiler": {
    "name": "solc",
    "version": "0.8.0+commit.c7dfd78e.Emscripten.clang"
  },
  "schemaVersion": "3.4.3",
  "updatedAt": "2021-10-11T03:09:32.540Z",
  "networkType": "ethereum",
  "devdoc": {
    "kind": "dev",
    "methods": {
      "owner()": {
        "details": "Returns the address of the current owner."
      },
      "renounceOwnership()": {
        "details": "Leaves the contract without owner. It will not be possible to call `onlyOwner` functions anymore. Can only be called by the current owner. NOTE: Renouncing ownership will leave the contract without an owner, thereby removing any functionality that is only available to the owner."
      },
      "transferOwnership(address)": {
        "details": "Transfers ownership of the contract to a new account (`newOwner`). Can only be called by the current owner."
      }
    },
    "version": 1
  },
  "userdoc": {
    "kind": "user",
    "methods": {},
    "version": 1
  }
}