{
  "contractName": "MintController",
  "abi": [
    {
      "inputs": [
        {
          "internalType": "address",
          "name": "_dataPoolAddress",
          "type": "address"
        },
        {
          "internalType": "address",
          "name": "_seriesControllerAddress",
          "type": "address"
        },
        {
          "internalType": "string",
          "name": "_tokenName",
          "type": "string"
        },
        {
          "internalType": "string",
          "name": "_tokenSymbol",
          "type": "string"
        }
      ],
      "stateMutability": "nonpayable",
      "type": "constructor"
    },
    {
      "anonymous": false,
      "inputs": [
        {
          "indexed": true,
          "internalType": "address",
          "name": "owner",
          "type": "address"
        },
        {
          "indexed": true,
          "internalType": "address",
          "name": "approved",
          "type": "address"
        },
        {
          "indexed": true,
          "internalType": "uint256",
          "name": "tokenId",
          "type": "uint256"
        }
      ],
      "name": "Approval",
      "type": "event"
    },
    {
      "anonymous": false,
      "inputs": [
        {
          "indexed": true,
          "internalType": "address",
          "name": "owner",
          "type": "address"
        },
        {
          "indexed": true,
          "internalType": "address",
          "name": "operator",
          "type": "address"
        },
        {
          "indexed": false,
          "internalType": "bool",
          "name": "approved",
          "type": "bool"
        }
      ],
      "name": "ApprovalForAll",
      "type": "event"
    },
    {
      "anonymous": false,
      "inputs": [
        {
          "indexed": true,
          "internalType": "address",
          "name": "previousOwner",
          "type": "address"
        },
        {
          "indexed": true,
          "internalType": "address",
          "name": "newOwner",
          "type": "address"
        }
      ],
      "name": "OwnershipTransferred",
      "type": "event"
    },
    {
      "anonymous": false,
      "inputs": [
        {
          "indexed": false,
          "internalType": "uint256",
          "name": "_seriesId",
          "type": "uint256"
        },
        {
          "indexed": false,
          "internalType": "address",
          "name": "_to",
          "type": "address"
        }
      ],
      "name": "TokenMinted",
      "type": "event"
    },
    {
      "anonymous": false,
      "inputs": [
        {
          "indexed": true,
          "internalType": "address",
          "name": "from",
          "type": "address"
        },
        {
          "indexed": true,
          "internalType": "address",
          "name": "to",
          "type": "address"
        },
        {
          "indexed": true,
          "internalType": "uint256",
          "name": "tokenId",
          "type": "uint256"
        }
      ],
      "name": "Transfer",
      "type": "event"
    },
    {
      "inputs": [
        {
          "internalType": "address",
          "name": "to",
          "type": "address"
        },
        {
          "internalType": "uint256",
          "name": "tokenId",
          "type": "uint256"
        }
      ],
      "name": "approve",
      "outputs": [],
      "stateMutability": "nonpayable",
      "type": "function"
    },
    {
      "inputs": [
        {
          "internalType": "address",
          "name": "owner",
          "type": "address"
        }
      ],
      "name": "balanceOf",
      "outputs": [
        {
          "internalType": "uint256",
          "name": "",
          "type": "uint256"
        }
      ],
      "stateMutability": "view",
      "type": "function",
      "constant": true
    },
    {
      "inputs": [
        {
          "internalType": "uint256",
          "name": "tokenId",
          "type": "uint256"
        }
      ],
      "name": "getApproved",
      "outputs": [
        {
          "internalType": "address",
          "name": "",
          "type": "address"
        }
      ],
      "stateMutability": "view",
      "type": "function",
      "constant": true
    },
    {
      "inputs": [
        {
          "internalType": "address",
          "name": "owner",
          "type": "address"
        },
        {
          "internalType": "address",
          "name": "operator",
          "type": "address"
        }
      ],
      "name": "isApprovedForAll",
      "outputs": [
        {
          "internalType": "bool",
          "name": "",
          "type": "bool"
        }
      ],
      "stateMutability": "view",
      "type": "function",
      "constant": true
    },
    {
      "inputs": [],
      "name": "name",
      "outputs": [
        {
          "internalType": "string",
          "name": "",
          "type": "string"
        }
      ],
      "stateMutability": "view",
      "type": "function",
      "constant": true
    },
    {
      "inputs": [],
      "name": "owner",
      "outputs": [
        {
          "internalType": "address",
          "name": "",
          "type": "address"
        }
      ],
      "stateMutability": "view",
      "type": "function",
      "constant": true
    },
    {
      "inputs": [
        {
          "internalType": "uint256",
          "name": "tokenId",
          "type": "uint256"
        }
      ],
      "name": "ownerOf",
      "outputs": [
        {
          "internalType": "address",
          "name": "",
          "type": "address"
        }
      ],
      "stateMutability": "view",
      "type": "function",
      "constant": true
    },
    {
      "inputs": [],
      "name": "renounceOwnership",
      "outputs": [],
      "stateMutability": "nonpayable",
      "type": "function"
    },
    {
      "inputs": [
        {
          "internalType": "address",
          "name": "from",
          "type": "address"
        },
        {
          "internalType": "address",
          "name": "to",
          "type": "address"
        },
        {
          "internalType": "uint256",
          "name": "tokenId",
          "type": "uint256"
        }
      ],
      "name": "safeTransferFrom",
      "outputs": [],
      "stateMutability": "nonpayable",
      "type": "function"
    },
    {
      "inputs": [
        {
          "internalType": "address",
          "name": "from",
          "type": "address"
        },
        {
          "internalType": "address",
          "name": "to",
          "type": "address"
        },
        {
          "internalType": "uint256",
          "name": "tokenId",
          "type": "uint256"
        },
        {
          "internalType": "bytes",
          "name": "_data",
          "type": "bytes"
        }
      ],
      "name": "safeTransferFrom",
      "outputs": [],
      "stateMutability": "nonpayable",
      "type": "function"
    },
    {
      "inputs": [
        {
          "internalType": "address",
          "name": "operator",
          "type": "address"
        },
        {
          "internalType": "bool",
          "name": "approved",
          "type": "bool"
        }
      ],
      "name": "setApprovalForAll",
      "outputs": [],
      "stateMutability": "nonpayable",
      "type": "function"
    },
    {
      "inputs": [
        {
          "internalType": "bytes4",
          "name": "interfaceId",
          "type": "bytes4"
        }
      ],
      "name": "supportsInterface",
      "outputs": [
        {
          "internalType": "bool",
          "name": "",
          "type": "bool"
        }
      ],
      "stateMutability": "view",
      "type": "function",
      "constant": true
    },
    {
      "inputs": [],
      "name": "symbol",
      "outputs": [
        {
          "internalType": "string",
          "name": "",
          "type": "string"
        }
      ],
      "stateMutability": "view",
      "type": "function",
      "constant": true
    },
    {
      "inputs": [
        {
          "internalType": "uint256",
          "name": "index",
          "type": "uint256"
        }
      ],
      "name": "tokenByIndex",
      "outputs": [
        {
          "internalType": "uint256",
          "name": "",
          "type": "uint256"
        }
      ],
      "stateMutability": "view",
      "type": "function",
      "constant": true
    },
    {
      "inputs": [
        {
          "internalType": "uint256",
          "name": "",
          "type": "uint256"
        }
      ],
      "name": "tokenIdHashes",
      "outputs": [
        {
          "internalType": "bytes32",
          "name": "",
          "type": "bytes32"
        }
      ],
      "stateMutability": "view",
      "type": "function",
      "constant": true
    },
    {
      "inputs": [
        {
          "internalType": "uint256",
          "name": "",
          "type": "uint256"
        }
      ],
      "name": "tokenIdToSeriesId",
      "outputs": [
        {
          "internalType": "uint256",
          "name": "",
          "type": "uint256"
        }
      ],
      "stateMutability": "view",
      "type": "function",
      "constant": true
    },
    {
      "inputs": [
        {
          "internalType": "address",
          "name": "owner",
          "type": "address"
        },
        {
          "internalType": "uint256",
          "name": "index",
          "type": "uint256"
        }
      ],
      "name": "tokenOfOwnerByIndex",
      "outputs": [
        {
          "internalType": "uint256",
          "name": "",
          "type": "uint256"
        }
      ],
      "stateMutability": "view",
      "type": "function",
      "constant": true
    },
    {
      "inputs": [],
      "name": "totalSupply",
      "outputs": [
        {
          "internalType": "uint256",
          "name": "",
          "type": "uint256"
        }
      ],
      "stateMutability": "view",
      "type": "function",
      "constant": true
    },
    {
      "inputs": [
        {
          "internalType": "address",
          "name": "from",
          "type": "address"
        },
        {
          "internalType": "address",
          "name": "to",
          "type": "address"
        },
        {
          "internalType": "uint256",
          "name": "tokenId",
          "type": "uint256"
        }
      ],
      "name": "transferFrom",
      "outputs": [],
      "stateMutability": "nonpayable",
      "type": "function"
    },
    {
      "inputs": [
        {
          "internalType": "address",
          "name": "newOwner",
          "type": "address"
        }
      ],
      "name": "transferOwnership",
      "outputs": [],
      "stateMutability": "nonpayable",
      "type": "function"
    },
    {
      "inputs": [
        {
          "internalType": "uint256",
          "name": "_seriesId",
          "type": "uint256"
        },
        {
          "internalType": "address",
          "name": "_to",
          "type": "address"
        },
        {
          "internalType": "address",
          "name": "_by",
          "type": "address"
        }
      ],
      "name": "mint",
      "outputs": [],
      "stateMutability": "nonpayable",
      "type": "function"
    },
    {
      "inputs": [
        {
          "internalType": "address",
          "name": "_owner",
          "type": "address"
        }
      ],
      "name": "tokensOfOwner",
      "outputs": [
        {
          "internalType": "uint256[]",
          "name": "",
          "type": "uint256[]"
        }
      ],
      "stateMutability": "view",
      "type": "function",
      "constant": true
    },
    {
      "inputs": [
        {
          "internalType": "uint256",
          "name": "tokenId",
          "type": "uint256"
        }
      ],
      "name": "tokenURI",
      "outputs": [
        {
          "internalType": "string",
          "name": "",
          "type": "string"
        }
      ],
      "stateMutability": "view",
      "type": "function",
      "constant": true
    }
  ],
  "bytecode": "0x60806040523480156200001157600080fd5b50604051620022eb380380620022eb833981016040819052620000349162000278565b8151829082906200004d9060009060208501906200010a565b508051620000639060019060208401906200010a565b505050620000806200007a620000b460201b60201c565b620000b8565b5050600b80546001600160a01b039384166001600160a01b031991821617909155600c805492909316911617905562000358565b3390565b600a80546001600160a01b038381166001600160a01b0319831681179093556040519116919082907f8be0079c531659141344cd1fd0a4f28419497f9722a3daafe3b4186f6b6457e090600090a35050565b828054620001189062000305565b90600052602060002090601f0160209004810192826200013c576000855562000187565b82601f106200015757805160ff191683800117855562000187565b8280016001018555821562000187579182015b82811115620001875782518255916020019190600101906200016a565b506200019592915062000199565b5090565b5b808211156200019557600081556001016200019a565b80516001600160a01b0381168114620001c857600080fd5b919050565b600082601f830112620001de578081fd5b81516001600160401b0380821115620001fb57620001fb62000342565b6040516020601f8401601f191682018101838111838210171562000223576200022362000342565b60405283825285840181018710156200023a578485fd5b8492505b838310156200025d57858301810151828401820152918201916200023e565b838311156200026e57848185840101525b5095945050505050565b600080600080608085870312156200028e578384fd5b6200029985620001b0565b9350620002a960208601620001b0565b60408601519093506001600160401b0380821115620002c6578384fd5b620002d488838901620001cd565b93506060870151915080821115620002ea578283fd5b50620002f987828801620001cd565b91505092959194509250565b6002810460018216806200031a57607f821691505b602082108114156200033c57634e487b7160e01b600052602260045260246000fd5b50919050565b634e487b7160e01b600052604160045260246000fd5b611f8380620003686000396000f3fe608060405234801561001057600080fd5b506004361061014d5760003560e01c806370a08231116100c3578063a22cb4651161007c578063a22cb465146102aa578063b88d4fde146102bd578063c87b56dd146102d0578063da39b3e7146102e3578063e985e9c5146102f6578063f2fde38b146103095761014d565b806370a082311461024c578063715018a61461025f5780638462151c146102675780638da5cb5b14610287578063914ce7f41461028f57806395d89b41146102a25761014d565b80632018c767116101155780632018c767146101da57806323b872dd146101ed5780632f745c591461020057806342842e0e146102135780634f6ccce7146102265780636352211e146102395761014d565b806301ffc9a71461015257806306fdde031461017b578063081812fc14610190578063095ea7b3146101b057806318160ddd146101c5575b600080fd5b610165610160366004611670565b61031c565b604051610172919061188b565b60405180910390f35b610183610349565b604051610172919061189f565b6101a361019e36600461171b565b6103db565b60405161017291906117f6565b6101c36101be3660046115fe565b610427565b005b6101cd6104bf565b6040516101729190611896565b6101cd6101e836600461171b565b6104c5565b6101c36101fb3660046114ea565b6104d7565b6101cd61020e3660046115fe565b61050f565b6101c36102213660046114ea565b610561565b6101cd61023436600461171b565b61057c565b6101a361024736600461171b565b6105d7565b6101cd61025a366004611497565b61060c565b6101c3610650565b61027a610275366004611497565b61069b565b6040516101729190611847565b6101a3610759565b6101cd61029d36600461171b565b610768565b61018361077a565b6101c36102b83660046115c8565b610789565b6101c36102cb366004611525565b610857565b6101836102de36600461171b565b610896565b6101c36102f1366004611733565b61097f565b6101656103043660046114b8565b610b28565b6101c3610317366004611497565b610b56565b60006001600160e01b0319821663780e9d6360e01b1480610341575061034182610bc7565b90505b919050565b60606000805461035890611e7d565b80601f016020809104026020016040519081016040528092919081815260200182805461038490611e7d565b80156103d15780601f106103a6576101008083540402835291602001916103d1565b820191906000526020600020905b8154815290600101906020018083116103b457829003601f168201915b5050505050905090565b60006103e682610c07565b61040b5760405162461bcd60e51b815260040161040290611bd9565b60405180910390fd5b506000908152600460205260409020546001600160a01b031690565b6000610432826105d7565b9050806001600160a01b0316836001600160a01b031614156104665760405162461bcd60e51b815260040161040290611cc7565b806001600160a01b0316610478610c24565b6001600160a01b03161480610494575061049481610304610c24565b6104b05760405162461bcd60e51b815260040161040290611a93565b6104ba8383610c28565b505050565b60085490565b600e6020526000908152604090205481565b6104e86104e2610c24565b82610c96565b6105045760405162461bcd60e51b815260040161040290611d08565b6104ba838383610d13565b600061051a8361060c565b82106105385760405162461bcd60e51b8152600401610402906118b2565b506001600160a01b03919091166000908152600660209081526040808320938352929052205490565b6104ba83838360405180602001604052806000815250610857565b60006105866104bf565b82106105a45760405162461bcd60e51b815260040161040290611d59565b600882815481106105c557634e487b7160e01b600052603260045260246000fd5b90600052602060002001549050919050565b6000818152600260205260408120546001600160a01b0316806103415760405162461bcd60e51b815260040161040290611b5b565b60006001600160a01b0382166106345760405162461bcd60e51b815260040161040290611b11565b506001600160a01b031660009081526003602052604090205490565b610658610c24565b6001600160a01b0316610669610759565b6001600160a01b03161461068f5760405162461bcd60e51b815260040161040290611c25565b6106996000610e40565b565b606060006106a88361060c565b905060008167ffffffffffffffff8111156106d357634e487b7160e01b600052604160045260246000fd5b6040519080825280602002602001820160405280156106fc578160200160208202803683370190505b50905060005b8281101561075157610714858261050f565b82828151811061073457634e487b7160e01b600052603260045260246000fd5b60209081029190910101528061074981611eb8565b915050610702565b509392505050565b600a546001600160a01b031690565b600d6020526000908152604090205481565b60606001805461035890611e7d565b610791610c24565b6001600160a01b0316826001600160a01b031614156107c25760405162461bcd60e51b815260040161040290611a10565b80600560006107cf610c24565b6001600160a01b03908116825260208083019390935260409182016000908120918716808252919093529120805460ff191692151592909217909155610813610c24565b6001600160a01b03167f17307eab39ab6107e8899845ad3d59bd9653f200f220920489ca2b5937696c318360405161084b919061188b565b60405180910390a35050565b610868610862610c24565b83610c96565b6108845760405162461bcd60e51b815260040161040290611d08565b61089084848484610e92565b50505050565b6000818152600e602052604080822054600b54915163978d130f60e01b815260609391926001600160a01b03169063978d130f906108d8908590600401611896565b60006040518083038186803b1580156108f057600080fd5b505afa158015610904573d6000803e3d6000fd5b505050506040513d6000823e601f3d908101601f1916820160405261092c91908101906116a8565b9050600081511161094c5760405180602001604052806000815250610977565b8061095685610ec5565b60405160200161096792919061179a565b6040516020818303038152906040525b949350505050565b600b546001600160a01b03166329710388610998610c24565b6040518263ffffffff1660e01b81526004016109b491906117f6565b60206040518083038186803b1580156109cc57600080fd5b505afa1580156109e0573d6000803e3d6000fd5b505050506040513d601f19601f82011682018060405250810190610a049190611627565b610a205760405162461bcd60e51b815260040161040290611ca3565b600c54604051637ca1ac2960e11b815260009182916001600160a01b039091169063f943585290610a579088908790600401611da5565b6040805180830381600087803b158015610a7057600080fd5b505af1158015610a84573d6000803e3d6000fd5b505050506040513d601f19601f82011682018060405250810190610aa89190611643565b909250905081610aca5760405162461bcd60e51b815260040161040290611af0565b600081438642604051602001610ae394939291906117c9565b60408051601f1981840301815291815281516020928301206000858152600d8452828120829055600e90935291208790559050610b208583610fe0565b505050505050565b6001600160a01b03918216600090815260056020908152604080832093909416825291909152205460ff1690565b610b5e610c24565b6001600160a01b0316610b6f610759565b6001600160a01b031614610b955760405162461bcd60e51b815260040161040290611c25565b6001600160a01b038116610bbb5760405162461bcd60e51b81526004016104029061194f565b610bc481610e40565b50565b60006001600160e01b031982166380ac58cd60e01b1480610bf857506001600160e01b03198216635b5e139f60e01b145b806103415750610341826110bf565b6000908152600260205260409020546001600160a01b0316151590565b3390565b600081815260046020526040902080546001600160a01b0319166001600160a01b0384169081179091558190610c5d826105d7565b6001600160a01b03167f8c5be1e5ebec7d5bd14f71427d1e84f3dd0314c0f7b2291e5b200ac8c7c3b92560405160405180910390a45050565b6000610ca182610c07565b610cbd5760405162461bcd60e51b815260040161040290611a47565b6000610cc8836105d7565b9050806001600160a01b0316846001600160a01b03161480610d035750836001600160a01b0316610cf8846103db565b6001600160a01b0316145b8061097757506109778185610b28565b826001600160a01b0316610d26826105d7565b6001600160a01b031614610d4c5760405162461bcd60e51b815260040161040290611c5a565b6001600160a01b038216610d725760405162461bcd60e51b8152600401610402906119cc565b610d7d8383836110d8565b610d88600082610c28565b6001600160a01b0383166000908152600360205260408120805460019290610db1908490611e3a565b90915550506001600160a01b0382166000908152600360205260408120805460019290610ddf908490611e0e565b909155505060008181526002602052604080822080546001600160a01b0319166001600160a01b0386811691821790925591518493918716917fddf252ad1be2c89b69c2b068fc378daa952ba7f163c4a11628f55a4df523b3ef91a4505050565b600a80546001600160a01b038381166001600160a01b0319831681179093556040519116919082907f8be0079c531659141344cd1fd0a4f28419497f9722a3daafe3b4186f6b6457e090600090a35050565b610e9d848484610d13565b610ea984848484611161565b6108905760405162461bcd60e51b8152600401610402906118fd565b606081610eea57506040805180820190915260018152600360fc1b6020820152610344565b8160005b8115610f145780610efe81611eb8565b9150610f0d9050600a83611e26565b9150610eee565b60008167ffffffffffffffff811115610f3d57634e487b7160e01b600052604160045260246000fd5b6040519080825280601f01601f191660200182016040528015610f67576020820181803683370190505b5090505b841561097757610f7c600183611e3a565b9150610f89600a86611ed3565b610f94906030611e0e565b60f81b818381518110610fb757634e487b7160e01b600052603260045260246000fd5b60200101906001600160f81b031916908160001a905350610fd9600a86611e26565b9450610f6b565b6001600160a01b0382166110065760405162461bcd60e51b815260040161040290611ba4565b61100f81610c07565b1561102c5760405162461bcd60e51b815260040161040290611995565b611038600083836110d8565b6001600160a01b0382166000908152600360205260408120805460019290611061908490611e0e565b909155505060008181526002602052604080822080546001600160a01b0319166001600160a01b03861690811790915590518392907fddf252ad1be2c89b69c2b068fc378daa952ba7f163c4a11628f55a4df523b3ef908290a45050565b6001600160e01b031981166301ffc9a760e01b14919050565b6110e38383836104ba565b6001600160a01b0383166110ff576110fa8161127c565b611122565b816001600160a01b0316836001600160a01b0316146111225761112283826112c0565b6001600160a01b03821661113e576111398161135d565b6104ba565b826001600160a01b0316826001600160a01b0316146104ba576104ba8282611436565b6000611175846001600160a01b031661147a565b1561127157836001600160a01b031663150b7a02611191610c24565b8786866040518563ffffffff1660e01b81526004016111b3949392919061180a565b602060405180830381600087803b1580156111cd57600080fd5b505af19250505080156111fd575060408051601f3d908101601f191682019092526111fa9181019061168c565b60015b611257573d80801561122b576040519150601f19603f3d011682016040523d82523d6000602084013e611230565b606091505b50805161124f5760405162461bcd60e51b8152600401610402906118fd565b805181602001fd5b6001600160e01b031916630a85bd0160e11b149050610977565b506001949350505050565b600880546000838152600960205260408120829055600182018355919091527ff3f7a9fe364faab93b216da50a3214154f22a0a2b415b23a84c8169e8b636ee30155565b600060016112cd8461060c565b6112d79190611e3a565b60008381526007602052604090205490915080821461132a576001600160a01b03841660009081526006602090815260408083208584528252808320548484528184208190558352600790915290208190555b5060009182526007602090815260408084208490556001600160a01b039094168352600681528383209183525290812055565b60085460009061136f90600190611e3a565b600083815260096020526040812054600880549394509092849081106113a557634e487b7160e01b600052603260045260246000fd5b9060005260206000200154905080600883815481106113d457634e487b7160e01b600052603260045260246000fd5b600091825260208083209091019290925582815260099091526040808220849055858252812055600880548061141a57634e487b7160e01b600052603160045260246000fd5b6001900381819060005260206000200160009055905550505050565b60006114418361060c565b6001600160a01b039093166000908152600660209081526040808320868452825280832085905593825260079052919091209190915550565b3b151590565b80356001600160a01b038116811461034457600080fd5b6000602082840312156114a8578081fd5b6114b182611480565b9392505050565b600080604083850312156114ca578081fd5b6114d383611480565b91506114e160208401611480565b90509250929050565b6000806000606084860312156114fe578081fd5b61150784611480565b925061151560208501611480565b9150604084013590509250925092565b6000806000806080858703121561153a578081fd5b61154385611480565b935061155160208601611480565b925060408501359150606085013567ffffffffffffffff811115611573578182fd5b8501601f81018713611583578182fd5b803561159661159182611de6565b611dbc565b8181528860208385010111156115aa578384fd5b81602084016020830137908101602001929092525092959194509250565b600080604083850312156115da578182fd5b6115e383611480565b915060208301356115f381611f29565b809150509250929050565b60008060408385031215611610578182fd5b61161983611480565b946020939093013593505050565b600060208284031215611638578081fd5b81516114b181611f29565b60008060408385031215611655578182fd5b825161166081611f29565b6020939093015192949293505050565b600060208284031215611681578081fd5b81356114b181611f37565b60006020828403121561169d578081fd5b81516114b181611f37565b6000602082840312156116b9578081fd5b815167ffffffffffffffff8111156116cf578182fd5b8201601f810184136116df578182fd5b80516116ed61159182611de6565b818152856020838501011115611701578384fd5b611712826020830160208601611e51565b95945050505050565b60006020828403121561172c578081fd5b5035919050565b600080600060608486031215611747578283fd5b8335925061175760208501611480565b915061176560408501611480565b90509250925092565b60008151808452611786816020860160208601611e51565b601f01601f19169290920160200192915050565b600083516117ac818460208801611e51565b8351908301906117c0818360208801611e51565b01949350505050565b938452602084019290925260601b6bffffffffffffffffffffffff19166040830152605482015260740190565b6001600160a01b0391909116815260200190565b6001600160a01b038581168252841660208201526040810183905260806060820181905260009061183d9083018461176e565b9695505050505050565b6020808252825182820181905260009190848201906040850190845b8181101561187f57835183529284019291840191600101611863565b50909695505050505050565b901515815260200190565b90815260200190565b6000602082526114b1602083018461176e565b6020808252602b908201527f455243373231456e756d657261626c653a206f776e657220696e646578206f7560408201526a74206f6620626f756e647360a81b606082015260800190565b60208082526032908201527f4552433732313a207472616e7366657220746f206e6f6e20455243373231526560408201527131b2b4bb32b91034b6b83632b6b2b73a32b960711b606082015260800190565b60208082526026908201527f4f776e61626c653a206e6577206f776e657220697320746865207a65726f206160408201526564647265737360d01b606082015260800190565b6020808252601c908201527f4552433732313a20746f6b656e20616c7265616479206d696e74656400000000604082015260600190565b60208082526024908201527f4552433732313a207472616e7366657220746f20746865207a65726f206164646040820152637265737360e01b606082015260800190565b60208082526019908201527f4552433732313a20617070726f766520746f2063616c6c657200000000000000604082015260600190565b6020808252602c908201527f4552433732313a206f70657261746f7220717565727920666f72206e6f6e657860408201526b34b9ba32b73a103a37b5b2b760a11b606082015260800190565b60208082526038908201527f4552433732313a20617070726f76652063616c6c6572206973206e6f74206f7760408201527f6e6572206e6f7220617070726f76656420666f7220616c6c0000000000000000606082015260800190565b6020808252600790820152662232b734b2b21760c91b604082015260600190565b6020808252602a908201527f4552433732313a2062616c616e636520717565727920666f7220746865207a65604082015269726f206164647265737360b01b606082015260800190565b60208082526029908201527f4552433732313a206f776e657220717565727920666f72206e6f6e657869737460408201526832b73a103a37b5b2b760b91b606082015260800190565b6020808252818101527f4552433732313a206d696e7420746f20746865207a65726f2061646472657373604082015260600190565b6020808252602c908201527f4552433732313a20617070726f76656420717565727920666f72206e6f6e657860408201526b34b9ba32b73a103a37b5b2b760a11b606082015260800190565b6020808252818101527f4f776e61626c653a2063616c6c6572206973206e6f7420746865206f776e6572604082015260600190565b60208082526029908201527f4552433732313a207472616e73666572206f6620746f6b656e2074686174206960408201526839903737ba1037bbb760b91b606082015260800190565b6020808252600a908201526927379030b1b1b2b9b99760b11b604082015260600190565b60208082526021908201527f4552433732313a20617070726f76616c20746f2063757272656e74206f776e656040820152603960f91b606082015260800190565b60208082526031908201527f4552433732313a207472616e736665722063616c6c6572206973206e6f74206f6040820152701ddb995c881b9bdc88185c1c1c9bdd9959607a1b606082015260800190565b6020808252602c908201527f455243373231456e756d657261626c653a20676c6f62616c20696e646578206f60408201526b7574206f6620626f756e647360a01b606082015260800190565b9182526001600160a01b0316602082015260400190565b60405181810167ffffffffffffffff81118282101715611dde57611dde611f13565b604052919050565b600067ffffffffffffffff821115611e0057611e00611f13565b50601f01601f191660200190565b60008219821115611e2157611e21611ee7565b500190565b600082611e3557611e35611efd565b500490565b600082821015611e4c57611e4c611ee7565b500390565b60005b83811015611e6c578181015183820152602001611e54565b838111156108905750506000910152565b600281046001821680611e9157607f821691505b60208210811415611eb257634e487b7160e01b600052602260045260246000fd5b50919050565b6000600019821415611ecc57611ecc611ee7565b5060010190565b600082611ee257611ee2611efd565b500690565b634e487b7160e01b600052601160045260246000fd5b634e487b7160e01b600052601260045260246000fd5b634e487b7160e01b600052604160045260246000fd5b8015158114610bc457600080fd5b6001600160e01b031981168114610bc457600080fdfea2646970667358221220ae29bbfa6ff2f75350b4bb8dd1a2c98aba16c5696e4be83eb777ec28b064899c64736f6c63430008000033",
  "immutableReferences": {},
  "source": "// SPDX-License-Identifier: MEH\n\npragma solidity ^0.8.0;\n\nimport \"./oz/ERC721Enumerable.sol\";\nimport \"./oz/Ownable.sol\";\nimport \"./oz/Strings.sol\";\nimport \"./interfaces/IUserDataPoolSeries.sol\";\nimport \"./interfaces/ICreatorDataType.sol\";\nimport \"./interfaces/ISeriesDataType.sol\";\nimport \"./interfaces/ISeriesController.sol\";\n\n\ncontract MintController is ERC721Enumerable, Ownable, ISeriesDataType {\n    using Strings for uint256;\n\n    event TokenMinted(uint256 _seriesId, address _to);\n\n    address dataPoolAddress;\n    address seriesControllerAddress;\n    mapping(uint256 => bytes32) public tokenIdHashes;\n    mapping(uint256 => uint256) public tokenIdToSeriesId;\n\n    modifier onlyMinter() {\n\n        require(\n            IUserDataPoolSeries(\n                dataPoolAddress\n            ).isProxy(_msgSender()),\n            \"No access.\"\n        );\n        _;\n    }\n\n    constructor(\n        address _dataPoolAddress,\n        address _seriesControllerAddress,\n        string memory _tokenName,\n        string memory _tokenSymbol\n    ) ERC721(_tokenName, _tokenSymbol) {\n        dataPoolAddress = _dataPoolAddress;\n        seriesControllerAddress = _seriesControllerAddress;\n    }\n\n    //TODO: one per wallet functionality?\n    function mint(uint256 _seriesId, address _to, address _by) external onlyMinter() {\n\n        bool ok;\n        uint256 tokenId;\n        (ok,tokenId) = ISeriesController(\n            seriesControllerAddress\n        ).attemptToMint(_seriesId, _by);\n        require(ok,\"Denied.\");\n\n        bytes32 tokenHash = keccak256(abi.encodePacked(tokenId, block.number, _to, block.timestamp));\n        tokenIdHashes[tokenId]= tokenHash;\n        tokenIdToSeriesId[tokenId] = _seriesId;\n        _mint(_to, tokenId);\n    }\n\n    function tokensOfOwner(address _owner) external view returns (uint256[] memory) {\n        uint256 tokenCount = balanceOf(_owner);\n        uint256[] memory tokenList = new uint256[](tokenCount);\n        uint256 i = 0;\n        for (i = 0; i < tokenCount; i++) {\n          tokenList[i] = tokenOfOwnerByIndex(_owner,i);\n        }\n\n        return tokenList;\n    }\n\n    function tokenURI(uint256 tokenId) public view virtual override returns (string memory) {\n\n        uint256 seriesId = tokenIdToSeriesId[tokenId];\n\n        string memory baseURI = IUserDataPoolSeries(\n            dataPoolAddress\n        ).getSeriesTokenURI(seriesId);\n\n        return bytes(baseURI).length > 0 ? string(abi.encodePacked(baseURI, tokenId.toString())) : \"\";\n    }\n\n}",
  "sourcePath": "/Users/jzito/dev/solidity/MintCaseManager/contracts/MintController.sol",
  "compiler": {
    "name": "solc",
    "version": "0.8.0+commit.c7dfd78e.Emscripten.clang"
  },
  "schemaVersion": "3.4.3",
  "updatedAt": "2021-10-11T03:09:32.574Z",
  "networkType": "ethereum",
  "devdoc": {
    "kind": "dev",
    "methods": {
      "approve(address,uint256)": {
        "details": "See {IERC721-approve}."
      },
      "balanceOf(address)": {
        "details": "See {IERC721-balanceOf}."
      },
      "getApproved(uint256)": {
        "details": "See {IERC721-getApproved}."
      },
      "isApprovedForAll(address,address)": {
        "details": "See {IERC721-isApprovedForAll}."
      },
      "name()": {
        "details": "See {IERC721Metadata-name}."
      },
      "owner()": {
        "details": "Returns the address of the current owner."
      },
      "ownerOf(uint256)": {
        "details": "See {IERC721-ownerOf}."
      },
      "renounceOwnership()": {
        "details": "Leaves the contract without owner. It will not be possible to call `onlyOwner` functions anymore. Can only be called by the current owner. NOTE: Renouncing ownership will leave the contract without an owner, thereby removing any functionality that is only available to the owner."
      },
      "safeTransferFrom(address,address,uint256)": {
        "details": "See {IERC721-safeTransferFrom}."
      },
      "safeTransferFrom(address,address,uint256,bytes)": {
        "details": "See {IERC721-safeTransferFrom}."
      },
      "setApprovalForAll(address,bool)": {
        "details": "See {IERC721-setApprovalForAll}."
      },
      "supportsInterface(bytes4)": {
        "details": "See {IERC165-supportsInterface}."
      },
      "symbol()": {
        "details": "See {IERC721Metadata-symbol}."
      },
      "tokenByIndex(uint256)": {
        "details": "See {IERC721Enumerable-tokenByIndex}."
      },
      "tokenOfOwnerByIndex(address,uint256)": {
        "details": "See {IERC721Enumerable-tokenOfOwnerByIndex}."
      },
      "tokenURI(uint256)": {
        "details": "See {IERC721Metadata-tokenURI}."
      },
      "totalSupply()": {
        "details": "See {IERC721Enumerable-totalSupply}."
      },
      "transferFrom(address,address,uint256)": {
        "details": "See {IERC721-transferFrom}."
      },
      "transferOwnership(address)": {
        "details": "Transfers ownership of the contract to a new account (`newOwner`). Can only be called by the current owner."
      }
    },
    "version": 1
  },
  "userdoc": {
    "kind": "user",
    "methods": {},
    "version": 1
  }
}