{
  "contractName": "MintCaseMinter",
  "abi": [
    {
      "inputs": [
        {
          "internalType": "address",
          "name": "_managerAddress",
          "type": "address"
        },
        {
          "internalType": "string",
          "name": "_tokenName",
          "type": "string"
        },
        {
          "internalType": "string",
          "name": "_tokenSymbol",
          "type": "string"
        }
      ],
      "stateMutability": "nonpayable",
      "type": "constructor"
    },
    {
      "anonymous": false,
      "inputs": [
        {
          "indexed": true,
          "internalType": "address",
          "name": "owner",
          "type": "address"
        },
        {
          "indexed": true,
          "internalType": "address",
          "name": "approved",
          "type": "address"
        },
        {
          "indexed": true,
          "internalType": "uint256",
          "name": "tokenId",
          "type": "uint256"
        }
      ],
      "name": "Approval",
      "type": "event"
    },
    {
      "anonymous": false,
      "inputs": [
        {
          "indexed": true,
          "internalType": "address",
          "name": "owner",
          "type": "address"
        },
        {
          "indexed": true,
          "internalType": "address",
          "name": "operator",
          "type": "address"
        },
        {
          "indexed": false,
          "internalType": "bool",
          "name": "approved",
          "type": "bool"
        }
      ],
      "name": "ApprovalForAll",
      "type": "event"
    },
    {
      "anonymous": false,
      "inputs": [
        {
          "indexed": true,
          "internalType": "address",
          "name": "previousOwner",
          "type": "address"
        },
        {
          "indexed": true,
          "internalType": "address",
          "name": "newOwner",
          "type": "address"
        }
      ],
      "name": "OwnershipTransferred",
      "type": "event"
    },
    {
      "anonymous": false,
      "inputs": [
        {
          "indexed": true,
          "internalType": "bytes32",
          "name": "role",
          "type": "bytes32"
        },
        {
          "indexed": true,
          "internalType": "bytes32",
          "name": "previousAdminRole",
          "type": "bytes32"
        },
        {
          "indexed": true,
          "internalType": "bytes32",
          "name": "newAdminRole",
          "type": "bytes32"
        }
      ],
      "name": "RoleAdminChanged",
      "type": "event"
    },
    {
      "anonymous": false,
      "inputs": [
        {
          "indexed": true,
          "internalType": "bytes32",
          "name": "role",
          "type": "bytes32"
        },
        {
          "indexed": true,
          "internalType": "address",
          "name": "account",
          "type": "address"
        },
        {
          "indexed": true,
          "internalType": "address",
          "name": "sender",
          "type": "address"
        }
      ],
      "name": "RoleGranted",
      "type": "event"
    },
    {
      "anonymous": false,
      "inputs": [
        {
          "indexed": true,
          "internalType": "bytes32",
          "name": "role",
          "type": "bytes32"
        },
        {
          "indexed": true,
          "internalType": "address",
          "name": "account",
          "type": "address"
        },
        {
          "indexed": true,
          "internalType": "address",
          "name": "sender",
          "type": "address"
        }
      ],
      "name": "RoleRevoked",
      "type": "event"
    },
    {
      "anonymous": false,
      "inputs": [
        {
          "indexed": true,
          "internalType": "address",
          "name": "from",
          "type": "address"
        },
        {
          "indexed": true,
          "internalType": "address",
          "name": "to",
          "type": "address"
        },
        {
          "indexed": true,
          "internalType": "uint256",
          "name": "tokenId",
          "type": "uint256"
        }
      ],
      "name": "Transfer",
      "type": "event"
    },
    {
      "inputs": [],
      "name": "DEFAULT_ADMIN_ROLE",
      "outputs": [
        {
          "internalType": "bytes32",
          "name": "",
          "type": "bytes32"
        }
      ],
      "stateMutability": "view",
      "type": "function"
    },
    {
      "inputs": [],
      "name": "MINTER_ROLE",
      "outputs": [
        {
          "internalType": "bytes32",
          "name": "",
          "type": "bytes32"
        }
      ],
      "stateMutability": "view",
      "type": "function"
    },
    {
      "inputs": [
        {
          "internalType": "address",
          "name": "to",
          "type": "address"
        },
        {
          "internalType": "uint256",
          "name": "tokenId",
          "type": "uint256"
        }
      ],
      "name": "approve",
      "outputs": [],
      "stateMutability": "nonpayable",
      "type": "function"
    },
    {
      "inputs": [
        {
          "internalType": "address",
          "name": "owner",
          "type": "address"
        }
      ],
      "name": "balanceOf",
      "outputs": [
        {
          "internalType": "uint256",
          "name": "",
          "type": "uint256"
        }
      ],
      "stateMutability": "view",
      "type": "function"
    },
    {
      "inputs": [
        {
          "internalType": "uint256",
          "name": "tokenId",
          "type": "uint256"
        }
      ],
      "name": "getApproved",
      "outputs": [
        {
          "internalType": "address",
          "name": "",
          "type": "address"
        }
      ],
      "stateMutability": "view",
      "type": "function"
    },
    {
      "inputs": [
        {
          "internalType": "bytes32",
          "name": "role",
          "type": "bytes32"
        }
      ],
      "name": "getRoleAdmin",
      "outputs": [
        {
          "internalType": "bytes32",
          "name": "",
          "type": "bytes32"
        }
      ],
      "stateMutability": "view",
      "type": "function"
    },
    {
      "inputs": [
        {
          "internalType": "bytes32",
          "name": "role",
          "type": "bytes32"
        },
        {
          "internalType": "address",
          "name": "account",
          "type": "address"
        }
      ],
      "name": "grantRole",
      "outputs": [],
      "stateMutability": "nonpayable",
      "type": "function"
    },
    {
      "inputs": [
        {
          "internalType": "bytes32",
          "name": "role",
          "type": "bytes32"
        },
        {
          "internalType": "address",
          "name": "account",
          "type": "address"
        }
      ],
      "name": "hasRole",
      "outputs": [
        {
          "internalType": "bool",
          "name": "",
          "type": "bool"
        }
      ],
      "stateMutability": "view",
      "type": "function"
    },
    {
      "inputs": [
        {
          "internalType": "address",
          "name": "owner",
          "type": "address"
        },
        {
          "internalType": "address",
          "name": "operator",
          "type": "address"
        }
      ],
      "name": "isApprovedForAll",
      "outputs": [
        {
          "internalType": "bool",
          "name": "",
          "type": "bool"
        }
      ],
      "stateMutability": "view",
      "type": "function"
    },
    {
      "inputs": [],
      "name": "name",
      "outputs": [
        {
          "internalType": "string",
          "name": "",
          "type": "string"
        }
      ],
      "stateMutability": "view",
      "type": "function"
    },
    {
      "inputs": [],
      "name": "owner",
      "outputs": [
        {
          "internalType": "address",
          "name": "",
          "type": "address"
        }
      ],
      "stateMutability": "view",
      "type": "function"
    },
    {
      "inputs": [
        {
          "internalType": "uint256",
          "name": "tokenId",
          "type": "uint256"
        }
      ],
      "name": "ownerOf",
      "outputs": [
        {
          "internalType": "address",
          "name": "",
          "type": "address"
        }
      ],
      "stateMutability": "view",
      "type": "function"
    },
    {
      "inputs": [],
      "name": "renounceOwnership",
      "outputs": [],
      "stateMutability": "nonpayable",
      "type": "function"
    },
    {
      "inputs": [
        {
          "internalType": "bytes32",
          "name": "role",
          "type": "bytes32"
        },
        {
          "internalType": "address",
          "name": "account",
          "type": "address"
        }
      ],
      "name": "renounceRole",
      "outputs": [],
      "stateMutability": "nonpayable",
      "type": "function"
    },
    {
      "inputs": [
        {
          "internalType": "bytes32",
          "name": "role",
          "type": "bytes32"
        },
        {
          "internalType": "address",
          "name": "account",
          "type": "address"
        }
      ],
      "name": "revokeRole",
      "outputs": [],
      "stateMutability": "nonpayable",
      "type": "function"
    },
    {
      "inputs": [
        {
          "internalType": "address",
          "name": "from",
          "type": "address"
        },
        {
          "internalType": "address",
          "name": "to",
          "type": "address"
        },
        {
          "internalType": "uint256",
          "name": "tokenId",
          "type": "uint256"
        }
      ],
      "name": "safeTransferFrom",
      "outputs": [],
      "stateMutability": "nonpayable",
      "type": "function"
    },
    {
      "inputs": [
        {
          "internalType": "address",
          "name": "from",
          "type": "address"
        },
        {
          "internalType": "address",
          "name": "to",
          "type": "address"
        },
        {
          "internalType": "uint256",
          "name": "tokenId",
          "type": "uint256"
        },
        {
          "internalType": "bytes",
          "name": "_data",
          "type": "bytes"
        }
      ],
      "name": "safeTransferFrom",
      "outputs": [],
      "stateMutability": "nonpayable",
      "type": "function"
    },
    {
      "inputs": [
        {
          "internalType": "address",
          "name": "operator",
          "type": "address"
        },
        {
          "internalType": "bool",
          "name": "approved",
          "type": "bool"
        }
      ],
      "name": "setApprovalForAll",
      "outputs": [],
      "stateMutability": "nonpayable",
      "type": "function"
    },
    {
      "inputs": [],
      "name": "symbol",
      "outputs": [
        {
          "internalType": "string",
          "name": "",
          "type": "string"
        }
      ],
      "stateMutability": "view",
      "type": "function"
    },
    {
      "inputs": [
        {
          "internalType": "uint256",
          "name": "index",
          "type": "uint256"
        }
      ],
      "name": "tokenByIndex",
      "outputs": [
        {
          "internalType": "uint256",
          "name": "",
          "type": "uint256"
        }
      ],
      "stateMutability": "view",
      "type": "function"
    },
    {
      "inputs": [
        {
          "internalType": "uint256",
          "name": "",
          "type": "uint256"
        }
      ],
      "name": "tokenIdHashes",
      "outputs": [
        {
          "internalType": "bytes32",
          "name": "",
          "type": "bytes32"
        }
      ],
      "stateMutability": "view",
      "type": "function"
    },
    {
      "inputs": [
        {
          "internalType": "uint256",
          "name": "",
          "type": "uint256"
        }
      ],
      "name": "tokenIdToSeriesId",
      "outputs": [
        {
          "internalType": "uint256",
          "name": "",
          "type": "uint256"
        }
      ],
      "stateMutability": "view",
      "type": "function"
    },
    {
      "inputs": [
        {
          "internalType": "address",
          "name": "owner",
          "type": "address"
        },
        {
          "internalType": "uint256",
          "name": "index",
          "type": "uint256"
        }
      ],
      "name": "tokenOfOwnerByIndex",
      "outputs": [
        {
          "internalType": "uint256",
          "name": "",
          "type": "uint256"
        }
      ],
      "stateMutability": "view",
      "type": "function"
    },
    {
      "inputs": [
        {
          "internalType": "uint256",
          "name": "tokenId",
          "type": "uint256"
        }
      ],
      "name": "tokenURI",
      "outputs": [
        {
          "internalType": "string",
          "name": "",
          "type": "string"
        }
      ],
      "stateMutability": "view",
      "type": "function"
    },
    {
      "inputs": [],
      "name": "totalSupply",
      "outputs": [
        {
          "internalType": "uint256",
          "name": "",
          "type": "uint256"
        }
      ],
      "stateMutability": "view",
      "type": "function"
    },
    {
      "inputs": [
        {
          "internalType": "address",
          "name": "from",
          "type": "address"
        },
        {
          "internalType": "address",
          "name": "to",
          "type": "address"
        },
        {
          "internalType": "uint256",
          "name": "tokenId",
          "type": "uint256"
        }
      ],
      "name": "transferFrom",
      "outputs": [],
      "stateMutability": "nonpayable",
      "type": "function"
    },
    {
      "inputs": [
        {
          "internalType": "address",
          "name": "newOwner",
          "type": "address"
        }
      ],
      "name": "transferOwnership",
      "outputs": [],
      "stateMutability": "nonpayable",
      "type": "function"
    },
    {
      "inputs": [
        {
          "internalType": "uint256",
          "name": "_seriesId",
          "type": "uint256"
        },
        {
          "internalType": "address",
          "name": "_to",
          "type": "address"
        },
        {
          "internalType": "address",
          "name": "_by",
          "type": "address"
        }
      ],
      "name": "mint",
      "outputs": [
        {
          "internalType": "uint256",
          "name": "",
          "type": "uint256"
        }
      ],
      "stateMutability": "nonpayable",
      "type": "function"
    },
    {
      "inputs": [
        {
          "internalType": "bytes4",
          "name": "interfaceId",
          "type": "bytes4"
        }
      ],
      "name": "supportsInterface",
      "outputs": [
        {
          "internalType": "bool",
          "name": "",
          "type": "bool"
        }
      ],
      "stateMutability": "view",
      "type": "function"
    }
  ],
  "bytecode": "0x60806040523480156200001157600080fd5b50604051620027f4380380620027f483398101604081905262000034916200035b565b8151829082906200004d9060009060208501906200020a565b508051620000639060019060208401906200020a565b505050620000806200007a620000ed60201b60201c565b620000f1565b62000096600062000090620000ed565b62000143565b620000c57f9f2df0fed2c77648de5860a4cc508cd0818c85b8b8a1ab4ceeef8d981c8956a662000090620000ed565b5050600e80546001600160a01b0319166001600160a01b039290921691909117905562000434565b3390565b600b80546001600160a01b038381166001600160a01b0319831681179093556040519116919082907f8be0079c531659141344cd1fd0a4f28419497f9722a3daafe3b4186f6b6457e090600090a35050565b6200014f828262000153565b5050565b6200015f8282620001df565b6200014f576000828152600a602090815260408083206001600160a01b03851684529091529020805460ff191660011790556200019b620000ed565b6001600160a01b0316816001600160a01b0316837f2f8788117e7eff1d82e926ec794901d17c78024a50270940304540a733656f0d60405160405180910390a45050565b6000918252600a602090815260408084206001600160a01b0393909316845291905290205460ff1690565b8280546200021890620003e1565b90600052602060002090601f0160209004810192826200023c576000855562000287565b82601f106200025757805160ff191683800117855562000287565b8280016001018555821562000287579182015b82811115620002875782518255916020019190600101906200026a565b506200029592915062000299565b5090565b5b808211156200029557600081556001016200029a565b600082601f830112620002c1578081fd5b81516001600160401b0380821115620002de57620002de6200041e565b6040516020601f8401601f19168201810183811183821017156200030657620003066200041e565b60405283825285840181018710156200031d578485fd5b8492505b8383101562000340578583018101518284018201529182019162000321565b838311156200035157848185840101525b5095945050505050565b60008060006060848603121562000370578283fd5b83516001600160a01b038116811462000387578384fd5b60208501519093506001600160401b0380821115620003a4578384fd5b620003b287838801620002b0565b93506040860151915080821115620003c8578283fd5b50620003d786828701620002b0565b9150509250925092565b600281046001821680620003f657607f821691505b602082108114156200041857634e487b7160e01b600052602260045260246000fd5b50919050565b634e487b7160e01b600052604160045260246000fd5b6123b080620004446000396000f3fe608060405234801561001057600080fd5b50600436106101cf5760003560e01c806370a0823111610104578063a22cb465116100a2578063d547741f11610071578063d547741f146103a1578063da39b3e7146103b4578063e985e9c5146103c7578063f2fde38b146103da576101cf565b8063a22cb46514610360578063b88d4fde14610373578063c87b56dd14610386578063d539139314610399576101cf565b8063914ce7f4116100de578063914ce7f41461032a57806391d148541461033d57806395d89b4114610350578063a217fddf14610358576101cf565b806370a0823114610307578063715018a61461031a5780638da5cb5b14610322576101cf565b8063248a9ca31161017157806336568abe1161014b57806336568abe146102bb57806342842e0e146102ce5780634f6ccce7146102e15780636352211e146102f4576101cf565b8063248a9ca3146102825780632f2ff15d146102955780632f745c59146102a8576101cf565b8063095ea7b3116101ad578063095ea7b31461023257806318160ddd146102475780632018c7671461025c57806323b872dd1461026f576101cf565b806301ffc9a7146101d457806306fdde03146101fd578063081812fc14610212575b600080fd5b6101e76101e2366004611a64565b6103ed565b6040516101f49190611c25565b60405180910390f35b61020561041a565b6040516101f49190611c39565b610225610220366004611a2a565b6104ac565b6040516101f49190611bd4565b6102456102403660046119d4565b6104f8565b005b61024f610590565b6040516101f49190611c30565b61024f61026a366004611a2a565b610596565b61024561027d366004611897565b6105a8565b61024f610290366004611a2a565b6105e0565b6102456102a3366004611a42565b6105f5565b61024f6102b63660046119d4565b610619565b6102456102c9366004611a42565b61066b565b6102456102dc366004611897565b6106b1565b61024f6102ef366004611a2a565b6106cc565b610225610302366004611a2a565b610727565b61024f61031536600461184b565b61075c565b6102456107a0565b6102256107eb565b61024f610338366004611a2a565b6107fa565b6101e761034b366004611a42565b61080c565b610205610837565b61024f610846565b61024561036e36600461199e565b61084b565b6102456103813660046118d2565b610919565b610205610394366004611a2a565b610958565b61024f6109db565b6102456103af366004611a42565b6109ff565b61024f6103c2366004611a9c565b610a1e565b6101e76103d5366004611865565b610b56565b6102456103e836600461184b565b610b84565b60006001600160e01b03198216631e7c553160e21b1480610412575061041282610bf5565b90505b919050565b606060008054610429906122aa565b80601f0160208091040260200160405190810160405280929190818152602001828054610455906122aa565b80156104a25780601f10610477576101008083540402835291602001916104a2565b820191906000526020600020905b81548152906001019060200180831161048557829003601f168201915b5050505050905090565b60006104b782610c1a565b6104dc5760405162461bcd60e51b81526004016104d390611f87565b60405180910390fd5b506000908152600460205260409020546001600160a01b031690565b600061050382610727565b9050806001600160a01b0316836001600160a01b031614156105375760405162461bcd60e51b81526004016104d3906120a0565b806001600160a01b0316610549610c37565b6001600160a01b031614806105655750610565816103d5610c37565b6105815760405162461bcd60e51b81526004016104d390611e62565b61058b8383610c3b565b505050565b60085490565b600d6020526000908152604090205481565b6105b96105b3610c37565b82610ca9565b6105d55760405162461bcd60e51b81526004016104d3906120e1565b61058b838383610d2e565b6000908152600a602052604090206001015490565b6105fe826105e0565b61060f8161060a610c37565b610e5b565b61058b8383610ebf565b60006106248361075c565b82106106425760405162461bcd60e51b81526004016104d390611c81565b506001600160a01b03919091166000908152600660209081526040808320938352929052205490565b610673610c37565b6001600160a01b0316816001600160a01b0316146106a35760405162461bcd60e51b81526004016104d39061219f565b6106ad8282610f46565b5050565b61058b83838360405180602001604052806000815250610919565b60006106d6610590565b82106106f45760405162461bcd60e51b81526004016104d390612132565b6008828154811061071557634e487b7160e01b600052603260045260246000fd5b90600052602060002001549050919050565b6000818152600260205260408120546001600160a01b0316806104125760405162461bcd60e51b81526004016104d390611f09565b60006001600160a01b0382166107845760405162461bcd60e51b81526004016104d390611ebf565b506001600160a01b031660009081526003602052604090205490565b6107a8610c37565b6001600160a01b03166107b96107eb565b6001600160a01b0316146107df5760405162461bcd60e51b81526004016104d390611fd3565b6107e96000610fcb565b565b600b546001600160a01b031690565b600c6020526000908152604090205481565b6000918252600a602090815260408084206001600160a01b0393909316845291905290205460ff1690565b606060018054610429906122aa565b600081565b610853610c37565b6001600160a01b0316826001600160a01b031614156108845760405162461bcd60e51b81526004016104d390611ddf565b8060056000610891610c37565b6001600160a01b03908116825260208083019390935260409182016000908120918716808252919093529120805460ff1916921515929092179091556108d5610c37565b6001600160a01b03167f17307eab39ab6107e8899845ad3d59bd9653f200f220920489ca2b5937696c318360405161090d9190611c25565b60405180910390a35050565b61092a610924610c37565b83610ca9565b6109465760405162461bcd60e51b81526004016104d3906120e1565b6109528484848461101d565b50505050565b606061096382610c1a565b61097f5760405162461bcd60e51b81526004016104d390612051565b6000610989611050565b905060008151116109a957604051806020016040528060008152506109d4565b806109b384611062565b6040516020016109c4929190611b03565b6040516020818303038152906040525b9392505050565b7f9f2df0fed2c77648de5860a4cc508cd0818c85b8b8a1ab4ceeef8d981c8956a681565b610a08826105e0565b610a148161060a610c37565b61058b8383610f46565b60007f9f2df0fed2c77648de5860a4cc508cd0818c85b8b8a1ab4ceeef8d981c8956a6610a4d8161060a610c37565b600e5460405163133d8b4160e21b815260009182916001600160a01b0390911690634cf62d0490610a84908a9089906004016121ee565b604080518083038186803b158015610a9b57600080fd5b505afa158015610aaf573d6000803e3d6000fd5b505050506040513d601f19601f82011682018060405250810190610ad391906119fd565b909250905081610af55760405162461bcd60e51b81526004016104d39061217e565b600081438842604051602001610b0e9493929190611ba7565b60408051601f1981840301815291815281516020928301206000858152600c8452828120829055600d90935291208990559050610b4b878361117d565b509695505050505050565b6001600160a01b03918216600090815260056020908152604080832093909416825291909152205460ff1690565b610b8c610c37565b6001600160a01b0316610b9d6107eb565b6001600160a01b031614610bc35760405162461bcd60e51b81526004016104d390611fd3565b6001600160a01b038116610be95760405162461bcd60e51b81526004016104d390611d1e565b610bf281610fcb565b50565b60006001600160e01b03198216637965db0b60e01b148061041257506104128261125c565b6000908152600260205260409020546001600160a01b0316151590565b3390565b600081815260046020526040902080546001600160a01b0319166001600160a01b0384169081179091558190610c7082610727565b6001600160a01b03167f8c5be1e5ebec7d5bd14f71427d1e84f3dd0314c0f7b2291e5b200ac8c7c3b92560405160405180910390a45050565b6000610cb482610c1a565b610cd05760405162461bcd60e51b81526004016104d390611e16565b6000610cdb83610727565b9050806001600160a01b0316846001600160a01b03161480610d165750836001600160a01b0316610d0b846104ac565b6001600160a01b0316145b80610d265750610d268185610b56565b949350505050565b826001600160a01b0316610d4182610727565b6001600160a01b031614610d675760405162461bcd60e51b81526004016104d390612008565b6001600160a01b038216610d8d5760405162461bcd60e51b81526004016104d390611d9b565b610d98838383611281565b610da3600082610c3b565b6001600160a01b0383166000908152600360205260408120805460019290610dcc908490612250565b90915550506001600160a01b0382166000908152600360205260408120805460019290610dfa908490612205565b909155505060008181526002602052604080822080546001600160a01b0319166001600160a01b0386811691821790925591518493918716917fddf252ad1be2c89b69c2b068fc378daa952ba7f163c4a11628f55a4df523b3ef91a4505050565b610e65828261080c565b6106ad57610e7d816001600160a01b0316601461130a565b610e8883602061130a565b604051602001610e99929190611b32565b60408051601f198184030181529082905262461bcd60e51b82526104d391600401611c39565b610ec9828261080c565b6106ad576000828152600a602090815260408083206001600160a01b03851684529091529020805460ff19166001179055610f02610c37565b6001600160a01b0316816001600160a01b0316837f2f8788117e7eff1d82e926ec794901d17c78024a50270940304540a733656f0d60405160405180910390a45050565b610f50828261080c565b156106ad576000828152600a602090815260408083206001600160a01b03851684529091529020805460ff19169055610f87610c37565b6001600160a01b0316816001600160a01b0316837ff6391f5c32d9c69d2a47ea670b442974b53935d1edc7fd64eb21e047a839171b60405160405180910390a45050565b600b80546001600160a01b038381166001600160a01b0319831681179093556040519116919082907f8be0079c531659141344cd1fd0a4f28419497f9722a3daafe3b4186f6b6457e090600090a35050565b611028848484610d2e565b611034848484846114bc565b6109525760405162461bcd60e51b81526004016104d390611ccc565b60408051602081019091526000815290565b60608161108757506040805180820190915260018152600360fc1b6020820152610415565b8160005b81156110b1578061109b816122e5565b91506110aa9050600a8361221d565b915061108b565b60008167ffffffffffffffff8111156110da57634e487b7160e01b600052604160045260246000fd5b6040519080825280601f01601f191660200182016040528015611104576020820181803683370190505b5090505b8415610d2657611119600183612250565b9150611126600a86612300565b611131906030612205565b60f81b81838151811061115457634e487b7160e01b600052603260045260246000fd5b60200101906001600160f81b031916908160001a905350611176600a8661221d565b9450611108565b6001600160a01b0382166111a35760405162461bcd60e51b81526004016104d390611f52565b6111ac81610c1a565b156111c95760405162461bcd60e51b81526004016104d390611d64565b6111d560008383611281565b6001600160a01b03821660009081526003602052604081208054600192906111fe908490612205565b909155505060008181526002602052604080822080546001600160a01b0319166001600160a01b03861690811790915590518392907fddf252ad1be2c89b69c2b068fc378daa952ba7f163c4a11628f55a4df523b3ef908290a45050565b60006001600160e01b0319821663780e9d6360e01b14806104125750610412826115d7565b61128c83838361058b565b6001600160a01b0383166112a8576112a381611617565b6112cb565b816001600160a01b0316836001600160a01b0316146112cb576112cb838261165b565b6001600160a01b0382166112e7576112e2816116f8565b61058b565b826001600160a01b0316826001600160a01b03161461058b5761058b82826117d1565b60606000611319836002612231565b611324906002612205565b67ffffffffffffffff81111561134a57634e487b7160e01b600052604160045260246000fd5b6040519080825280601f01601f191660200182016040528015611374576020820181803683370190505b509050600360fc1b8160008151811061139d57634e487b7160e01b600052603260045260246000fd5b60200101906001600160f81b031916908160001a905350600f60fb1b816001815181106113da57634e487b7160e01b600052603260045260246000fd5b60200101906001600160f81b031916908160001a90535060006113fe846002612231565b611409906001612205565b90505b600181111561149d576f181899199a1a9b1b9c1cb0b131b232b360811b85600f166010811061144b57634e487b7160e01b600052603260045260246000fd5b1a60f81b82828151811061146f57634e487b7160e01b600052603260045260246000fd5b60200101906001600160f81b031916908160001a90535060049490941c9361149681612293565b905061140c565b5083156109d45760405162461bcd60e51b81526004016104d390611c4c565b60006114d0846001600160a01b0316611815565b156115cc57836001600160a01b031663150b7a026114ec610c37565b8786866040518563ffffffff1660e01b815260040161150e9493929190611be8565b602060405180830381600087803b15801561152857600080fd5b505af1925050508015611558575060408051601f3d908101601f1916820190925261155591810190611a80565b60015b6115b2573d808015611586576040519150601f19603f3d011682016040523d82523d6000602084013e61158b565b606091505b5080516115aa5760405162461bcd60e51b81526004016104d390611ccc565b805181602001fd5b6001600160e01b031916630a85bd0160e11b149050610d26565b506001949350505050565b60006001600160e01b031982166380ac58cd60e01b148061160857506001600160e01b03198216635b5e139f60e01b145b8061041257506104128261181b565b600880546000838152600960205260408120829055600182018355919091527ff3f7a9fe364faab93b216da50a3214154f22a0a2b415b23a84c8169e8b636ee30155565b600060016116688461075c565b6116729190612250565b6000838152600760205260409020549091508082146116c5576001600160a01b03841660009081526006602090815260408083208584528252808320548484528184208190558352600790915290208190555b5060009182526007602090815260408084208490556001600160a01b039094168352600681528383209183525290812055565b60085460009061170a90600190612250565b6000838152600960205260408120546008805493945090928490811061174057634e487b7160e01b600052603260045260246000fd5b90600052602060002001549050806008838154811061176f57634e487b7160e01b600052603260045260246000fd5b60009182526020808320909101929092558281526009909152604080822084905585825281205560088054806117b557634e487b7160e01b600052603160045260246000fd5b6001900381819060005260206000200160009055905550505050565b60006117dc8361075c565b6001600160a01b039093166000908152600660209081526040808320868452825280832085905593825260079052919091209190915550565b3b151590565b6001600160e01b031981166301ffc9a760e01b14919050565b80356001600160a01b038116811461041557600080fd5b60006020828403121561185c578081fd5b6109d482611834565b60008060408385031215611877578081fd5b61188083611834565b915061188e60208401611834565b90509250929050565b6000806000606084860312156118ab578081fd5b6118b484611834565b92506118c260208501611834565b9150604084013590509250925092565b600080600080608085870312156118e7578081fd5b6118f085611834565b935060206118ff818701611834565b935060408601359250606086013567ffffffffffffffff80821115611922578384fd5b818801915088601f830112611935578384fd5b81358181111561194757611947612340565b604051601f8201601f191681018501838111828210171561196a5761196a612340565b60405281815283820185018b1015611980578586fd5b81858501868301379081019093019390935250939692955090935050565b600080604083850312156119b0578182fd5b6119b983611834565b915060208301356119c981612356565b809150509250929050565b600080604083850312156119e6578182fd5b6119ef83611834565b946020939093013593505050565b60008060408385031215611a0f578182fd5b8251611a1a81612356565b6020939093015192949293505050565b600060208284031215611a3b578081fd5b5035919050565b60008060408385031215611a54578182fd5b8235915061188e60208401611834565b600060208284031215611a75578081fd5b81356109d481612364565b600060208284031215611a91578081fd5b81516109d481612364565b600080600060608486031215611ab0578283fd5b83359250611ac060208501611834565b9150611ace60408501611834565b90509250925092565b60008151808452611aef816020860160208601612267565b601f01601f19169290920160200192915050565b60008351611b15818460208801612267565b835190830190611b29818360208801612267565b01949350505050565b60007f416363657373436f6e74726f6c3a206163636f756e742000000000000000000082528351611b6a816017850160208801612267565b7001034b99036b4b9b9b4b733903937b6329607d1b6017918401918201528351611b9b816028840160208801612267565b01602801949350505050565b938452602084019290925260601b6bffffffffffffffffffffffff19166040830152605482015260740190565b6001600160a01b0391909116815260200190565b6001600160a01b0385811682528416602082015260408101839052608060608201819052600090611c1b90830184611ad7565b9695505050505050565b901515815260200190565b90815260200190565b6000602082526109d46020830184611ad7565b6020808252818101527f537472696e67733a20686578206c656e67746820696e73756666696369656e74604082015260600190565b6020808252602b908201527f455243373231456e756d657261626c653a206f776e657220696e646578206f7560408201526a74206f6620626f756e647360a81b606082015260800190565b60208082526032908201527f4552433732313a207472616e7366657220746f206e6f6e20455243373231526560408201527131b2b4bb32b91034b6b83632b6b2b73a32b960711b606082015260800190565b60208082526026908201527f4f776e61626c653a206e6577206f776e657220697320746865207a65726f206160408201526564647265737360d01b606082015260800190565b6020808252601c908201527f4552433732313a20746f6b656e20616c7265616479206d696e74656400000000604082015260600190565b60208082526024908201527f4552433732313a207472616e7366657220746f20746865207a65726f206164646040820152637265737360e01b606082015260800190565b60208082526019908201527f4552433732313a20617070726f766520746f2063616c6c657200000000000000604082015260600190565b6020808252602c908201527f4552433732313a206f70657261746f7220717565727920666f72206e6f6e657860408201526b34b9ba32b73a103a37b5b2b760a11b606082015260800190565b60208082526038908201527f4552433732313a20617070726f76652063616c6c6572206973206e6f74206f7760408201527f6e6572206e6f7220617070726f76656420666f7220616c6c0000000000000000606082015260800190565b6020808252602a908201527f4552433732313a2062616c616e636520717565727920666f7220746865207a65604082015269726f206164647265737360b01b606082015260800190565b60208082526029908201527f4552433732313a206f776e657220717565727920666f72206e6f6e657869737460408201526832b73a103a37b5b2b760b91b606082015260800190565b6020808252818101527f4552433732313a206d696e7420746f20746865207a65726f2061646472657373604082015260600190565b6020808252602c908201527f4552433732313a20617070726f76656420717565727920666f72206e6f6e657860408201526b34b9ba32b73a103a37b5b2b760a11b606082015260800190565b6020808252818101527f4f776e61626c653a2063616c6c6572206973206e6f7420746865206f776e6572604082015260600190565b60208082526029908201527f4552433732313a207472616e73666572206f6620746f6b656e2074686174206960408201526839903737ba1037bbb760b91b606082015260800190565b6020808252602f908201527f4552433732314d657461646174613a2055524920717565727920666f72206e6f60408201526e3732bc34b9ba32b73a103a37b5b2b760891b606082015260800190565b60208082526021908201527f4552433732313a20617070726f76616c20746f2063757272656e74206f776e656040820152603960f91b606082015260800190565b60208082526031908201527f4552433732313a207472616e736665722063616c6c6572206973206e6f74206f6040820152701ddb995c881b9bdc88185c1c1c9bdd9959607a1b606082015260800190565b6020808252602c908201527f455243373231456e756d657261626c653a20676c6f62616c20696e646578206f60408201526b7574206f6620626f756e647360a01b606082015260800190565b6020808252600790820152662737ba1037b59760c91b604082015260600190565b6020808252602f908201527f416363657373436f6e74726f6c3a2063616e206f6e6c792072656e6f756e636560408201526e103937b632b9903337b91039b2b63360891b606082015260800190565b9182526001600160a01b0316602082015260400190565b6000821982111561221857612218612314565b500190565b60008261222c5761222c61232a565b500490565b600081600019048311821515161561224b5761224b612314565b500290565b60008282101561226257612262612314565b500390565b60005b8381101561228257818101518382015260200161226a565b838111156109525750506000910152565b6000816122a2576122a2612314565b506000190190565b6002810460018216806122be57607f821691505b602082108114156122df57634e487b7160e01b600052602260045260246000fd5b50919050565b60006000198214156122f9576122f9612314565b5060010190565b60008261230f5761230f61232a565b500690565b634e487b7160e01b600052601160045260246000fd5b634e487b7160e01b600052601260045260246000fd5b634e487b7160e01b600052604160045260246000fd5b8015158114610bf257600080fd5b6001600160e01b031981168114610bf257600080fdfea2646970667358221220e0875bb23c836fa4a1a68ffbc6e70d7669698b4ac086b50456ddae0cc0532d6f64736f6c63430008000033",
  "immutableReferences": {},
  "source": "// SPDX-License-Identifier: MEH\n\npragma solidity ^0.8.0;\n\nimport \"./oz/ERC721Enumerable.sol\";\nimport \"./oz/Ownable.sol\";\nimport \"./oz/AccessControl.sol\";\n\n\ncontract MintCaseManager {\n    function okToMint(uint256 _seriesId, address _by) external view returns(bool,uint256) {}\n    function tokenMinted(uint256 _seriesId) external view {}\n}\n\ncontract MintCaseMinter is ERC721Enumerable, AccessControl, Ownable {\n\n    bytes32 public constant MINTER_ROLE = keccak256(\"MINTER_ROLE\");\n    mapping(uint256 => bytes32) public tokenIdHashes;\n    mapping(uint256 => uint256) public tokenIdToSeriesId;\n\n    MintCaseManager mintManager;\n\n    constructor(address _managerAddress, string memory _tokenName, string memory _tokenSymbol) ERC721(_tokenName, _tokenSymbol) {\n\n        _setupRole(DEFAULT_ADMIN_ROLE, _msgSender());\n        _setupRole(MINTER_ROLE,_msgSender());\n\n        mintManager = MintCaseManager(_managerAddress);\n\t}\n\n    function mint(uint256 _seriesId, address _to, address _by) external onlyRole(MINTER_ROLE) returns (uint256) {\n        \n        bool ok;\n        uint256 tokenId;\n        (ok,tokenId) = mintManager.okToMint(_seriesId, _by);\n        require(ok,\"Not ok.\");\n\n        bytes32 tokenHash = keccak256(abi.encodePacked(tokenId, block.number, _to, block.timestamp));\n        tokenIdHashes[tokenId]= tokenHash;\n        tokenIdToSeriesId[tokenId] = _seriesId;\n        _mint(_to, tokenId);\n        return tokenId;\n    }\n\n\n\n    function supportsInterface(bytes4 interfaceId) public view virtual override(ERC721Enumerable, AccessControl) returns (bool) {\n        return interfaceId == type(ERC721Enumerable).interfaceId || super.supportsInterface(interfaceId);\n    }\n}",
  "sourcePath": "/Users/jzito/dev/solidity/MintCaseManager/contracts/MintCaseMinter.sol",
  "compiler": {
    "name": "solc",
    "version": "0.8.0+commit.c7dfd78e.Emscripten.clang"
  },
  "schemaVersion": "3.4.3",
  "updatedAt": "2021-10-06T23:21:19.848Z",
  "devdoc": {
    "kind": "dev",
    "methods": {
      "approve(address,uint256)": {
        "details": "See {IERC721-approve}."
      },
      "balanceOf(address)": {
        "details": "See {IERC721-balanceOf}."
      },
      "getApproved(uint256)": {
        "details": "See {IERC721-getApproved}."
      },
      "getRoleAdmin(bytes32)": {
        "details": "Returns the admin role that controls `role`. See {grantRole} and {revokeRole}. To change a role's admin, use {_setRoleAdmin}."
      },
      "grantRole(bytes32,address)": {
        "details": "Grants `role` to `account`. If `account` had not been already granted `role`, emits a {RoleGranted} event. Requirements: - the caller must have ``role``'s admin role."
      },
      "hasRole(bytes32,address)": {
        "details": "Returns `true` if `account` has been granted `role`."
      },
      "isApprovedForAll(address,address)": {
        "details": "See {IERC721-isApprovedForAll}."
      },
      "name()": {
        "details": "See {IERC721Metadata-name}."
      },
      "owner()": {
        "details": "Returns the address of the current owner."
      },
      "ownerOf(uint256)": {
        "details": "See {IERC721-ownerOf}."
      },
      "renounceOwnership()": {
        "details": "Leaves the contract without owner. It will not be possible to call `onlyOwner` functions anymore. Can only be called by the current owner. NOTE: Renouncing ownership will leave the contract without an owner, thereby removing any functionality that is only available to the owner."
      },
      "renounceRole(bytes32,address)": {
        "details": "Revokes `role` from the calling account. Roles are often managed via {grantRole} and {revokeRole}: this function's purpose is to provide a mechanism for accounts to lose their privileges if they are compromised (such as when a trusted device is misplaced). If the calling account had been granted `role`, emits a {RoleRevoked} event. Requirements: - the caller must be `account`."
      },
      "revokeRole(bytes32,address)": {
        "details": "Revokes `role` from `account`. If `account` had been granted `role`, emits a {RoleRevoked} event. Requirements: - the caller must have ``role``'s admin role."
      },
      "safeTransferFrom(address,address,uint256)": {
        "details": "See {IERC721-safeTransferFrom}."
      },
      "safeTransferFrom(address,address,uint256,bytes)": {
        "details": "See {IERC721-safeTransferFrom}."
      },
      "setApprovalForAll(address,bool)": {
        "details": "See {IERC721-setApprovalForAll}."
      },
      "symbol()": {
        "details": "See {IERC721Metadata-symbol}."
      },
      "tokenByIndex(uint256)": {
        "details": "See {IERC721Enumerable-tokenByIndex}."
      },
      "tokenOfOwnerByIndex(address,uint256)": {
        "details": "See {IERC721Enumerable-tokenOfOwnerByIndex}."
      },
      "tokenURI(uint256)": {
        "details": "See {IERC721Metadata-tokenURI}."
      },
      "totalSupply()": {
        "details": "See {IERC721Enumerable-totalSupply}."
      },
      "transferFrom(address,address,uint256)": {
        "details": "See {IERC721-transferFrom}."
      },
      "transferOwnership(address)": {
        "details": "Transfers ownership of the contract to a new account (`newOwner`). Can only be called by the current owner."
      }
    },
    "version": 1
  },
  "userdoc": {
    "kind": "user",
    "methods": {},
    "version": 1
  }
}