{
  "contractName": "MintCaseManager",
  "abi": [
    {
      "inputs": [
        {
          "internalType": "uint256",
          "name": "_seriesId",
          "type": "uint256"
        },
        {
          "internalType": "address",
          "name": "_by",
          "type": "address"
        }
      ],
      "name": "okToMint",
      "outputs": [
        {
          "internalType": "bool",
          "name": "",
          "type": "bool"
        },
        {
          "internalType": "uint256",
          "name": "",
          "type": "uint256"
        }
      ],
      "stateMutability": "view",
      "type": "function"
    },
    {
      "inputs": [
        {
          "internalType": "uint256",
          "name": "_seriesId",
          "type": "uint256"
        }
      ],
      "name": "tokenMinted",
      "outputs": [],
      "stateMutability": "view",
      "type": "function"
    }
  ],
  "bytecode": "0x608060405234801561001057600080fd5b5061010d806100206000396000f3fe6080604052348015600f57600080fd5b506004361060325760003560e01c80634cf62d04146037578063ff4078d314605b575b600080fd5b60466042366004608f565b606c565b604051605292919060c7565b60405180910390f35b606a60663660046078565b6075565b005b50600091829150565b50565b6000602082840312156088578081fd5b5035919050565b6000806040838503121560a0578081fd5b8235915060208301356001600160a01b038116811460bc578182fd5b809150509250929050565b911515825260208201526040019056fea2646970667358221220a198bb2af3b17bff483492aa4db8ae0abbcbe9515460cd507f58e3e1952b839064736f6c63430008000033",
  "immutableReferences": {},
  "source": "// SPDX-License-Identifier: MEH\n\npragma solidity ^0.8.0;\n\nimport \"./oz/ERC721Enumerable.sol\";\nimport \"./oz/Ownable.sol\";\nimport \"./oz/AccessControl.sol\";\n\n\ncontract MintCaseManager {\n    function okToMint(uint256 _seriesId, address _by) external view returns(bool,uint256) {}\n    function tokenMinted(uint256 _seriesId) external view {}\n}\n\ncontract MintCaseMinter is ERC721Enumerable, AccessControl, Ownable {\n\n    bytes32 public constant MINTER_ROLE = keccak256(\"MINTER_ROLE\");\n    mapping(uint256 => bytes32) public tokenIdHashes;\n    mapping(uint256 => uint256) public tokenIdToSeriesId;\n\n    MintCaseManager mintManager;\n\n    constructor(address _managerAddress, string memory _tokenName, string memory _tokenSymbol) ERC721(_tokenName, _tokenSymbol) {\n\n        _setupRole(DEFAULT_ADMIN_ROLE, _msgSender());\n        _setupRole(MINTER_ROLE,_msgSender());\n\n        mintManager = MintCaseManager(_managerAddress);\n\t}\n\n    function mint(uint256 _seriesId, address _to, address _by) external onlyRole(MINTER_ROLE) returns (uint256) {\n        \n        bool ok;\n        uint256 tokenId;\n        (ok,tokenId) = mintManager.okToMint(_seriesId, _by);\n        require(ok,\"Not ok.\");\n\n        bytes32 tokenHash = keccak256(abi.encodePacked(tokenId, block.number, _to, block.timestamp));\n        tokenIdHashes[tokenId]= tokenHash;\n        tokenIdToSeriesId[tokenId] = _seriesId;\n        _mint(_to, tokenId);\n        return tokenId;\n    }\n\n\n\n    function supportsInterface(bytes4 interfaceId) public view virtual override(ERC721Enumerable, AccessControl) returns (bool) {\n        return interfaceId == type(ERC721Enumerable).interfaceId || super.supportsInterface(interfaceId);\n    }\n}",
  "sourcePath": "/Users/jzito/dev/solidity/MintCaseManager/contracts/MintCaseMinter.sol",
  "compiler": {
    "name": "solc",
    "version": "0.8.0+commit.c7dfd78e.Emscripten.clang"
  },
  "schemaVersion": "3.4.3",
  "updatedAt": "2021-10-06T23:21:19.844Z",
  "devdoc": {
    "kind": "dev",
    "methods": {},
    "version": 1
  },
  "userdoc": {
    "kind": "user",
    "methods": {},
    "version": 1
  }
}