{
  "contractName": "PaymentController",
  "abi": [
    {
      "inputs": [
        {
          "internalType": "address",
          "name": "_dataPoolAddress",
          "type": "address"
        },
        {
          "internalType": "address",
          "name": "_mintControllerAddress",
          "type": "address"
        },
        {
          "internalType": "address",
          "name": "_treasuryAddress",
          "type": "address"
        }
      ],
      "stateMutability": "nonpayable",
      "type": "constructor"
    },
    {
      "anonymous": false,
      "inputs": [
        {
          "indexed": false,
          "internalType": "uint256",
          "name": "_seriesId",
          "type": "uint256"
        },
        {
          "indexed": false,
          "internalType": "address",
          "name": "_to",
          "type": "address"
        },
        {
          "indexed": false,
          "internalType": "uint256",
          "name": "_amount",
          "type": "uint256"
        }
      ],
      "name": "DepositProcessed",
      "type": "event"
    },
    {
      "anonymous": false,
      "inputs": [
        {
          "indexed": true,
          "internalType": "address",
          "name": "previousOwner",
          "type": "address"
        },
        {
          "indexed": true,
          "internalType": "address",
          "name": "newOwner",
          "type": "address"
        }
      ],
      "name": "OwnershipTransferred",
      "type": "event"
    },
    {
      "anonymous": false,
      "inputs": [
        {
          "indexed": true,
          "internalType": "address",
          "name": "payee",
          "type": "address"
        },
        {
          "indexed": false,
          "internalType": "uint256",
          "name": "weiAmount",
          "type": "uint256"
        }
      ],
      "name": "Withdrawn",
      "type": "event"
    },
    {
      "inputs": [],
      "name": "owner",
      "outputs": [
        {
          "internalType": "address",
          "name": "",
          "type": "address"
        }
      ],
      "stateMutability": "view",
      "type": "function",
      "constant": true
    },
    {
      "inputs": [],
      "name": "renounceOwnership",
      "outputs": [],
      "stateMutability": "nonpayable",
      "type": "function"
    },
    {
      "inputs": [
        {
          "internalType": "address",
          "name": "newOwner",
          "type": "address"
        }
      ],
      "name": "transferOwnership",
      "outputs": [],
      "stateMutability": "nonpayable",
      "type": "function"
    },
    {
      "inputs": [
        {
          "internalType": "address",
          "name": "_mintControllerAddress",
          "type": "address"
        }
      ],
      "name": "updateMintControllerAddress",
      "outputs": [],
      "stateMutability": "nonpayable",
      "type": "function"
    },
    {
      "inputs": [
        {
          "internalType": "address",
          "name": "_treasuryAddress",
          "type": "address"
        }
      ],
      "name": "updateTreasuryAddress",
      "outputs": [],
      "stateMutability": "nonpayable",
      "type": "function"
    },
    {
      "inputs": [
        {
          "internalType": "address",
          "name": "_dataPoolAddress",
          "type": "address"
        }
      ],
      "name": "updateDataPoolAddress",
      "outputs": [],
      "stateMutability": "nonpayable",
      "type": "function"
    },
    {
      "inputs": [
        {
          "internalType": "uint256",
          "name": "_seriesId",
          "type": "uint256"
        }
      ],
      "name": "purchase",
      "outputs": [],
      "stateMutability": "payable",
      "type": "function",
      "payable": true
    },
    {
      "inputs": [
        {
          "internalType": "address payable",
          "name": "_payee",
          "type": "address"
        }
      ],
      "name": "withdraw",
      "outputs": [],
      "stateMutability": "nonpayable",
      "type": "function"
    },
    {
      "inputs": [
        {
          "internalType": "address",
          "name": "payee",
          "type": "address"
        }
      ],
      "name": "depositsOf",
      "outputs": [
        {
          "internalType": "uint256",
          "name": "",
          "type": "uint256"
        }
      ],
      "stateMutability": "view",
      "type": "function",
      "constant": true
    }
  ],
  "bytecode": "0x608060405234801561001057600080fd5b50604051610f1d380380610f1d83398101604081905261002f916100f5565b61003f61003a610085565b610089565b60018055600280546001600160a01b039485166001600160a01b031991821617909155600380549385169382169390931790925560048054919093169116179055610137565b3390565b600080546001600160a01b038381166001600160a01b0319831681178455604051919092169283917f8be0079c531659141344cd1fd0a4f28419497f9722a3daafe3b4186f6b6457e09190a35050565b80516001600160a01b03811681146100f057600080fd5b919050565b600080600060608486031215610109578283fd5b610112846100d9565b9250610120602085016100d9565b915061012e604085016100d9565b90509250925092565b610dd7806101466000396000f3fe6080604052600436106100865760003560e01c80638da5cb5b116100595780638da5cb5b14610102578063b025d29d1461012d578063e3a9db1a1461014d578063efef39a11461017a578063f2fde38b1461018d57610086565b806317a2a73f1461008b57806351cff8d9146100ad578063715018a6146100cd578063841e4561146100e2575b600080fd5b34801561009757600080fd5b506100ab6100a6366004610a70565b6101ad565b005b3480156100b957600080fd5b506100ab6100c8366004610a70565b610217565b3480156100d957600080fd5b506100ab6102e8565b3480156100ee57600080fd5b506100ab6100fd366004610a70565b610333565b34801561010e57600080fd5b50610117610394565b6040516101249190610b08565b60405180910390f35b34801561013957600080fd5b506100ab610148366004610a70565b6103a3565b34801561015957600080fd5b5061016d610168366004610a70565b610404565b6040516101249190610cc1565b6100ab610188366004610ad5565b61041f565b34801561019957600080fd5b506100ab6101a8366004610a70565b610573565b6101b56105e4565b6001600160a01b03166101c6610394565b6001600160a01b0316146101f55760405162461bcd60e51b81526004016101ec90610bf6565b60405180910390fd5b600380546001600160a01b0319166001600160a01b0392909216919091179055565b6002600154141561023a5760405162461bcd60e51b81526004016101ec90610c53565b60026001556102476105e4565b6001600160a01b0316816001600160a01b0316146102775760405162461bcd60e51b81526004016101ec90610c8a565b6001600160a01b038116600081815260056020526040812080549190559061029f90826105e8565b816001600160a01b03167f7084f5476618d8e60b11ef0d7d3f06914655adb8793e28ff7f018d4c76d505d5826040516102d89190610cc1565b60405180910390a2505060018055565b6102f06105e4565b6001600160a01b0316610301610394565b6001600160a01b0316146103275760405162461bcd60e51b81526004016101ec90610bf6565b6103316000610689565b565b61033b6105e4565b6001600160a01b031661034c610394565b6001600160a01b0316146103725760405162461bcd60e51b81526004016101ec90610bf6565b600480546001600160a01b0319166001600160a01b0392909216919091179055565b6000546001600160a01b031690565b6103ab6105e4565b6001600160a01b03166103bc610394565b6001600160a01b0316146103e25760405162461bcd60e51b81526004016101ec90610bf6565b600280546001600160a01b0319166001600160a01b0392909216919091179055565b6001600160a01b031660009081526005602052604090205490565b600260015414156104425760405162461bcd60e51b81526004016101ec90610c53565b6002600181905554604051630a4b12bb60e41b815234916000916001600160a01b039091169063a4b12bb09061047c908690600401610cc1565b60206040518083038186803b15801561049457600080fd5b505afa1580156104a8573d6000803e3d6000fd5b505050506040513d601f19601f820116820180604052508101906104cc9190610aed565b9050808210156104ee5760405162461bcd60e51b81526004016101ec90610c2b565b6003546001600160a01b031663da39b3e7846105086105e4565b6105106105e4565b6040518463ffffffff1660e01b815260040161052e93929190610cca565b600060405180830381600087803b15801561054857600080fd5b505af115801561055c573d6000803e3d6000fd5b5050505061056a83836106d9565b50506001805550565b61057b6105e4565b6001600160a01b031661058c610394565b6001600160a01b0316146105b25760405162461bcd60e51b81526004016101ec90610bf6565b6001600160a01b0381166105d85760405162461bcd60e51b81526004016101ec90610b1c565b6105e181610689565b50565b3390565b804710156106085760405162461bcd60e51b81526004016101ec90610bbf565b6000826001600160a01b03168260405161062190610b05565b60006040518083038185875af1925050503d806000811461065e576040519150601f19603f3d011682016040523d82523d6000602084013e610663565b606091505b50509050806106845760405162461bcd60e51b81526004016101ec90610b62565b505050565b600080546001600160a01b038381166001600160a01b0319831681178455604051919092169283917f8be0079c531659141344cd1fd0a4f28419497f9722a3daafe3b4186f6b6457e09190a35050565b60025460405163a4a9984960e01b81526000916001600160a01b03169063a4a998499061070a908690600401610cc1565b60206040518083038186803b15801561072257600080fd5b505afa158015610736573d6000803e3d6000fd5b505050506040513d601f19601f8201168201806040525081019061075a9190610aed565b90508160006103e861076c8484610d40565b6107769190610d20565b90506107828282610a51565b6004546001600160a01b03166000908152600560205260409020549092506107aa9082610a64565b600480546001600160a01b039081166000908152600560205260409081902093909355905491517f5bfaeefda3da63ca85ae8f1475d3cab47dd256000ab15f61732a7de66bdb4dfd926108039289929116908590610ce9565b60405180910390a1600254604051631baa371f60e11b815260009182916001600160a01b03909116906337546e3e90610840908a90600401610cc1565b604080518083038186803b15801561085757600080fd5b505afa15801561086b573d6000803e3d6000fd5b505050506040513d601f19601f8201168201806040525081019061088f9190610aa8565b90925090506001600160a01b038216156109485760006103e86108b28387610d40565b6108bc9190610d20565b90506108c88582610a51565b6001600160a01b0384166000908152600560205260409020549095506108ee9082610a64565b6001600160a01b0384166000908152600560205260409081902091909155517f5bfaeefda3da63ca85ae8f1475d3cab47dd256000ab15f61732a7de66bdb4dfd9061093e908a9086908590610ce9565b60405180910390a1505b60025460405163b68a9f9760e01b81526000916001600160a01b03169063b68a9f9790610979908b90600401610cc1565b60206040518083038186803b15801561099157600080fd5b505afa1580156109a5573d6000803e3d6000fd5b505050506040513d601f19601f820116820180604052508101906109c99190610a8c565b6001600160a01b0381166000908152600560205260409020549091506109ef9086610a64565b6001600160a01b0382166000908152600560205260409081902091909155517f5bfaeefda3da63ca85ae8f1475d3cab47dd256000ab15f61732a7de66bdb4dfd90610a3f908a9084908990610ce9565b60405180910390a15050505050505050565b6000610a5d8284610d5f565b9392505050565b6000610a5d8284610d08565b600060208284031215610a81578081fd5b8135610a5d81610d8c565b600060208284031215610a9d578081fd5b8151610a5d81610d8c565b60008060408385031215610aba578081fd5b8251610ac581610d8c565b6020939093015192949293505050565b600060208284031215610ae6578081fd5b5035919050565b600060208284031215610afe578081fd5b5051919050565b90565b6001600160a01b0391909116815260200190565b60208082526026908201527f4f776e61626c653a206e6577206f776e657220697320746865207a65726f206160408201526564647265737360d01b606082015260800190565b6020808252603a908201527f416464726573733a20756e61626c6520746f2073656e642076616c75652c207260408201527f6563697069656e74206d61792068617665207265766572746564000000000000606082015260800190565b6020808252601d908201527f416464726573733a20696e73756666696369656e742062616c616e6365000000604082015260600190565b6020808252818101527f4f776e61626c653a2063616c6c6572206973206e6f7420746865206f776e6572604082015260600190565b6020808252600e908201526d24b73b30b634b210283934b1b29760911b604082015260600190565b6020808252601f908201527f5265656e7472616e637947756172643a207265656e7472616e742063616c6c00604082015260600190565b60208082526019908201527f4f6e6c792070617965652063616e207769746864726177616c00000000000000604082015260600190565b90815260200190565b9283526001600160a01b03918216602084015216604082015260600190565b9283526001600160a01b03919091166020830152604082015260600190565b60008219821115610d1b57610d1b610d76565b500190565b600082610d3b57634e487b7160e01b81526012600452602481fd5b500490565b6000816000190483118215151615610d5a57610d5a610d76565b500290565b600082821015610d7157610d71610d76565b500390565b634e487b7160e01b600052601160045260246000fd5b6001600160a01b03811681146105e157600080fdfea2646970667358221220fd757fd0c7a91ab459723e87ac7865e6a8ddaeb711e4fab2a73f1175220e169964736f6c63430008000033",
  "immutableReferences": {},
  "source": "// SPDX-License-Identifier: MEH\n\npragma solidity ^0.8.0;\n\nimport \"./interfaces/IUserDataPoolSeries.sol\";\nimport \"./interfaces/ISeriesDataType.sol\";\nimport \"./interfaces/IMintController.sol\";\nimport \"./oz/Ownable.sol\";\nimport \"./oz/Address.sol\";\nimport \"./oz/SafeMath.sol\";\nimport \"./oz/ReentrancyGuard.sol\";\n\ncontract PaymentController is Ownable, ReentrancyGuard {\n    using SafeMath for uint256;\n    using Address for address payable;\n\n    event DepositProcessed(uint256 _seriesId, address _to, uint256 _amount);\n    event Withdrawn(address indexed payee, uint256 weiAmount);\n\n    address dataPoolAddress;\n    address mintControllerAddress; \n    address treasuryAddress;\n\n    mapping(address => uint256) private _deposits;\n\n    constructor(address _dataPoolAddress, address _mintControllerAddress, address _treasuryAddress) {\n        dataPoolAddress = _dataPoolAddress;\n        mintControllerAddress = _mintControllerAddress;\n        treasuryAddress = _treasuryAddress;\n    }\n\n    function updateMintControllerAddress(address _mintControllerAddress) external onlyOwner() {\n        mintControllerAddress = _mintControllerAddress;\n    }\n\n    function updateTreasuryAddress(address _treasuryAddress) external onlyOwner() {\n        treasuryAddress = _treasuryAddress;\n    }\n\n    function updateDataPoolAddress(address _dataPoolAddress) external onlyOwner() {\n        dataPoolAddress = _dataPoolAddress;\n    }\n\n    function purchase(uint256 _seriesId) external payable nonReentrant() {\n        uint256 amount = msg.value;\n\n        uint256 priceInWei = IUserDataPoolSeries(\n            dataPoolAddress\n        ).getSeriesPriceInWei(_seriesId);\n\n        require(\n            amount >= priceInWei,\n            \"Invalid Price.\"\n        );\n\n        IMintController(\n            mintControllerAddress\n        ).mint(_seriesId, _msgSender(),_msgSender());\n        \n        splitPayment(_seriesId,amount);\n\n    }\n\n    function splitPayment(uint256 _seriesId, uint256 _value) internal {\n\n        uint platformPercent = IUserDataPoolSeries(\n            dataPoolAddress\n        ).getSeriesPlatformPercent(_seriesId);\n\n        uint256 remainingValue = _value;\n        uint256 platformAmount = remainingValue * platformPercent / 1000;\n        remainingValue = remainingValue.sub(platformAmount);\n        _deposits[treasuryAddress] = _deposits[treasuryAddress].add(platformAmount);\n        emit DepositProcessed(_seriesId,treasuryAddress,platformAmount);\n\n\n        address secondPayeeAddress;\n        uint secondPayeePercent;\n        (secondPayeeAddress,secondPayeePercent) = IUserDataPoolSeries(\n            dataPoolAddress\n        ).getSeriesSecondPayeeInformation(_seriesId);\n\n        if (secondPayeeAddress != address(0)) {\n            uint256 secondPayeeAmount = remainingValue * secondPayeePercent / 1000;\n            remainingValue = remainingValue.sub(secondPayeeAmount);\n            _deposits[secondPayeeAddress] = _deposits[secondPayeeAddress].add(secondPayeeAmount);\n            emit DepositProcessed(_seriesId,secondPayeeAddress,secondPayeeAmount);\n        }\n\n        address creatorAddress = IUserDataPoolSeries(\n            dataPoolAddress\n        ).getSeriesCreatorAddress(_seriesId);\n        _deposits[creatorAddress] = _deposits[creatorAddress].add(remainingValue);\n        emit DepositProcessed(_seriesId,creatorAddress,remainingValue);\n\n    }\n\n    function withdraw(address payable _payee) public virtual nonReentrant() {\n        \n        require(\n            _payee == _msgSender(),\n            \"Only payee can withdrawal\"\n        );\n\n        uint256 payment = _deposits[_payee];\n\n        _deposits[_payee] = 0;\n\n        _payee.sendValue(payment);\n        \n        emit Withdrawn(_payee, payment);\n    }\n\n    function depositsOf(address payee) public view returns (uint256) {\n        return _deposits[payee];\n    }\n}",
  "sourcePath": "/Users/jzito/dev/solidity/MintCaseManager/contracts/PaymentController.sol",
  "compiler": {
    "name": "solc",
    "version": "0.8.0+commit.c7dfd78e.Emscripten.clang"
  },
  "schemaVersion": "3.4.3",
  "updatedAt": "2021-10-11T03:09:32.587Z",
  "networkType": "ethereum",
  "devdoc": {
    "kind": "dev",
    "methods": {
      "owner()": {
        "details": "Returns the address of the current owner."
      },
      "renounceOwnership()": {
        "details": "Leaves the contract without owner. It will not be possible to call `onlyOwner` functions anymore. Can only be called by the current owner. NOTE: Renouncing ownership will leave the contract without an owner, thereby removing any functionality that is only available to the owner."
      },
      "transferOwnership(address)": {
        "details": "Transfers ownership of the contract to a new account (`newOwner`). Can only be called by the current owner."
      }
    },
    "version": 1
  },
  "userdoc": {
    "kind": "user",
    "methods": {},
    "version": 1
  }
}