{
  "contractName": "SeriesController",
  "abi": [
    {
      "inputs": [
        {
          "internalType": "address",
          "name": "_dataPoolAddress",
          "type": "address"
        }
      ],
      "stateMutability": "nonpayable",
      "type": "constructor"
    },
    {
      "anonymous": false,
      "inputs": [
        {
          "indexed": true,
          "internalType": "address",
          "name": "previousOwner",
          "type": "address"
        },
        {
          "indexed": true,
          "internalType": "address",
          "name": "newOwner",
          "type": "address"
        }
      ],
      "name": "OwnershipTransferred",
      "type": "event"
    },
    {
      "anonymous": false,
      "inputs": [
        {
          "indexed": false,
          "internalType": "uint256",
          "name": "_seriesId",
          "type": "uint256"
        }
      ],
      "name": "SeriesPriceUpdated",
      "type": "event"
    },
    {
      "anonymous": false,
      "inputs": [
        {
          "indexed": false,
          "internalType": "uint256",
          "name": "_seriesId",
          "type": "uint256"
        }
      ],
      "name": "SeriesUpdated",
      "type": "event"
    },
    {
      "inputs": [],
      "name": "owner",
      "outputs": [
        {
          "internalType": "address",
          "name": "",
          "type": "address"
        }
      ],
      "stateMutability": "view",
      "type": "function",
      "constant": true
    },
    {
      "inputs": [],
      "name": "renounceOwnership",
      "outputs": [],
      "stateMutability": "nonpayable",
      "type": "function"
    },
    {
      "inputs": [
        {
          "internalType": "address",
          "name": "newOwner",
          "type": "address"
        }
      ],
      "name": "transferOwnership",
      "outputs": [],
      "stateMutability": "nonpayable",
      "type": "function"
    },
    {
      "inputs": [
        {
          "internalType": "string",
          "name": "_name",
          "type": "string"
        },
        {
          "internalType": "string",
          "name": "_description",
          "type": "string"
        },
        {
          "internalType": "uint256",
          "name": "_maxSupply",
          "type": "uint256"
        },
        {
          "internalType": "uint256",
          "name": "_priceInWei",
          "type": "uint256"
        },
        {
          "internalType": "bool",
          "name": "_onePerWallet",
          "type": "bool"
        },
        {
          "internalType": "string",
          "name": "_scriptConfig",
          "type": "string"
        }
      ],
      "name": "addSeries",
      "outputs": [
        {
          "internalType": "uint256",
          "name": "",
          "type": "uint256"
        }
      ],
      "stateMutability": "nonpayable",
      "type": "function"
    },
    {
      "inputs": [
        {
          "internalType": "uint256",
          "name": "_seriesId",
          "type": "uint256"
        },
        {
          "internalType": "string",
          "name": "_name",
          "type": "string"
        },
        {
          "internalType": "string",
          "name": "_description",
          "type": "string"
        }
      ],
      "name": "updateSeriesNameAndDescription",
      "outputs": [],
      "stateMutability": "nonpayable",
      "type": "function"
    },
    {
      "inputs": [
        {
          "internalType": "uint256",
          "name": "_seriesId",
          "type": "uint256"
        },
        {
          "internalType": "address",
          "name": "_secondPayeeAddress",
          "type": "address"
        },
        {
          "internalType": "uint256",
          "name": "_secondPayeePercentage",
          "type": "uint256"
        }
      ],
      "name": "updateSeriesSecondPayee",
      "outputs": [],
      "stateMutability": "nonpayable",
      "type": "function"
    },
    {
      "inputs": [
        {
          "internalType": "uint256",
          "name": "_seriesId",
          "type": "uint256"
        }
      ],
      "name": "removeSeriesSecondPayee",
      "outputs": [],
      "stateMutability": "nonpayable",
      "type": "function"
    },
    {
      "inputs": [
        {
          "internalType": "uint256",
          "name": "_seriesId",
          "type": "uint256"
        },
        {
          "internalType": "address",
          "name": "_currencyContract",
          "type": "address"
        },
        {
          "internalType": "string",
          "name": "_currencySymbol",
          "type": "string"
        }
      ],
      "name": "updateSeriesCurrency",
      "outputs": [],
      "stateMutability": "nonpayable",
      "type": "function"
    },
    {
      "inputs": [
        {
          "internalType": "uint256",
          "name": "_seriesId",
          "type": "uint256"
        }
      ],
      "name": "removeSeriesCurrency",
      "outputs": [],
      "stateMutability": "nonpayable",
      "type": "function"
    },
    {
      "inputs": [
        {
          "internalType": "uint256",
          "name": "_seriesId",
          "type": "uint256"
        },
        {
          "internalType": "uint256",
          "name": "_maxSupply",
          "type": "uint256"
        }
      ],
      "name": "updateSeriesMaxSupply",
      "outputs": [],
      "stateMutability": "nonpayable",
      "type": "function"
    },
    {
      "inputs": [
        {
          "internalType": "uint256",
          "name": "_seriesId",
          "type": "uint256"
        },
        {
          "internalType": "uint256",
          "name": "_priceInWei",
          "type": "uint256"
        }
      ],
      "name": "updateSeriesPriceInWei",
      "outputs": [],
      "stateMutability": "nonpayable",
      "type": "function"
    },
    {
      "inputs": [
        {
          "internalType": "uint256",
          "name": "_seriesId",
          "type": "uint256"
        },
        {
          "internalType": "string",
          "name": "_scriptConfig",
          "type": "string"
        }
      ],
      "name": "updateSeriesScriptConfig",
      "outputs": [],
      "stateMutability": "nonpayable",
      "type": "function"
    },
    {
      "inputs": [
        {
          "internalType": "uint256",
          "name": "_seriesId",
          "type": "uint256"
        },
        {
          "internalType": "string",
          "name": "_script",
          "type": "string"
        }
      ],
      "name": "addScriptToSeries",
      "outputs": [],
      "stateMutability": "nonpayable",
      "type": "function"
    },
    {
      "inputs": [
        {
          "internalType": "uint256",
          "name": "_seriesId",
          "type": "uint256"
        }
      ],
      "name": "removeLastScriptFromSeries",
      "outputs": [],
      "stateMutability": "nonpayable",
      "type": "function"
    },
    {
      "inputs": [
        {
          "internalType": "uint256",
          "name": "_seriesId",
          "type": "uint256"
        },
        {
          "internalType": "enum ISeriesDataType.SeriesStatus",
          "name": "_status",
          "type": "uint8"
        }
      ],
      "name": "updateSeriesStatus",
      "outputs": [],
      "stateMutability": "nonpayable",
      "type": "function"
    },
    {
      "inputs": [
        {
          "internalType": "uint256",
          "name": "_seriesId",
          "type": "uint256"
        },
        {
          "internalType": "address",
          "name": "_by",
          "type": "address"
        }
      ],
      "name": "attemptToMint",
      "outputs": [
        {
          "internalType": "bool",
          "name": "",
          "type": "bool"
        },
        {
          "internalType": "uint256",
          "name": "",
          "type": "uint256"
        }
      ],
      "stateMutability": "nonpayable",
      "type": "function"
    }
  ],
  "bytecode": "0x60806040523480156200001157600080fd5b506040516200390c3803806200390c8339810160408190526200003491620000c2565b62000048620000426200006e565b62000072565b600180546001600160a01b0319166001600160a01b0392909216919091179055620000f2565b3390565b600080546001600160a01b038381166001600160a01b0319831681178455604051919092169283917f8be0079c531659141344cd1fd0a4f28419497f9722a3daafe3b4186f6b6457e09190a35050565b600060208284031215620000d4578081fd5b81516001600160a01b0381168114620000eb578182fd5b9392505050565b61380a80620001026000396000f3fe608060405234801561001057600080fd5b50600436106101005760003560e01c8063933f10ba11610097578063e0b117a611610066578063e0b117a6146101f8578063e53dca031461020b578063f2fde38b1461021e578063f94358521461023157610100565b8063933f10ba146101ac578063a4492d4a146101bf578063d67b3b27146101d2578063d8eb38dc146101e557610100565b80635f2c7bab116100d35780635f2c7bab14610153578063715018a61461017c5780637596500a146101845780638da5cb5b1461019757610100565b806302a46b33146101055780632316c93c1461011a578063588ac4891461012d5780635e31e4be14610140575b600080fd5b6101186101133660046132b2565b610252565b005b610118610128366004613157565b6105eb565b61011861013b36600461323b565b610675565b61011861014e366004613157565b610b95565b6101666101613660046130ac565b610f1f565b6040516101739190613640565b60405180910390f35b61011861117b565b610118610192366004613312565b6111c6565b61019f6115fc565b60405161017391906133a1565b6101186101ba3660046131b2565b61160b565b6101186101cd36600461326d565b611a64565b6101186101e0366004613312565b611d95565b6101186101f3366004613207565b6120c6565b61011861020636600461326d565b6123f9565b610118610219366004613157565b61272a565b61011861022c36600461306f565b612a59565b61024461023f366004613187565b612aca565b604051610173929190613458565b60015483906001600160a01b031663bf538e1d61026d612f7e565b60026040518363ffffffff1660e01b815260040161028c9291906133b5565b60206040518083038186803b1580156102a457600080fd5b505afa1580156102b8573d6000803e3d6000fd5b505050506040513d601f19601f820116820180604052508101906102dc9190613090565b8061036757506001546001600160a01b03166324d7806c6102fb612f7e565b6040518263ffffffff1660e01b815260040161031791906133a1565b60206040518083038186803b15801561032f57600080fd5b505afa158015610343573d6000803e3d6000fd5b505050506040513d601f19601f820116820180604052508101906103679190613090565b61038c5760405162461bcd60e51b8152600401610383906135a1565b60405180910390fd5b600154604051632296f00360e11b81526001600160a01b039091169063452de006906103be90849060049081016136b2565b60206040518083038186803b1580156103d657600080fd5b505afa1580156103ea573d6000803e3d6000fd5b505050506040513d601f19601f8201168201806040525081019061040e9190613090565b15801561049b5750600154604051632296f00360e11b81526001600160a01b039091169063452de006906104499084906005906004016136b2565b60206040518083038186803b15801561046157600080fd5b505afa158015610475573d6000803e3d6000fd5b505050506040513d601f19601f820116820180604052508101906104999190613090565b155b6104b75760405162461bcd60e51b815260040161038390613544565b6001546001600160a01b031663844868cb826104d1612f7e565b6040518363ffffffff1660e01b81526004016104ee929190613649565b60206040518083038186803b15801561050657600080fd5b505afa15801561051a573d6000803e3d6000fd5b505050506040513d601f19601f8201168201806040525081019061053e9190613090565b61055a5760405162461bcd60e51b8152600401610383906135ee565b6001546040516302a46b3360e01b81526001600160a01b03909116906302a46b339061058e908790879087906004016136ea565b600060405180830381600087803b1580156105a857600080fd5b505af11580156105bc573d6000803e3d6000fd5b505050506000805160206137b5833981519152846040516105dd9190613640565b60405180910390a150505050565b6001546040516308c5b24f60e21b81526001600160a01b0390911690632316c93c9061061b908490600401613640565b600060405180830381600087803b15801561063557600080fd5b505af1158015610649573d6000803e3d6000fd5b505050506000805160206137b58339815191528160405161066a9190613640565b60405180910390a150565b60015482906001600160a01b031663bf538e1d610690612f7e565b60026040518363ffffffff1660e01b81526004016106af9291906133b5565b60206040518083038186803b1580156106c757600080fd5b505afa1580156106db573d6000803e3d6000fd5b505050506040513d601f19601f820116820180604052508101906106ff9190613090565b8061078a57506001546001600160a01b03166324d7806c61071e612f7e565b6040518263ffffffff1660e01b815260040161073a91906133a1565b60206040518083038186803b15801561075257600080fd5b505afa158015610766573d6000803e3d6000fd5b505050506040513d601f19601f8201168201806040525081019061078a9190613090565b6107a65760405162461bcd60e51b8152600401610383906135a1565b600154604051632296f00360e11b81526001600160a01b039091169063452de006906107d890849060049081016136b2565b60206040518083038186803b1580156107f057600080fd5b505afa158015610804573d6000803e3d6000fd5b505050506040513d601f19601f820116820180604052508101906108289190613090565b1580156108b55750600154604051632296f00360e11b81526001600160a01b039091169063452de006906108639084906005906004016136b2565b60206040518083038186803b15801561087b57600080fd5b505afa15801561088f573d6000803e3d6000fd5b505050506040513d601f19601f820116820180604052508101906108b39190613090565b155b6108d15760405162461bcd60e51b815260040161038390613544565b6001546001600160a01b031663844868cb826108eb612f7e565b6040518363ffffffff1660e01b8152600401610908929190613649565b60206040518083038186803b15801561092057600080fd5b505afa158015610934573d6000803e3d6000fd5b505050506040513d601f19601f820116820180604052508101906109589190613090565b6109745760405162461bcd60e51b8152600401610383906135ee565b600154604051632296f00360e11b81526001600160a01b039091169063452de006906109a690869086906004016136b2565b60206040518083038186803b1580156109be57600080fd5b505afa1580156109d2573d6000803e3d6000fd5b505050506040513d601f19601f820116820180604052508101906109f69190613090565b15610a135760405162461bcd60e51b8152600401610383906134fa565b600154604051632296f00360e11b81526001600160a01b039091169063452de00690610a469086906000906004016136b2565b60206040518083038186803b158015610a5e57600080fd5b505afa158015610a72573d6000803e3d6000fd5b505050506040513d601f19601f82011682018060405250810190610a969190613090565b158015610aeb57506002826005811115610ac057634e487b7160e01b600052602160045260246000fd5b1480610aeb57506003826005811115610ae957634e487b7160e01b600052602160045260246000fd5b145b610b075760405162461bcd60e51b815260040161038390613468565b60015460405163588ac48960e01b81526001600160a01b039091169063588ac48990610b3990869086906004016136b2565b600060405180830381600087803b158015610b5357600080fd5b505af1158015610b67573d6000803e3d6000fd5b505050506000805160206137b583398151915283604051610b889190613640565b60405180910390a1505050565b60015481906001600160a01b031663bf538e1d610bb0612f7e565b60026040518363ffffffff1660e01b8152600401610bcf9291906133b5565b60206040518083038186803b158015610be757600080fd5b505afa158015610bfb573d6000803e3d6000fd5b505050506040513d601f19601f82011682018060405250810190610c1f9190613090565b80610caa57506001546001600160a01b03166324d7806c610c3e612f7e565b6040518263ffffffff1660e01b8152600401610c5a91906133a1565b60206040518083038186803b158015610c7257600080fd5b505afa158015610c86573d6000803e3d6000fd5b505050506040513d601f19601f82011682018060405250810190610caa9190613090565b610cc65760405162461bcd60e51b8152600401610383906135a1565b600154604051632296f00360e11b81526001600160a01b039091169063452de00690610cf890849060049081016136b2565b60206040518083038186803b158015610d1057600080fd5b505afa158015610d24573d6000803e3d6000fd5b505050506040513d601f19601f82011682018060405250810190610d489190613090565b158015610dd55750600154604051632296f00360e11b81526001600160a01b039091169063452de00690610d839084906005906004016136b2565b60206040518083038186803b158015610d9b57600080fd5b505afa158015610daf573d6000803e3d6000fd5b505050506040513d601f19601f82011682018060405250810190610dd39190613090565b155b610df15760405162461bcd60e51b815260040161038390613544565b6001546001600160a01b031663844868cb82610e0b612f7e565b6040518363ffffffff1660e01b8152600401610e28929190613649565b60206040518083038186803b158015610e4057600080fd5b505afa158015610e54573d6000803e3d6000fd5b505050506040513d601f19601f82011682018060405250810190610e789190613090565b610e945760405162461bcd60e51b8152600401610383906135ee565b600154604051632f18f25f60e11b81526001600160a01b0390911690635e31e4be90610ec4908590600401613640565b600060405180830381600087803b158015610ede57600080fd5b505af1158015610ef2573d6000803e3d6000fd5b505050506000805160206137b583398151915282604051610f139190613640565b60405180910390a15050565b6001546000906001600160a01b031663bf538e1d610f3b612f7e565b60026040518363ffffffff1660e01b8152600401610f5a9291906133b5565b60206040518083038186803b158015610f7257600080fd5b505afa158015610f86573d6000803e3d6000fd5b505050506040513d601f19601f82011682018060405250810190610faa9190613090565b8061103557506001546001600160a01b03166324d7806c610fc9612f7e565b6040518263ffffffff1660e01b8152600401610fe591906133a1565b60206040518083038186803b158015610ffd57600080fd5b505afa158015611011573d6000803e3d6000fd5b505050506040513d601f19601f820116820180604052508101906110359190613090565b6110515760405162461bcd60e51b8152600401610383906135a1565b6001546000906001600160a01b0316635d06754061106d612f7e565b6001548b908b906001600160a01b03166374ab553461108a612f7e565b6040518263ffffffff1660e01b81526004016110a691906133a1565b60206040518083038186803b1580156110be57600080fd5b505afa1580156110d2573d6000803e3d6000fd5b505050506040513d601f19601f820116820180604052508101906110f6919061316f565b8b8b8b8b6040518963ffffffff1660e01b815260040161111d9897969594939291906133e2565b602060405180830381600087803b15801561113757600080fd5b505af115801561114b573d6000803e3d6000fd5b505050506040513d601f19601f8201168201806040525081019061116f919061316f565b98975050505050505050565b611183612f7e565b6001600160a01b03166111946115fc565b6001600160a01b0316146111ba5760405162461bcd60e51b81526004016103839061356c565b6111c46000612f82565b565b60015482906001600160a01b031663bf538e1d6111e1612f7e565b60026040518363ffffffff1660e01b81526004016112009291906133b5565b60206040518083038186803b15801561121857600080fd5b505afa15801561122c573d6000803e3d6000fd5b505050506040513d601f19601f820116820180604052508101906112509190613090565b806112db57506001546001600160a01b03166324d7806c61126f612f7e565b6040518263ffffffff1660e01b815260040161128b91906133a1565b60206040518083038186803b1580156112a357600080fd5b505afa1580156112b7573d6000803e3d6000fd5b505050506040513d601f19601f820116820180604052508101906112db9190613090565b6112f75760405162461bcd60e51b8152600401610383906135a1565b600154604051632296f00360e11b81526001600160a01b039091169063452de0069061132990849060049081016136b2565b60206040518083038186803b15801561134157600080fd5b505afa158015611355573d6000803e3d6000fd5b505050506040513d601f19601f820116820180604052508101906113799190613090565b1580156114065750600154604051632296f00360e11b81526001600160a01b039091169063452de006906113b49084906005906004016136b2565b60206040518083038186803b1580156113cc57600080fd5b505afa1580156113e0573d6000803e3d6000fd5b505050506040513d601f19601f820116820180604052508101906114049190613090565b155b6114225760405162461bcd60e51b815260040161038390613544565b6001546001600160a01b031663844868cb8261143c612f7e565b6040518363ffffffff1660e01b8152600401611459929190613649565b60206040518083038186803b15801561147157600080fd5b505afa158015611485573d6000803e3d6000fd5b505050506040513d601f19601f820116820180604052508101906114a99190613090565b6114c55760405162461bcd60e51b8152600401610383906135ee565b60015460405163071bd9c360e51b815260009182916001600160a01b039091169063e37b3860906114fa908890600401613640565b604080518083038186803b15801561151157600080fd5b505afa158015611525573d6000803e3d6000fd5b505050506040513d601f19601f820116820180604052508101906115499190613333565b9092509050811561156c5760405162461bcd60e51b815260040161038390613614565b600154604051633acb280560e11b81526001600160a01b0390911690637596500a9061159e908890889060040161371f565b600060405180830381600087803b1580156115b857600080fd5b505af11580156115cc573d6000803e3d6000fd5b505050506000805160206137b5833981519152856040516115ed9190613640565b60405180910390a15050505050565b6000546001600160a01b031690565b60015483906001600160a01b031663bf538e1d611626612f7e565b60026040518363ffffffff1660e01b81526004016116459291906133b5565b60206040518083038186803b15801561165d57600080fd5b505afa158015611671573d6000803e3d6000fd5b505050506040513d601f19601f820116820180604052508101906116959190613090565b8061172057506001546001600160a01b03166324d7806c6116b4612f7e565b6040518263ffffffff1660e01b81526004016116d091906133a1565b60206040518083038186803b1580156116e857600080fd5b505afa1580156116fc573d6000803e3d6000fd5b505050506040513d601f19601f820116820180604052508101906117209190613090565b61173c5760405162461bcd60e51b8152600401610383906135a1565b600154604051632296f00360e11b81526001600160a01b039091169063452de0069061176e90849060049081016136b2565b60206040518083038186803b15801561178657600080fd5b505afa15801561179a573d6000803e3d6000fd5b505050506040513d601f19601f820116820180604052508101906117be9190613090565b15801561184b5750600154604051632296f00360e11b81526001600160a01b039091169063452de006906117f99084906005906004016136b2565b60206040518083038186803b15801561181157600080fd5b505afa158015611825573d6000803e3d6000fd5b505050506040513d601f19601f820116820180604052508101906118499190613090565b155b6118675760405162461bcd60e51b815260040161038390613544565b6001546001600160a01b031663844868cb82611881612f7e565b6040518363ffffffff1660e01b815260040161189e929190613649565b60206040518083038186803b1580156118b657600080fd5b505afa1580156118ca573d6000803e3d6000fd5b505050506040513d601f19601f820116820180604052508101906118ee9190613090565b61190a5760405162461bcd60e51b8152600401610383906135ee565b60018054604051632296f00360e11b81526001600160a01b039091169163452de0069161193b9188916004016136b2565b60206040518083038186803b15801561195357600080fd5b505afa158015611967573d6000803e3d6000fd5b505050506040513d601f19601f8201168201806040525081019061198b9190613090565b80611a145750600154604051632296f00360e11b81526001600160a01b039091169063452de006906119c49087906003906004016136b2565b60206040518083038186803b1580156119dc57600080fd5b505afa1580156119f0573d6000803e3d6000fd5b505050506040513d601f19601f82011682018060405250810190611a149190613090565b611a305760405162461bcd60e51b815260040161038390613614565b60015460405163499f885d60e11b81526001600160a01b039091169063933f10ba9061058e90879087908790600401613660565b60015482906001600160a01b031663bf538e1d611a7f612f7e565b60026040518363ffffffff1660e01b8152600401611a9e9291906133b5565b60206040518083038186803b158015611ab657600080fd5b505afa158015611aca573d6000803e3d6000fd5b505050506040513d601f19601f82011682018060405250810190611aee9190613090565b80611b7957506001546001600160a01b03166324d7806c611b0d612f7e565b6040518263ffffffff1660e01b8152600401611b2991906133a1565b60206040518083038186803b158015611b4157600080fd5b505afa158015611b55573d6000803e3d6000fd5b505050506040513d601f19601f82011682018060405250810190611b799190613090565b611b955760405162461bcd60e51b8152600401610383906135a1565b600154604051632296f00360e11b81526001600160a01b039091169063452de00690611bc790849060049081016136b2565b60206040518083038186803b158015611bdf57600080fd5b505afa158015611bf3573d6000803e3d6000fd5b505050506040513d601f19601f82011682018060405250810190611c179190613090565b158015611ca45750600154604051632296f00360e11b81526001600160a01b039091169063452de00690611c529084906005906004016136b2565b60206040518083038186803b158015611c6a57600080fd5b505afa158015611c7e573d6000803e3d6000fd5b505050506040513d601f19601f82011682018060405250810190611ca29190613090565b155b611cc05760405162461bcd60e51b815260040161038390613544565b6001546001600160a01b031663844868cb82611cda612f7e565b6040518363ffffffff1660e01b8152600401611cf7929190613649565b60206040518083038186803b158015611d0f57600080fd5b505afa158015611d23573d6000803e3d6000fd5b505050506040513d601f19601f82011682018060405250810190611d479190613090565b611d635760405162461bcd60e51b8152600401610383906135ee565b60015460405163522496a560e11b81526001600160a01b039091169063a4492d4a90610b3990869086906004016136c9565b60015482906001600160a01b031663bf538e1d611db0612f7e565b60026040518363ffffffff1660e01b8152600401611dcf9291906133b5565b60206040518083038186803b158015611de757600080fd5b505afa158015611dfb573d6000803e3d6000fd5b505050506040513d601f19601f82011682018060405250810190611e1f9190613090565b80611eaa57506001546001600160a01b03166324d7806c611e3e612f7e565b6040518263ffffffff1660e01b8152600401611e5a91906133a1565b60206040518083038186803b158015611e7257600080fd5b505afa158015611e86573d6000803e3d6000fd5b505050506040513d601f19601f82011682018060405250810190611eaa9190613090565b611ec65760405162461bcd60e51b8152600401610383906135a1565b600154604051632296f00360e11b81526001600160a01b039091169063452de00690611ef890849060049081016136b2565b60206040518083038186803b158015611f1057600080fd5b505afa158015611f24573d6000803e3d6000fd5b505050506040513d601f19601f82011682018060405250810190611f489190613090565b158015611fd55750600154604051632296f00360e11b81526001600160a01b039091169063452de00690611f839084906005906004016136b2565b60206040518083038186803b158015611f9b57600080fd5b505afa158015611faf573d6000803e3d6000fd5b505050506040513d601f19601f82011682018060405250810190611fd39190613090565b155b611ff15760405162461bcd60e51b815260040161038390613544565b6001546001600160a01b031663844868cb8261200b612f7e565b6040518363ffffffff1660e01b8152600401612028929190613649565b60206040518083038186803b15801561204057600080fd5b505afa158015612054573d6000803e3d6000fd5b505050506040513d601f19601f820116820180604052508101906120789190613090565b6120945760405162461bcd60e51b8152600401610383906135ee565b60015460405163d67b3b2760e01b81526001600160a01b039091169063d67b3b2790610b39908690869060040161371f565b60015483906001600160a01b031663bf538e1d6120e1612f7e565b60026040518363ffffffff1660e01b81526004016121009291906133b5565b60206040518083038186803b15801561211857600080fd5b505afa15801561212c573d6000803e3d6000fd5b505050506040513d601f19601f820116820180604052508101906121509190613090565b806121db57506001546001600160a01b03166324d7806c61216f612f7e565b6040518263ffffffff1660e01b815260040161218b91906133a1565b60206040518083038186803b1580156121a357600080fd5b505afa1580156121b7573d6000803e3d6000fd5b505050506040513d601f19601f820116820180604052508101906121db9190613090565b6121f75760405162461bcd60e51b8152600401610383906135a1565b600154604051632296f00360e11b81526001600160a01b039091169063452de0069061222990849060049081016136b2565b60206040518083038186803b15801561224157600080fd5b505afa158015612255573d6000803e3d6000fd5b505050506040513d601f19601f820116820180604052508101906122799190613090565b1580156123065750600154604051632296f00360e11b81526001600160a01b039091169063452de006906122b49084906005906004016136b2565b60206040518083038186803b1580156122cc57600080fd5b505afa1580156122e0573d6000803e3d6000fd5b505050506040513d601f19601f820116820180604052508101906123049190613090565b155b6123225760405162461bcd60e51b815260040161038390613544565b6001546001600160a01b031663844868cb8261233c612f7e565b6040518363ffffffff1660e01b8152600401612359929190613649565b60206040518083038186803b15801561237157600080fd5b505afa158015612385573d6000803e3d6000fd5b505050506040513d601f19601f820116820180604052508101906123a99190613090565b6123c55760405162461bcd60e51b8152600401610383906135ee565b60015460405163363ace3760e21b81526001600160a01b039091169063d8eb38dc9061058e90879087908790600401613693565b60015482906001600160a01b031663bf538e1d612414612f7e565b60026040518363ffffffff1660e01b81526004016124339291906133b5565b60206040518083038186803b15801561244b57600080fd5b505afa15801561245f573d6000803e3d6000fd5b505050506040513d601f19601f820116820180604052508101906124839190613090565b8061250e57506001546001600160a01b03166324d7806c6124a2612f7e565b6040518263ffffffff1660e01b81526004016124be91906133a1565b60206040518083038186803b1580156124d657600080fd5b505afa1580156124ea573d6000803e3d6000fd5b505050506040513d601f19601f8201168201806040525081019061250e9190613090565b61252a5760405162461bcd60e51b8152600401610383906135a1565b600154604051632296f00360e11b81526001600160a01b039091169063452de0069061255c90849060049081016136b2565b60206040518083038186803b15801561257457600080fd5b505afa158015612588573d6000803e3d6000fd5b505050506040513d601f19601f820116820180604052508101906125ac9190613090565b1580156126395750600154604051632296f00360e11b81526001600160a01b039091169063452de006906125e79084906005906004016136b2565b60206040518083038186803b1580156125ff57600080fd5b505afa158015612613573d6000803e3d6000fd5b505050506040513d601f19601f820116820180604052508101906126379190613090565b155b6126555760405162461bcd60e51b815260040161038390613544565b6001546001600160a01b031663844868cb8261266f612f7e565b6040518363ffffffff1660e01b815260040161268c929190613649565b60206040518083038186803b1580156126a457600080fd5b505afa1580156126b8573d6000803e3d6000fd5b505050506040513d601f19601f820116820180604052508101906126dc9190613090565b6126f85760405162461bcd60e51b8152600401610383906135ee565b6001546040516370588bd360e11b81526001600160a01b039091169063e0b117a690610b3990869086906004016136c9565b60015481906001600160a01b031663bf538e1d612745612f7e565b60026040518363ffffffff1660e01b81526004016127649291906133b5565b60206040518083038186803b15801561277c57600080fd5b505afa158015612790573d6000803e3d6000fd5b505050506040513d601f19601f820116820180604052508101906127b49190613090565b8061283f57506001546001600160a01b03166324d7806c6127d3612f7e565b6040518263ffffffff1660e01b81526004016127ef91906133a1565b60206040518083038186803b15801561280757600080fd5b505afa15801561281b573d6000803e3d6000fd5b505050506040513d601f19601f8201168201806040525081019061283f9190613090565b61285b5760405162461bcd60e51b8152600401610383906135a1565b600154604051632296f00360e11b81526001600160a01b039091169063452de0069061288d90849060049081016136b2565b60206040518083038186803b1580156128a557600080fd5b505afa1580156128b9573d6000803e3d6000fd5b505050506040513d601f19601f820116820180604052508101906128dd9190613090565b15801561296a5750600154604051632296f00360e11b81526001600160a01b039091169063452de006906129189084906005906004016136b2565b60206040518083038186803b15801561293057600080fd5b505afa158015612944573d6000803e3d6000fd5b505050506040513d601f19601f820116820180604052508101906129689190613090565b155b6129865760405162461bcd60e51b815260040161038390613544565b6001546001600160a01b031663844868cb826129a0612f7e565b6040518363ffffffff1660e01b81526004016129bd929190613649565b60206040518083038186803b1580156129d557600080fd5b505afa1580156129e9573d6000803e3d6000fd5b505050506040513d601f19601f82011682018060405250810190612a0d9190613090565b612a295760405162461bcd60e51b8152600401610383906135ee565b60015460405163e53dca0360e01b81526001600160a01b039091169063e53dca0390610ec4908590600401613640565b612a61612f7e565b6001600160a01b0316612a726115fc565b6001600160a01b031614612a985760405162461bcd60e51b81526004016103839061356c565b6001600160a01b038116612abe5760405162461bcd60e51b8152600401610383906134b4565b612ac781612f82565b50565b60015460009081906001600160a01b03166329710388612ae8612f7e565b6040518263ffffffff1660e01b8152600401612b0491906133a1565b60206040518083038186803b158015612b1c57600080fd5b505afa158015612b30573d6000803e3d6000fd5b505050506040513d601f19601f82011682018060405250810190612b549190613090565b612b705760405162461bcd60e51b815260040161038390613490565b60018054604051632296f00360e11b81526001600160a01b039091169163452de00691612ba19188916004016136b2565b60206040518083038186803b158015612bb957600080fd5b505afa158015612bcd573d6000803e3d6000fd5b505050506040513d601f19601f82011682018060405250810190612bf19190613090565b80612c7a5750600154604051632296f00360e11b81526001600160a01b039091169063452de00690612c2a9087906002906004016136b2565b60206040518083038186803b158015612c4257600080fd5b505afa158015612c56573d6000803e3d6000fd5b505050506040513d601f19601f82011682018060405250810190612c7a9190613090565b80612d035750600154604051632296f00360e11b81526001600160a01b039091169063452de00690612cb39087906003906004016136b2565b60206040518083038186803b158015612ccb57600080fd5b505afa158015612cdf573d6000803e3d6000fd5b505050506040513d601f19601f82011682018060405250810190612d039190613090565b612d1f5760405162461bcd60e51b815260040161038390613544565b600154604051632296f00360e11b81526001600160a01b039091169063452de00690612d529087906002906004016136b2565b60206040518083038186803b158015612d6a57600080fd5b505afa158015612d7e573d6000803e3d6000fd5b505050506040513d601f19601f82011682018060405250810190612da29190613090565b80612e2a575060015460405163844868cb60e01b81526001600160a01b039091169063844868cb90612dda9087908790600401613649565b60206040518083038186803b158015612df257600080fd5b505afa158015612e06573d6000803e3d6000fd5b505050506040513d601f19601f82011682018060405250810190612e2a9190613090565b612e465760405162461bcd60e51b815260040161038390613523565b60015460405163071bd9c360e51b815260009182916001600160a01b039091169063e37b386090612e7b908990600401613640565b604080518083038186803b158015612e9257600080fd5b505afa158015612ea6573d6000803e3d6000fd5b505050506040513d601f19601f82011682018060405250810190612eca9190613333565b9092509050808210612eee5760405162461bcd60e51b8152600401610383906135c5565b600154604051600162bf872d60e01b031981526001600160a01b039091169063ff4078d390612f21908990600401613640565b600060405180830381600087803b158015612f3b57600080fd5b505af1158015612f4f573d6000803e3d6000fd5b50505050600082620f424088612f659190613745565b612f6f919061372d565b60019890975095505050505050565b3390565b600080546001600160a01b038381166001600160a01b0319831681178455604051919092169283917f8be0079c531659141344cd1fd0a4f28419497f9722a3daafe3b4186f6b6457e09190a35050565b80356001600160a01b0381168114612fe957600080fd5b919050565b600082601f830112612ffe578081fd5b813567ffffffffffffffff8082111561301957613019613790565b604051601f8301601f19168101602001828111828210171561303d5761303d613790565b604052828152848301602001861015613054578384fd5b82602086016020830137918201602001929092529392505050565b600060208284031215613080578081fd5b61308982612fd2565b9392505050565b6000602082840312156130a1578081fd5b8151613089816137a6565b60008060008060008060c087890312156130c4578182fd5b863567ffffffffffffffff808211156130db578384fd5b6130e78a838b01612fee565b975060208901359150808211156130fc578384fd5b6131088a838b01612fee565b9650604089013595506060890135945060808901359150613128826137a6565b90925060a0880135908082111561313d578283fd5b5061314a89828a01612fee565b9150509295509295509295565b600060208284031215613168578081fd5b5035919050565b600060208284031215613180578081fd5b5051919050565b60008060408385031215613199578182fd5b823591506131a960208401612fd2565b90509250929050565b6000806000606084860312156131c6578283fd5b833592506131d660208501612fd2565b9150604084013567ffffffffffffffff8111156131f1578182fd5b6131fd86828701612fee565b9150509250925092565b60008060006060848603121561321b578283fd5b8335925061322b60208501612fd2565b9150604084013590509250925092565b6000806040838503121561324d578182fd5b82359150602083013560068110613262578182fd5b809150509250929050565b6000806040838503121561327f578182fd5b82359150602083013567ffffffffffffffff81111561329c578182fd5b6132a885828601612fee565b9150509250929050565b6000806000606084860312156132c6578283fd5b83359250602084013567ffffffffffffffff808211156132e4578384fd5b6132f087838801612fee565b93506040860135915080821115613305578283fd5b506131fd86828701612fee565b60008060408385031215613324578182fd5b50508035926020909101359150565b60008060408385031215613345578182fd5b505080516020909101519092909150565b60008151808452815b8181101561337b5760208185018101518683018201520161335f565b8181111561338c5782602083870101525b50601f01601f19169290920160200192915050565b6001600160a01b0391909116815260200190565b6001600160a01b038316815260408101600583106133d5576133d561377a565b8260208301529392505050565b6001600160a01b0389168152610100602082018190526000906134078382018b613356565b9050828103604084015261341b818a613356565b90508760608401528660808401528560a084015284151560c084015282810360e08401526134498185613356565b9b9a5050505050505050505050565b9115158252602082015260400190565b6020808252600e908201526d21b0b73737ba1031b430b733b29760911b604082015260600190565b6020808252600a908201526927379020b1b1b2b9b99760b11b604082015260600190565b60208082526026908201527f4f776e61626c653a206e6577206f776e657220697320746865207a65726f206160408201526564647265737360d01b606082015260800190565b6020808252600f908201526e2234b2103737ba1031b430b733b29760891b604082015260600190565b6020808252600790820152662232b734b2b21760c91b604082015260600190565b6020808252600e908201526d29b2b934b2b99031b637b9b2b21760911b604082015260600190565b6020808252818101527f4f776e61626c653a2063616c6c6572206973206e6f7420746865206f776e6572604082015260600190565b6020808252600a908201526927379030b1b1b2b9b99760b11b604082015260600190565b6020808252600f908201526e29bab838363c903932b0b1b432b21760891b604082015260600190565b6020808252600c908201526b2737ba1031b932b0ba37b91760a11b604082015260600190565b60208082526012908201527121b0b73737ba1031b430b733b2903737bb9760711b604082015260600190565b90815260200190565b9182526001600160a01b0316602082015260400190565b8381526001600160a01b038316602082015260606040820181905260009061368a90830184613356565b95945050505050565b9283526001600160a01b03919091166020830152604082015260600190565b82815260408101600683106133d5576133d561377a565b6000838252604060208301526136e26040830184613356565b949350505050565b6000848252606060208301526137036060830185613356565b82810360408401526137158185613356565b9695505050505050565b918252602082015260400190565b6000821982111561374057613740613764565b500190565b600081600019048311821515161561375f5761375f613764565b500290565b634e487b7160e01b600052601160045260246000fd5b634e487b7160e01b600052602160045260246000fd5b634e487b7160e01b600052604160045260246000fd5b8015158114612ac757600080fdfea7a8846ec5f767e9af26f5b715c7968b0a1e927db3ee708b284cad2eea6e36bda2646970667358221220080e1ec7e94a93e663330cbdac12c83ab4258339db994b80d569e128bdeef1a464736f6c63430008000033",
  "immutableReferences": {},
  "source": "// SPDX-License-Identifier: MEH\n\npragma solidity ^0.8.0;\n\nimport \"./interfaces/IUserDataPoolSeries.sol\";\nimport \"./interfaces/ICreatorDataType.sol\";\nimport \"./interfaces/ISeriesDataType.sol\";\nimport \"./interfaces/ISeriesController.sol\";\nimport \"./oz/Ownable.sol\";\nimport \"./oz/SafeMath.sol\";\n\ncontract SeriesController is Ownable, ISeriesController, ICreatorDataType, ISeriesDataType {\n    using SafeMath for uint256;\n\n    event SeriesUpdated(uint256 _seriesId);\n    event SeriesPriceUpdated(uint256 _seriesId);\n\n    uint256 constant ONE_MILLION = 1_000_000;\n\n    address dataPoolAddress;\n\n\n    modifier onlyActiveCreatorOrAdmin() {\n\n        require(\n            IUserDataPoolSeries(\n                dataPoolAddress\n            ).isCreatorStatus(_msgSender(), CreatorStatus.Active) || \n            IUserDataPoolSeries(\n                dataPoolAddress\n            ).isAdmin(_msgSender()),\n            \"No access.\"\n        );\n        _;\n    }\n\n    modifier onlyOpenSeries(uint256 _seriesId) {\n        require(\n            !IUserDataPoolSeries(\n                dataPoolAddress\n            ).isSeriesStatus(_seriesId,SeriesStatus.Locked) &&\n            !IUserDataPoolSeries(\n                dataPoolAddress\n            ).isSeriesStatus(_seriesId,SeriesStatus.Delisted),\n            \"Series closed.\"\n        );\n        _;\n    }\n\n    modifier onlyOpenSeriesCreator(uint256 _seriesId) {\n        \n        require(\n            IUserDataPoolSeries(\n                dataPoolAddress\n            ).isCreatorStatus(_msgSender(), CreatorStatus.Active) || \n            IUserDataPoolSeries(\n                dataPoolAddress\n            ).isAdmin(_msgSender()),\n            \"No access.\"\n        );\n    \n        require(\n            !IUserDataPoolSeries(\n                dataPoolAddress\n            ).isSeriesStatus(_seriesId,SeriesStatus.Locked) &&\n            !IUserDataPoolSeries(\n                dataPoolAddress\n            ).isSeriesStatus(_seriesId,SeriesStatus.Delisted),\n            \"Series closed.\"\n        );\n        \n        require(\n            IUserDataPoolSeries(\n                dataPoolAddress\n            ).isSeriesCreator(_seriesId,_msgSender()),\n            \"Not creator.\"\n        );\n\n        _;\n    }\n\n    constructor(address _dataPoolAddress) {\n        dataPoolAddress = _dataPoolAddress;\n    }\n\n    function addSeries(\n        string memory _name, \n        string memory _description, \n        uint256 _maxSupply,\n        uint256 _priceInWei,\n        bool _onePerWallet,\n        string memory _scriptConfig\n    ) external onlyActiveCreatorOrAdmin() returns (uint256) {\n\n        uint256 seriesId = IUserDataPoolSeries(\n            dataPoolAddress\n        ).addSeries(\n            _msgSender(),\n            _name,\n            _description,\n            IUserDataPoolSeries(\n                dataPoolAddress\n            ).getCreatorPlatformPercent(\n                _msgSender()\n            ),\n            _maxSupply,\n            _priceInWei,\n            _onePerWallet,\n            _scriptConfig\n        );\n\n        return seriesId;\n    }\n\n    function updateSeriesNameAndDescription(\n        uint256 _seriesId,\n        string memory _name,\n        string memory _description\n    ) external onlyOpenSeriesCreator(_seriesId) {\n        IUserDataPoolSeries(\n            dataPoolAddress\n        ).updateSeriesNameAndDescription(_seriesId,_name,_description);\n\n        emit SeriesUpdated(_seriesId);\n    }\n\n    function updateSeriesSecondPayee(\n        uint256 _seriesId,\n        address _secondPayeeAddress,\n        uint _secondPayeePercentage\n    ) external onlyOpenSeriesCreator(_seriesId) {\n\n        IUserDataPoolSeries(\n            dataPoolAddress\n        ).updateSeriesSecondPayee(\n            _seriesId,\n            _secondPayeeAddress,\n            _secondPayeePercentage\n        );\n\n        emit SeriesUpdated(_seriesId);\n    }\n\n    function removeSeriesSecondPayee(\n        uint256 _seriesId\n    ) external onlyOpenSeriesCreator(_seriesId) {\n\n        IUserDataPoolSeries(\n            dataPoolAddress\n        ).removeSeriesSecondPayee(_seriesId);\n\n         emit SeriesUpdated(_seriesId);\n    }\n\n    function updateSeriesCurrency(\n        uint256 _seriesId,\n        address _currencyContract,\n        string memory _currencySymbol\n    ) external onlyOpenSeriesCreator(_seriesId) {\n\n        require(\n            IUserDataPoolSeries(\n            dataPoolAddress\n            ).isSeriesStatus(_seriesId,SeriesStatus.Ready) ||\n            IUserDataPoolSeries(\n            dataPoolAddress\n            ).isSeriesStatus(_seriesId,SeriesStatus.Paused),\n            \"Cannot change now.\"\n        );\n\n        IUserDataPoolSeries(\n            dataPoolAddress\n        ).updateSeriesCurrency(\n            _seriesId,\n            _currencyContract,\n            _currencySymbol\n        );\n\n         emit SeriesUpdated(_seriesId);\n    }\n\n    function removeSeriesCurrency(\n        uint256 _seriesId\n    ) external {\n\n        IUserDataPoolSeries(\n            dataPoolAddress\n        ).removeSeriesCurrency(\n            _seriesId\n        );\n\n        emit SeriesUpdated(_seriesId);\n    }\n\n    function updateSeriesMaxSupply(\n        uint256 _seriesId,\n        uint256 _maxSupply\n    ) external onlyOpenSeriesCreator(_seriesId) {\n        uint256 totalMinted;\n        uint256 maxSupply;\n\n        (totalMinted,maxSupply) = IUserDataPoolSeries(\n            dataPoolAddress\n        ).getSeriesMintInformation(_seriesId);\n\n        require(totalMinted == 0,\"Cannot change now.\");\n\n        IUserDataPoolSeries(\n            dataPoolAddress\n        ).updateSeriesMaxSupply(_seriesId,_maxSupply);\n\n        emit SeriesUpdated(_seriesId);\n    }\n\n    function updateSeriesPriceInWei(\n        uint256 _seriesId,\n        uint256 _priceInWei\n    ) external onlyOpenSeriesCreator(_seriesId) {\n\n        IUserDataPoolSeries(\n            dataPoolAddress\n        ).updateSeriesPriceInWei(_seriesId,_priceInWei);\n\n        emit SeriesUpdated(_seriesId);\n    }\n\n    function updateSeriesScriptConfig(\n        uint256 _seriesId,\n        string memory _scriptConfig\n    ) external onlyOpenSeriesCreator(_seriesId) {\n\n        IUserDataPoolSeries(\n            dataPoolAddress\n        ).updateSeriesScriptConfig(_seriesId,_scriptConfig);\n\n        emit SeriesUpdated(_seriesId);\n    }\n\n    function addScriptToSeries(\n        uint256 _seriesId,\n        string memory _script\n    ) external onlyOpenSeriesCreator(_seriesId) {\n\n        IUserDataPoolSeries(\n            dataPoolAddress\n        ).addScriptToSeries(_seriesId,_script);\n\n        emit SeriesUpdated(_seriesId);\n    }\n\n    function removeLastScriptFromSeries(\n        uint256 _seriesId\n    ) external onlyOpenSeriesCreator(_seriesId) {\n\n        IUserDataPoolSeries(\n            dataPoolAddress\n        ).removeLastScriptFromSeries(_seriesId);\n\n        emit SeriesUpdated(_seriesId);\n    }\n\n    function updateSeriesStatus(\n        uint256 _seriesId,\n        SeriesStatus _status\n    ) external onlyOpenSeriesCreator(_seriesId) {\n\n        require(\n            !IUserDataPoolSeries(\n                dataPoolAddress\n            ).isSeriesStatus(_seriesId,_status),\n            \"Did not change.\"\n        );\n\n        require(\n            !IUserDataPoolSeries(\n                dataPoolAddress\n            ).isSeriesStatus(_seriesId,SeriesStatus.Uninitialized) &&\n            (_status == SeriesStatus.Active ||\n            _status == SeriesStatus.Paused) ,\n            \"Cannot change.\"\n        );\n\n        IUserDataPoolSeries(\n            dataPoolAddress\n        ).updateSeriesStatus(_seriesId,_status);\n\n        emit SeriesUpdated(_seriesId);\n    }\n\n    /*\n      ISERIES CONTROLLER METHODS\n    */\n    \n    function attemptToMint(\n        uint256 _seriesId,\n        address _by\n    ) external override returns(\n        bool,\n        uint256\n    ) {\n\n        require(\n            IUserDataPoolSeries(\n                dataPoolAddress\n            ).isProxy(_msgSender()),\n            \"No Access.\"\n        );\n\n        require(\n            IUserDataPoolSeries(\n                dataPoolAddress\n            ).isSeriesStatus(_seriesId,SeriesStatus.Ready) ||\n            IUserDataPoolSeries(\n                dataPoolAddress\n            ).isSeriesStatus(_seriesId,SeriesStatus.Active) ||\n            IUserDataPoolSeries(\n                dataPoolAddress\n            ).isSeriesStatus(_seriesId,SeriesStatus.Paused),\n            \"Series closed.\"\n        );\n\n        require(\n            IUserDataPoolSeries(\n                dataPoolAddress\n            ).isSeriesStatus(_seriesId,SeriesStatus.Active) || \n            IUserDataPoolSeries(\n                dataPoolAddress\n            ).isSeriesCreator(_seriesId,_by),\n            \"Denied.\"\n        );\n\n        uint256 totalMinted;\n        uint256 maxSupply;\n\n        (totalMinted,maxSupply) = IUserDataPoolSeries(\n            dataPoolAddress\n        ).getSeriesMintInformation(_seriesId);\n\n        require(\n            totalMinted < maxSupply,\n            \"Supply reached.\"\n        );\n\n        IUserDataPoolSeries(\n            dataPoolAddress\n        ).tokenMinted(_seriesId);\n\n        uint256 tokenId = (_seriesId * ONE_MILLION) + totalMinted;\n\n        return (true,tokenId);\n    }\n}\n\n",
  "sourcePath": "/Users/jzito/dev/solidity/MintCaseManager/contracts/SeriesController.sol",
  "compiler": {
    "name": "solc",
    "version": "0.8.0+commit.c7dfd78e.Emscripten.clang"
  },
  "schemaVersion": "3.4.3",
  "updatedAt": "2021-10-11T03:09:32.555Z",
  "networkType": "ethereum",
  "devdoc": {
    "kind": "dev",
    "methods": {
      "owner()": {
        "details": "Returns the address of the current owner."
      },
      "renounceOwnership()": {
        "details": "Leaves the contract without owner. It will not be possible to call `onlyOwner` functions anymore. Can only be called by the current owner. NOTE: Renouncing ownership will leave the contract without an owner, thereby removing any functionality that is only available to the owner."
      },
      "transferOwnership(address)": {
        "details": "Transfers ownership of the contract to a new account (`newOwner`). Can only be called by the current owner."
      }
    },
    "version": 1
  },
  "userdoc": {
    "kind": "user",
    "methods": {},
    "version": 1
  }
}