{
  "contractName": "UserDataPool",
  "abi": [
    {
      "inputs": [],
      "stateMutability": "nonpayable",
      "type": "constructor"
    },
    {
      "anonymous": false,
      "inputs": [
        {
          "indexed": false,
          "internalType": "address",
          "name": "_creatorAddress",
          "type": "address"
        }
      ],
      "name": "CreatorAdded",
      "type": "event"
    },
    {
      "anonymous": false,
      "inputs": [
        {
          "indexed": true,
          "internalType": "bytes32",
          "name": "role",
          "type": "bytes32"
        },
        {
          "indexed": true,
          "internalType": "bytes32",
          "name": "previousAdminRole",
          "type": "bytes32"
        },
        {
          "indexed": true,
          "internalType": "bytes32",
          "name": "newAdminRole",
          "type": "bytes32"
        }
      ],
      "name": "RoleAdminChanged",
      "type": "event"
    },
    {
      "anonymous": false,
      "inputs": [
        {
          "indexed": true,
          "internalType": "bytes32",
          "name": "role",
          "type": "bytes32"
        },
        {
          "indexed": true,
          "internalType": "address",
          "name": "account",
          "type": "address"
        },
        {
          "indexed": true,
          "internalType": "address",
          "name": "sender",
          "type": "address"
        }
      ],
      "name": "RoleGranted",
      "type": "event"
    },
    {
      "anonymous": false,
      "inputs": [
        {
          "indexed": true,
          "internalType": "bytes32",
          "name": "role",
          "type": "bytes32"
        },
        {
          "indexed": true,
          "internalType": "address",
          "name": "account",
          "type": "address"
        },
        {
          "indexed": true,
          "internalType": "address",
          "name": "sender",
          "type": "address"
        }
      ],
      "name": "RoleRevoked",
      "type": "event"
    },
    {
      "anonymous": false,
      "inputs": [
        {
          "indexed": false,
          "internalType": "address",
          "name": "_creatorAddress",
          "type": "address"
        },
        {
          "indexed": false,
          "internalType": "uint256",
          "name": "_seriesId",
          "type": "uint256"
        }
      ],
      "name": "SeriesAdded",
      "type": "event"
    },
    {
      "anonymous": false,
      "inputs": [
        {
          "indexed": false,
          "internalType": "uint256",
          "name": "_seriesId",
          "type": "uint256"
        }
      ],
      "name": "SeriesPriceUpdated",
      "type": "event"
    },
    {
      "anonymous": false,
      "inputs": [
        {
          "indexed": false,
          "internalType": "uint256",
          "name": "_seriesId",
          "type": "uint256"
        }
      ],
      "name": "SeriesUpdated",
      "type": "event"
    },
    {
      "inputs": [],
      "name": "ADMIN_ROLE",
      "outputs": [
        {
          "internalType": "bytes32",
          "name": "",
          "type": "bytes32"
        }
      ],
      "stateMutability": "view",
      "type": "function",
      "constant": true
    },
    {
      "inputs": [],
      "name": "DEFAULT_ADMIN_ROLE",
      "outputs": [
        {
          "internalType": "bytes32",
          "name": "",
          "type": "bytes32"
        }
      ],
      "stateMutability": "view",
      "type": "function",
      "constant": true
    },
    {
      "inputs": [],
      "name": "PROXY_ROLE",
      "outputs": [
        {
          "internalType": "bytes32",
          "name": "",
          "type": "bytes32"
        }
      ],
      "stateMutability": "view",
      "type": "function",
      "constant": true
    },
    {
      "inputs": [
        {
          "internalType": "bytes32",
          "name": "role",
          "type": "bytes32"
        }
      ],
      "name": "getRoleAdmin",
      "outputs": [
        {
          "internalType": "bytes32",
          "name": "",
          "type": "bytes32"
        }
      ],
      "stateMutability": "view",
      "type": "function",
      "constant": true
    },
    {
      "inputs": [
        {
          "internalType": "bytes32",
          "name": "role",
          "type": "bytes32"
        },
        {
          "internalType": "address",
          "name": "account",
          "type": "address"
        }
      ],
      "name": "grantRole",
      "outputs": [],
      "stateMutability": "nonpayable",
      "type": "function"
    },
    {
      "inputs": [
        {
          "internalType": "bytes32",
          "name": "role",
          "type": "bytes32"
        },
        {
          "internalType": "address",
          "name": "account",
          "type": "address"
        }
      ],
      "name": "hasRole",
      "outputs": [
        {
          "internalType": "bool",
          "name": "",
          "type": "bool"
        }
      ],
      "stateMutability": "view",
      "type": "function",
      "constant": true
    },
    {
      "inputs": [
        {
          "internalType": "bytes32",
          "name": "role",
          "type": "bytes32"
        },
        {
          "internalType": "address",
          "name": "account",
          "type": "address"
        }
      ],
      "name": "renounceRole",
      "outputs": [],
      "stateMutability": "nonpayable",
      "type": "function"
    },
    {
      "inputs": [
        {
          "internalType": "bytes32",
          "name": "role",
          "type": "bytes32"
        },
        {
          "internalType": "address",
          "name": "account",
          "type": "address"
        }
      ],
      "name": "revokeRole",
      "outputs": [],
      "stateMutability": "nonpayable",
      "type": "function"
    },
    {
      "inputs": [
        {
          "internalType": "bytes4",
          "name": "interfaceId",
          "type": "bytes4"
        }
      ],
      "name": "supportsInterface",
      "outputs": [
        {
          "internalType": "bool",
          "name": "",
          "type": "bool"
        }
      ],
      "stateMutability": "view",
      "type": "function",
      "constant": true
    },
    {
      "inputs": [
        {
          "internalType": "uint256",
          "name": "_invitations",
          "type": "uint256"
        }
      ],
      "name": "updateDefaultPlatformPercentage",
      "outputs": [],
      "stateMutability": "nonpayable",
      "type": "function"
    },
    {
      "inputs": [
        {
          "internalType": "uint256",
          "name": "_defaultInvitations",
          "type": "uint256"
        }
      ],
      "name": "updateDefaultInvitations",
      "outputs": [],
      "stateMutability": "nonpayable",
      "type": "function"
    },
    {
      "inputs": [
        {
          "internalType": "string",
          "name": "_defaultTokenURI",
          "type": "string"
        }
      ],
      "name": "updateDefaultTokenURI",
      "outputs": [],
      "stateMutability": "nonpayable",
      "type": "function"
    },
    {
      "inputs": [
        {
          "internalType": "address",
          "name": "_creatorAddress",
          "type": "address"
        },
        {
          "internalType": "uint256",
          "name": "_platformPercentage",
          "type": "uint256"
        }
      ],
      "name": "updateCreatorPlatformPercentage",
      "outputs": [],
      "stateMutability": "nonpayable",
      "type": "function"
    },
    {
      "inputs": [
        {
          "internalType": "uint256",
          "name": "_seriesId",
          "type": "uint256"
        },
        {
          "internalType": "uint256",
          "name": "_platformPercentage",
          "type": "uint256"
        }
      ],
      "name": "updateSeriesPlatformPercentage",
      "outputs": [],
      "stateMutability": "nonpayable",
      "type": "function"
    },
    {
      "inputs": [
        {
          "internalType": "address",
          "name": "_creatorAddress",
          "type": "address"
        }
      ],
      "name": "banishCreator",
      "outputs": [],
      "stateMutability": "nonpayable",
      "type": "function"
    },
    {
      "inputs": [],
      "name": "getDefaultPlatformPercent",
      "outputs": [
        {
          "internalType": "uint256",
          "name": "",
          "type": "uint256"
        }
      ],
      "stateMutability": "view",
      "type": "function",
      "constant": true
    },
    {
      "inputs": [],
      "name": "getDefaultInvitations",
      "outputs": [
        {
          "internalType": "uint256",
          "name": "",
          "type": "uint256"
        }
      ],
      "stateMutability": "view",
      "type": "function",
      "constant": true
    },
    {
      "inputs": [
        {
          "internalType": "address",
          "name": "_by",
          "type": "address"
        }
      ],
      "name": "isAdmin",
      "outputs": [
        {
          "internalType": "bool",
          "name": "",
          "type": "bool"
        }
      ],
      "stateMutability": "view",
      "type": "function",
      "constant": true
    },
    {
      "inputs": [
        {
          "internalType": "address",
          "name": "_by",
          "type": "address"
        }
      ],
      "name": "isProxy",
      "outputs": [
        {
          "internalType": "bool",
          "name": "",
          "type": "bool"
        }
      ],
      "stateMutability": "view",
      "type": "function",
      "constant": true
    },
    {
      "inputs": [
        {
          "internalType": "address",
          "name": "_creatorAddress",
          "type": "address"
        },
        {
          "internalType": "string",
          "name": "_name",
          "type": "string"
        },
        {
          "internalType": "uint256",
          "name": "_platformPercentage",
          "type": "uint256"
        },
        {
          "internalType": "uint256",
          "name": "_remainingInvitations",
          "type": "uint256"
        },
        {
          "internalType": "address",
          "name": "_invitedBy",
          "type": "address"
        },
        {
          "internalType": "enum ICreatorDataType.CreatorStatus",
          "name": "_status",
          "type": "uint8"
        }
      ],
      "name": "addCreator",
      "outputs": [],
      "stateMutability": "nonpayable",
      "type": "function"
    },
    {
      "inputs": [
        {
          "internalType": "address",
          "name": "_creatorAddress",
          "type": "address"
        },
        {
          "internalType": "string",
          "name": "_name",
          "type": "string"
        }
      ],
      "name": "updateCreatorName",
      "outputs": [],
      "stateMutability": "nonpayable",
      "type": "function"
    },
    {
      "inputs": [
        {
          "internalType": "address",
          "name": "_creatorAddress",
          "type": "address"
        },
        {
          "internalType": "address",
          "name": "_invitationAddress",
          "type": "address"
        },
        {
          "internalType": "uint256",
          "name": "_remainingInvitations",
          "type": "uint256"
        }
      ],
      "name": "updateCreatorInvitations",
      "outputs": [],
      "stateMutability": "nonpayable",
      "type": "function"
    },
    {
      "inputs": [
        {
          "internalType": "address",
          "name": "_creatorAddress",
          "type": "address"
        },
        {
          "internalType": "uint256",
          "name": "_remainingInvitations",
          "type": "uint256"
        }
      ],
      "name": "updateCreatorRemainingInvitations",
      "outputs": [],
      "stateMutability": "nonpayable",
      "type": "function"
    },
    {
      "inputs": [
        {
          "internalType": "address",
          "name": "_creatorAddress",
          "type": "address"
        }
      ],
      "name": "addCreatorTokensMinted",
      "outputs": [],
      "stateMutability": "nonpayable",
      "type": "function"
    },
    {
      "inputs": [
        {
          "internalType": "address",
          "name": "_creatorAddress",
          "type": "address"
        },
        {
          "internalType": "enum ICreatorDataType.CreatorStatus",
          "name": "_status",
          "type": "uint8"
        }
      ],
      "name": "updateCreatorStatus",
      "outputs": [],
      "stateMutability": "nonpayable",
      "type": "function"
    },
    {
      "inputs": [
        {
          "internalType": "address",
          "name": "_creatorAddress",
          "type": "address"
        }
      ],
      "name": "getCreator",
      "outputs": [
        {
          "components": [
            {
              "internalType": "string",
              "name": "name",
              "type": "string"
            },
            {
              "internalType": "uint256",
              "name": "platformPercentage",
              "type": "uint256"
            },
            {
              "internalType": "uint256",
              "name": "remainingInvitations",
              "type": "uint256"
            },
            {
              "internalType": "address",
              "name": "invitedBy",
              "type": "address"
            },
            {
              "internalType": "address[]",
              "name": "invitations",
              "type": "address[]"
            },
            {
              "internalType": "uint256[]",
              "name": "seriesIds",
              "type": "uint256[]"
            },
            {
              "internalType": "uint256",
              "name": "totalSeriesTokensMinted",
              "type": "uint256"
            },
            {
              "internalType": "enum ICreatorDataType.CreatorStatus",
              "name": "status",
              "type": "uint8"
            }
          ],
          "internalType": "struct ICreatorDataType.Creator",
          "name": "",
          "type": "tuple"
        }
      ],
      "stateMutability": "view",
      "type": "function",
      "constant": true
    },
    {
      "inputs": [
        {
          "internalType": "address",
          "name": "_creatorAddress",
          "type": "address"
        }
      ],
      "name": "getCreatorRemainingInvites",
      "outputs": [
        {
          "internalType": "uint256",
          "name": "",
          "type": "uint256"
        }
      ],
      "stateMutability": "view",
      "type": "function",
      "constant": true
    },
    {
      "inputs": [
        {
          "internalType": "address",
          "name": "_creatorAddress",
          "type": "address"
        }
      ],
      "name": "getCreatorInvites",
      "outputs": [
        {
          "internalType": "address[]",
          "name": "",
          "type": "address[]"
        }
      ],
      "stateMutability": "view",
      "type": "function",
      "constant": true
    },
    {
      "inputs": [
        {
          "internalType": "address",
          "name": "_creatorAddress",
          "type": "address"
        }
      ],
      "name": "getCreatorSeriesIds",
      "outputs": [
        {
          "internalType": "uint256[]",
          "name": "",
          "type": "uint256[]"
        }
      ],
      "stateMutability": "view",
      "type": "function",
      "constant": true
    },
    {
      "inputs": [
        {
          "internalType": "address",
          "name": "_creatorAddress",
          "type": "address"
        }
      ],
      "name": "getCreatorPlatformPercent",
      "outputs": [
        {
          "internalType": "uint256",
          "name": "",
          "type": "uint256"
        }
      ],
      "stateMutability": "view",
      "type": "function",
      "constant": true
    },
    {
      "inputs": [
        {
          "internalType": "address",
          "name": "_creatorAddress",
          "type": "address"
        },
        {
          "internalType": "enum ICreatorDataType.CreatorStatus",
          "name": "_status",
          "type": "uint8"
        }
      ],
      "name": "isCreatorStatus",
      "outputs": [
        {
          "internalType": "bool",
          "name": "",
          "type": "bool"
        }
      ],
      "stateMutability": "view",
      "type": "function",
      "constant": true
    },
    {
      "inputs": [
        {
          "internalType": "address",
          "name": "_creatorAddress",
          "type": "address"
        },
        {
          "internalType": "string",
          "name": "_name",
          "type": "string"
        },
        {
          "internalType": "string",
          "name": "_description",
          "type": "string"
        },
        {
          "internalType": "uint256",
          "name": "_platformPercentage",
          "type": "uint256"
        },
        {
          "internalType": "uint256",
          "name": "_maxSupply",
          "type": "uint256"
        },
        {
          "internalType": "uint256",
          "name": "_priceInWei",
          "type": "uint256"
        },
        {
          "internalType": "bool",
          "name": "_onePerWallet",
          "type": "bool"
        },
        {
          "internalType": "string",
          "name": "_scriptConfig",
          "type": "string"
        }
      ],
      "name": "addSeries",
      "outputs": [
        {
          "internalType": "uint256",
          "name": "",
          "type": "uint256"
        }
      ],
      "stateMutability": "nonpayable",
      "type": "function"
    },
    {
      "inputs": [
        {
          "internalType": "uint256",
          "name": "_seriesId",
          "type": "uint256"
        }
      ],
      "name": "tokenMinted",
      "outputs": [],
      "stateMutability": "nonpayable",
      "type": "function"
    },
    {
      "inputs": [
        {
          "internalType": "uint256",
          "name": "_seriesId",
          "type": "uint256"
        },
        {
          "internalType": "string",
          "name": "_name",
          "type": "string"
        },
        {
          "internalType": "string",
          "name": "_description",
          "type": "string"
        }
      ],
      "name": "updateSeriesNameAndDescription",
      "outputs": [],
      "stateMutability": "nonpayable",
      "type": "function"
    },
    {
      "inputs": [
        {
          "internalType": "uint256",
          "name": "_seriesId",
          "type": "uint256"
        },
        {
          "internalType": "address",
          "name": "_secondPayeeAddress",
          "type": "address"
        },
        {
          "internalType": "uint256",
          "name": "_secondPayeePercentage",
          "type": "uint256"
        }
      ],
      "name": "updateSeriesSecondPayee",
      "outputs": [],
      "stateMutability": "nonpayable",
      "type": "function"
    },
    {
      "inputs": [
        {
          "internalType": "uint256",
          "name": "_seriesId",
          "type": "uint256"
        }
      ],
      "name": "removeSeriesSecondPayee",
      "outputs": [],
      "stateMutability": "nonpayable",
      "type": "function"
    },
    {
      "inputs": [
        {
          "internalType": "uint256",
          "name": "_seriesId",
          "type": "uint256"
        },
        {
          "internalType": "address",
          "name": "_currencyContract",
          "type": "address"
        },
        {
          "internalType": "string",
          "name": "_currencySymbol",
          "type": "string"
        }
      ],
      "name": "updateSeriesCurrency",
      "outputs": [],
      "stateMutability": "nonpayable",
      "type": "function"
    },
    {
      "inputs": [
        {
          "internalType": "uint256",
          "name": "_seriesId",
          "type": "uint256"
        }
      ],
      "name": "removeSeriesCurrency",
      "outputs": [],
      "stateMutability": "nonpayable",
      "type": "function"
    },
    {
      "inputs": [
        {
          "internalType": "uint256",
          "name": "_seriesId",
          "type": "uint256"
        },
        {
          "internalType": "uint256",
          "name": "_maxSupply",
          "type": "uint256"
        }
      ],
      "name": "updateSeriesMaxSupply",
      "outputs": [],
      "stateMutability": "nonpayable",
      "type": "function"
    },
    {
      "inputs": [
        {
          "internalType": "uint256",
          "name": "_seriesId",
          "type": "uint256"
        },
        {
          "internalType": "uint256",
          "name": "_priceInWei",
          "type": "uint256"
        }
      ],
      "name": "updateSeriesPriceInWei",
      "outputs": [],
      "stateMutability": "nonpayable",
      "type": "function"
    },
    {
      "inputs": [
        {
          "internalType": "uint256",
          "name": "_seriesId",
          "type": "uint256"
        },
        {
          "internalType": "bool",
          "name": "_onePerWallet",
          "type": "bool"
        }
      ],
      "name": "updateSeriesOnePerWallet",
      "outputs": [],
      "stateMutability": "nonpayable",
      "type": "function"
    },
    {
      "inputs": [
        {
          "internalType": "uint256",
          "name": "_seriesId",
          "type": "uint256"
        },
        {
          "internalType": "string",
          "name": "_scriptConfig",
          "type": "string"
        }
      ],
      "name": "updateSeriesScriptConfig",
      "outputs": [],
      "stateMutability": "nonpayable",
      "type": "function"
    },
    {
      "inputs": [
        {
          "internalType": "uint256",
          "name": "_seriesId",
          "type": "uint256"
        },
        {
          "internalType": "string",
          "name": "_script",
          "type": "string"
        }
      ],
      "name": "addScriptToSeries",
      "outputs": [],
      "stateMutability": "nonpayable",
      "type": "function"
    },
    {
      "inputs": [
        {
          "internalType": "uint256",
          "name": "_seriesId",
          "type": "uint256"
        }
      ],
      "name": "removeLastScriptFromSeries",
      "outputs": [],
      "stateMutability": "nonpayable",
      "type": "function"
    },
    {
      "inputs": [
        {
          "internalType": "uint256",
          "name": "_seriesId",
          "type": "uint256"
        },
        {
          "internalType": "enum ISeriesDataType.SeriesStatus",
          "name": "_status",
          "type": "uint8"
        }
      ],
      "name": "updateSeriesStatus",
      "outputs": [],
      "stateMutability": "nonpayable",
      "type": "function"
    },
    {
      "inputs": [
        {
          "internalType": "uint256",
          "name": "_seriesId",
          "type": "uint256"
        }
      ],
      "name": "getSeries",
      "outputs": [
        {
          "components": [
            {
              "internalType": "string",
              "name": "name",
              "type": "string"
            },
            {
              "internalType": "string",
              "name": "description",
              "type": "string"
            },
            {
              "internalType": "address",
              "name": "creatorAddress",
              "type": "address"
            },
            {
              "internalType": "uint256",
              "name": "platformPercentage",
              "type": "uint256"
            },
            {
              "internalType": "address",
              "name": "secondPayeeAddress",
              "type": "address"
            },
            {
              "internalType": "uint256",
              "name": "secondPayeePercentage",
              "type": "uint256"
            },
            {
              "internalType": "address",
              "name": "currencyContract",
              "type": "address"
            },
            {
              "internalType": "string",
              "name": "currencySymbol",
              "type": "string"
            },
            {
              "internalType": "uint256",
              "name": "totalMinted",
              "type": "uint256"
            },
            {
              "internalType": "uint256",
              "name": "maxSupply",
              "type": "uint256"
            },
            {
              "internalType": "uint256",
              "name": "priceInWei",
              "type": "uint256"
            },
            {
              "internalType": "bool",
              "name": "onePerWallet",
              "type": "bool"
            },
            {
              "internalType": "string[]",
              "name": "scripts",
              "type": "string[]"
            },
            {
              "internalType": "string",
              "name": "scriptConfig",
              "type": "string"
            },
            {
              "internalType": "string",
              "name": "tokenURI",
              "type": "string"
            },
            {
              "internalType": "enum ISeriesDataType.SeriesStatus",
              "name": "status",
              "type": "uint8"
            }
          ],
          "internalType": "struct ISeriesDataType.Series",
          "name": "",
          "type": "tuple"
        }
      ],
      "stateMutability": "view",
      "type": "function",
      "constant": true
    },
    {
      "inputs": [
        {
          "internalType": "uint256",
          "name": "_seriesId",
          "type": "uint256"
        }
      ],
      "name": "getSeriesCreatorAddress",
      "outputs": [
        {
          "internalType": "address",
          "name": "",
          "type": "address"
        }
      ],
      "stateMutability": "view",
      "type": "function",
      "constant": true
    },
    {
      "inputs": [
        {
          "internalType": "uint256",
          "name": "_seriesId",
          "type": "uint256"
        }
      ],
      "name": "getSeriesScriptCount",
      "outputs": [
        {
          "internalType": "uint256",
          "name": "",
          "type": "uint256"
        }
      ],
      "stateMutability": "view",
      "type": "function",
      "constant": true
    },
    {
      "inputs": [
        {
          "internalType": "uint256",
          "name": "_seriesId",
          "type": "uint256"
        },
        {
          "internalType": "uint256",
          "name": "_scriptIndex",
          "type": "uint256"
        }
      ],
      "name": "getSeriesScriptAtIndex",
      "outputs": [
        {
          "internalType": "string",
          "name": "",
          "type": "string"
        }
      ],
      "stateMutability": "view",
      "type": "function",
      "constant": true
    },
    {
      "inputs": [
        {
          "internalType": "uint256",
          "name": "_seriesId",
          "type": "uint256"
        }
      ],
      "name": "getSeriesMintInformation",
      "outputs": [
        {
          "internalType": "uint256",
          "name": "_totalMinted",
          "type": "uint256"
        },
        {
          "internalType": "uint256",
          "name": "_maxSupply",
          "type": "uint256"
        }
      ],
      "stateMutability": "view",
      "type": "function",
      "constant": true
    },
    {
      "inputs": [
        {
          "internalType": "uint256",
          "name": "_seriesId",
          "type": "uint256"
        }
      ],
      "name": "getSeriesPriceInWei",
      "outputs": [
        {
          "internalType": "uint256",
          "name": "",
          "type": "uint256"
        }
      ],
      "stateMutability": "view",
      "type": "function",
      "constant": true
    },
    {
      "inputs": [
        {
          "internalType": "uint256",
          "name": "_seriesId",
          "type": "uint256"
        }
      ],
      "name": "getSeriesPlatformPercent",
      "outputs": [
        {
          "internalType": "uint256",
          "name": "",
          "type": "uint256"
        }
      ],
      "stateMutability": "view",
      "type": "function",
      "constant": true
    },
    {
      "inputs": [
        {
          "internalType": "uint256",
          "name": "_seriesId",
          "type": "uint256"
        }
      ],
      "name": "getSeriesSecondPayeeInformation",
      "outputs": [
        {
          "internalType": "address",
          "name": "_secondPayeeAddress",
          "type": "address"
        },
        {
          "internalType": "uint256",
          "name": "_secondPayeePercent",
          "type": "uint256"
        }
      ],
      "stateMutability": "view",
      "type": "function",
      "constant": true
    },
    {
      "inputs": [
        {
          "internalType": "uint256",
          "name": "_seriesId",
          "type": "uint256"
        }
      ],
      "name": "getSeriesOnePerWallet",
      "outputs": [
        {
          "internalType": "bool",
          "name": "",
          "type": "bool"
        }
      ],
      "stateMutability": "view",
      "type": "function",
      "constant": true
    },
    {
      "inputs": [
        {
          "internalType": "uint256",
          "name": "_seriesId",
          "type": "uint256"
        }
      ],
      "name": "getSeriesTokenURI",
      "outputs": [
        {
          "internalType": "string",
          "name": "",
          "type": "string"
        }
      ],
      "stateMutability": "view",
      "type": "function",
      "constant": true
    },
    {
      "inputs": [
        {
          "internalType": "uint256",
          "name": "_seriesId",
          "type": "uint256"
        },
        {
          "internalType": "enum ISeriesDataType.SeriesStatus",
          "name": "_status",
          "type": "uint8"
        }
      ],
      "name": "isSeriesStatus",
      "outputs": [
        {
          "internalType": "bool",
          "name": "",
          "type": "bool"
        }
      ],
      "stateMutability": "view",
      "type": "function",
      "constant": true
    },
    {
      "inputs": [
        {
          "internalType": "uint256",
          "name": "_seriesId",
          "type": "uint256"
        },
        {
          "internalType": "address",
          "name": "_creatorAddress",
          "type": "address"
        }
      ],
      "name": "isSeriesCreator",
      "outputs": [
        {
          "internalType": "bool",
          "name": "",
          "type": "bool"
        }
      ],
      "stateMutability": "view",
      "type": "function",
      "constant": true
    },
    {
      "inputs": [],
      "name": "getTotalTokensMinted",
      "outputs": [
        {
          "internalType": "uint256",
          "name": "",
          "type": "uint256"
        }
      ],
      "stateMutability": "view",
      "type": "function",
      "constant": true
    }
  ],
  "bytecode": "0x60506001556002805560c0604052601a60808190527f68747470733a2f2f746f6b656e2e6d696e74636173652e696f2f00000000000060a09081526200004991600391906200018f565b5060006004553480156200005c57600080fd5b506200007360006200006d620000bf565b620000c3565b620000a27fa49807205ce4d355092ef5a8a18f56e8913cf4a201fbe287825b095693c217756200006d620000bf565b620000b96006620000d360201b620024161760201c565b62000272565b3390565b620000cf8282620000dc565b5050565b80546001019055565b620000e8828262000166565b620000cf576000828152602081815260408083206001600160a01b03851684529091529020805460ff1916600117905562000122620000bf565b6001600160a01b0316816001600160a01b0316837f2f8788117e7eff1d82e926ec794901d17c78024a50270940304540a733656f0d60405160405180910390a45050565b6000918252602082815260408084206001600160a01b0393909316845291905290205460ff1690565b8280546200019d9062000235565b90600052602060002090601f016020900481019282620001c157600085556200020c565b82601f10620001dc57805160ff19168380011785556200020c565b828001600101855582156200020c579182015b828111156200020c578251825591602001919060010190620001ef565b506200021a9291506200021e565b5090565b5b808211156200021a57600081556001016200021f565b6002810460018216806200024a57607f821691505b602082108114156200026c57634e487b7160e01b600052602260045260246000fd5b50919050565b61391480620002826000396000f3fe608060405234801561001057600080fd5b506004361061038e5760003560e01c806391d14854116101de578063c91791261161010f578063e3bc111b116100ad578063e8ee88621161007c578063e8ee8862146107cf578063efa0ff6e146107e2578063fc8a156f146107f5578063ff4078d3146108085761038e565b8063e3bc111b1461078e578063e48bf15b146107a1578063e53dca03146107a9578063e85aca41146107bc5761038e565b8063d67b3b27116100e9578063d67b3b2714610734578063d8eb38dc14610747578063e0b117a61461075a578063e37b38601461076d5761038e565b8063c9179126146106ee578063d34740d91461070e578063d547741f146107215761038e565b8063a4a998491161017c578063b681950c11610156578063b681950c14610695578063b68a9f97146106a8578063bb4d1208146106c8578063bf538e1d146106db5761038e565b8063a4a9984914610667578063a4b12bb01461067a578063b5a70f601461068d5761038e565b8063978d130f116101b8578063978d130f1461060c578063a02103091461062c578063a217fddf1461064c578063a4492d4a146106545761038e565b806391d14854146105e6578063933f10ba146105f95780639727870c146105365761038e565b8063452de006116102c35780636aadadf11161026157806375b238fc1161023057806375b238fc146105bb5780637f0258e3146105c3578063844868cb146105cb57806385b9b611146105de5761038e565b80636aadadf11461056f5780636cc46e881461058257806374ab5534146105955780637596500a146105a85761038e565b80635e31e4be1161029d5780635e31e4be146105235780636493daa7146105365780636505917e1461054957806367cf07881461055c5761038e565b8063452de006146104ea578063588ac489146104fd5780635d067540146105105761038e565b806324d7806c116103305780632f2ff15d1161030a5780632f2ff15d1461049057806336568abe146104a357806337546e3e146104b65780633f8634d8146104d75761038e565b806324d7806c1461044a5780632867a60e1461045d578063297103881461047d5761038e565b80631160da151161036c5780631160da15146103e457806315c83f23146104045780632316c93c14610417578063248a9ca31461042a5761038e565b806301ffc9a71461039357806302a46b33146103bc5780630f9545e6146103d1575b600080fd5b6103a66103a1366004612fb0565b61081b565b6040516103b391906133ba565b60405180910390f35b6103cf6103ca36600461310f565b610848565b005b6103cf6103df366004612d38565b6108f2565b6103f76103f2366004612f76565b61098e565b6040516103b39190613622565b6103cf61041236600461316f565b610e33565b6103cf610425366004612f76565b610e69565b61043d610438366004612f76565b610ef0565b6040516103b391906133c5565b6103a6610458366004612d38565b610f05565b61047061046b366004612d38565b610f75565b6040516103b3919061335a565b6103a661048b366004612d38565b61109d565b6103cf61049e366004612f8e565b61110d565b6103cf6104b1366004612f8e565b611131565b6104c96104c4366004612f76565b611177565b6040516103b3929190613341565b6103a66104e5366004612f76565b61119e565b6103a66104f83660046130ae565b6111b6565b6103cf61050b3660046130ae565b611214565b61043d61051e366004612e0b565b6112af565b6103cf610531366004612f76565b611493565b6103cf610544366004612f76565b611538565b6103cf610557366004612fd8565b611559565b6103cf61056a366004612f4d565b611587565b6103cf61057d366004612d8d565b6115fc565b6103cf610590366004612dbf565b611698565b61043d6105a3366004612d38565b611717565b6103cf6105b636600461316f565b611735565b61043d6117a0565b61043d6117b2565b6103a66105d9366004612f8e565b6117b8565b61043d6117dc565b6103a66105f4366004612f8e565b6117e2565b6103cf610607366004613013565b61180b565b61061f61061a366004612f76565b6118d1565b6040516103b391906133ce565b61063f61063a366004612d38565b611976565b6040516103b39190613578565b61043d611b85565b6103cf6106623660046130e0565b611b8a565b61043d610675366004612f76565b611c72565b61043d610688366004612f76565b611c87565b61043d611c9c565b6103cf6106a3366004612f4d565b611ca2565b6106bb6106b6366004612f76565b611cdd565b6040516103b3919061332d565b61043d6106d6366004612f76565b611cfb565b6103a66106e9366004612d8d565b611d10565b6107016106fc366004612d38565b611d70565b6040516103b391906133a7565b6103cf61071c366004612d38565b611d7b565b6103cf61072f366004612f8e565b611e58565b6103cf61074236600461316f565b611e77565b6103cf610755366004613068565b611ee2565b6103cf6107683660046130e0565b611f91565b61078061077b366004612f76565b61200c565b6040516103b392919061377e565b6103cf61079c366004612d52565b612029565b61043d6120cf565b6103cf6107b7366004612f76565b6120e1565b6103cf6107ca36600461308c565b61215d565b61061f6107dd36600461316f565b6121d6565b61043d6107f0366004612d38565b6122a6565b6103cf610803366004612ece565b6122c4565b6103cf610816366004612f76565b612330565b60006001600160e01b03198216637965db0b60e01b148061084057506108408261241f565b90505b919050565b6108626000805160206138bf8339815191526105f4612438565b80610882575061088260008051602061389f8339815191526105f4612438565b6108a75760405162461bcd60e51b815260040161089e9061346e565b60405180910390fd5b600083815260076020908152604090912083516108c692850190612a12565b50600083815260076020908152604090912082516108ec92600190920191840190612a12565b50505050565b61090c6000805160206138bf8339815191526105f4612438565b8061092c575061092c60008051602061389f8339815191526105f4612438565b6109485760405162461bcd60e51b815260040161089e9061346e565b6001600160a01b03811660009081526005602052604090206006015461096f90600161243c565b6001600160a01b03909116600090815260056020526040902060060155565b610996612a96565b60008281526007602052604090819020815161020081019092528054829082906109bf90613806565b80601f01602080910402602001604051908101604052809291908181526020018280546109eb90613806565b8015610a385780601f10610a0d57610100808354040283529160200191610a38565b820191906000526020600020905b815481529060010190602001808311610a1b57829003601f168201915b50505050508152602001600182018054610a5190613806565b80601f0160208091040260200160405190810160405280929190818152602001828054610a7d90613806565b8015610aca5780601f10610a9f57610100808354040283529160200191610aca565b820191906000526020600020905b815481529060010190602001808311610aad57829003601f168201915b505050918352505060028201546001600160a01b039081166020830152600383015460408301526004830154811660608301526005830154608083015260068301541660a082015260078201805460c090920191610b2790613806565b80601f0160208091040260200160405190810160405280929190818152602001828054610b5390613806565b8015610ba05780601f10610b7557610100808354040283529160200191610ba0565b820191906000526020600020905b815481529060010190602001808311610b8357829003601f168201915b505050505081526020016008820154815260200160098201548152602001600a8201548152602001600b820160009054906101000a900460ff16151515158152602001600c8201805480602002602001604051908101604052809291908181526020016000905b82821015610cb3578382906000526020600020018054610c2690613806565b80601f0160208091040260200160405190810160405280929190818152602001828054610c5290613806565b8015610c9f5780601f10610c7457610100808354040283529160200191610c9f565b820191906000526020600020905b815481529060010190602001808311610c8257829003601f168201915b505050505081526020019060010190610c07565b505050508152602001600d82018054610ccb90613806565b80601f0160208091040260200160405190810160405280929190818152602001828054610cf790613806565b8015610d445780601f10610d1957610100808354040283529160200191610d44565b820191906000526020600020905b815481529060010190602001808311610d2757829003601f168201915b50505050508152602001600e82018054610d5d90613806565b80601f0160208091040260200160405190810160405280929190818152602001828054610d8990613806565b8015610dd65780601f10610dab57610100808354040283529160200191610dd6565b820191906000526020600020905b815481529060010190602001808311610db957829003601f168201915b5050509183525050600f82015460209091019060ff166005811115610e0b57634e487b7160e01b600052602160045260246000fd5b6005811115610e2a57634e487b7160e01b600052602160045260246000fd5b90525092915050565b6000805160206138bf833981519152610e5381610e4e612438565b61244f565b5060009182526007602052604090912060030155565b610e836000805160206138bf8339815191526105f4612438565b80610ea35750610ea360008051602061389f8339815191526105f4612438565b610ebf5760405162461bcd60e51b815260040161089e9061346e565b600081815260076020819052604082206006810180546001600160a01b0319169055610eed92910190612b4e565b50565b60009081526020819052604090206001015490565b6000610f216000805160206138bf8339815191526105f4612438565b80610f415750610f4160008051602061389f8339815191526105f4612438565b610f5d5760405162461bcd60e51b815260040161089e9061346e565b6108406000805160206138bf833981519152836117e2565b6001600160a01b0381166000908152600560205260408120600401546060918167ffffffffffffffff811115610fbb57634e487b7160e01b600052604160045260246000fd5b604051908082528060200260200182016040528015610fe4578160200160208202803683370190505b50905060005b82811015611095576001600160a01b038516600090815260056020526040902060040180548290811061102d57634e487b7160e01b600052603260045260246000fd5b9060005260206000200160009054906101000a90046001600160a01b031682828151811061106b57634e487b7160e01b600052603260045260246000fd5b6001600160a01b03909216602092830291909101909101528061108d81613841565b915050610fea565b509392505050565b60006110b96000805160206138bf8339815191526105f4612438565b806110d957506110d960008051602061389f8339815191526105f4612438565b6110f55760405162461bcd60e51b815260040161089e9061346e565b61084060008051602061389f833981519152836117e2565b61111682610ef0565b61112281610e4e612438565b61112c83836124b3565b505050565b611139612438565b6001600160a01b0316816001600160a01b0316146111695760405162461bcd60e51b815260040161089e90613529565b6111738282612538565b5050565b600090815260076020526040902060048101546005909101546001600160a01b0390911691565b6000908152600760205260409020600b015460ff1690565b60008160058111156111d857634e487b7160e01b600052602160045260246000fd5b6000848152600760205260409020600f015460ff16600581111561120c57634e487b7160e01b600052602160045260246000fd5b149392505050565b61122e6000805160206138bf8339815191526105f4612438565b8061124e575061124e60008051602061389f8339815191526105f4612438565b61126a5760405162461bcd60e51b815260040161089e9061346e565b6000828152600760205260409020600f01805482919060ff191660018360058111156112a657634e487b7160e01b600052602160045260246000fd5b02179055505050565b60006112cb6000805160206138bf8339815191526105f4612438565b806112eb57506112eb60008051602061389f8339815191526105f4612438565b6113075760405162461bcd60e51b815260040161089e9061346e565b620f424085111561132a5760405162461bcd60e51b815260040161089e90613416565b600061133660066125bb565b90506113426006612416565b60008181526007602090815260409091206002810180546001600160a01b0319166001600160a01b038e161790558a5161137e928c0190612a12565b50600081815260076020908152604090912089516113a4926001909201918b0190612a12565b5060008181526007602090815260409091206003810189905560098101889055600a8101879055600b8101805460ff191687151517905584516113ef92600d90920191860190612a12565b50600081815260076020526040902060038054600e9092019161141190613806565b61141c929190612b8a565b506001600160a01b038a16600090815260056020818152604080842090920180546001810182559084529220909101829055517f435926787fba0e61edab347879d758f97d78c7efc248d8014cc8801b19658add9061147e908c908490613341565b60405180910390a19998505050505050505050565b6114ad6000805160206138bf8339815191526105f4612438565b806114cd57506114cd60008051602061389f8339815191526105f4612438565b6114e95760405162461bcd60e51b815260040161089e9061346e565b6000818152600760205260409020600c0180548061151757634e487b7160e01b600052603160045260246000fd5b6001900381819060005260206000200160006115339190612b4e565b905550565b6000805160206138bf83398151915261155381610e4e612438565b50600255565b6000805160206138bf83398151915261157481610e4e612438565b815161112c906003906020850190612a12565b6115a16000805160206138bf8339815191526105f4612438565b806115c157506115c160008051602061389f8339815191526105f4612438565b6115dd5760405162461bcd60e51b815260040161089e9061346e565b6001600160a01b03909116600090815260056020526040902060020155565b6116166000805160206138bf8339815191526105f4612438565b80611636575061163660008051602061389f8339815191526105f4612438565b6116525760405162461bcd60e51b815260040161089e9061346e565b6001600160a01b0382166000908152600560205260409020600701805482919060ff191660018360048111156112a657634e487b7160e01b600052602160045260246000fd5b6116b26000805160206138bf8339815191526105f4612438565b806116d257506116d260008051602061389f8339815191526105f4612438565b6116ee5760405162461bcd60e51b815260040161089e9061346e565b6001600160a01b0382166000908152600560209081526040909120825161112c92840190612a12565b6001600160a01b031660009081526005602052604090206001015490565b61174f6000805160206138bf8339815191526105f4612438565b8061176f575061176f60008051602061389f8339815191526105f4612438565b61178b5760405162461bcd60e51b815260040161089e9061346e565b60009182526007602052604090912060090155565b6000805160206138bf83398151915281565b60015490565b600091825260076020526040909120600201546001600160a01b0391821691161490565b60045490565b6000918252602082815260408084206001600160a01b0393909316845291905290205460ff1690565b6118256000805160206138bf8339815191526105f4612438565b80611845575061184560008051602061389f8339815191526105f4612438565b6118615760405162461bcd60e51b815260040161089e9061346e565b611873826001600160a01b03166125bf565b61188f5760405162461bcd60e51b815260040161089e906134b9565b60008381526007602081815260409092206006810180546001600160a01b0319166001600160a01b03871617905583516108ec93919092019190840190612a12565b6000818152600760205260409020600e018054606091906118f190613806565b80601f016020809104026020016040519081016040528092919081815260200182805461191d90613806565b801561196a5780601f1061193f5761010080835404028352916020019161196a565b820191906000526020600020905b81548152906001019060200180831161194d57829003601f168201915b50505050509050919050565b61197e612c05565b6001600160a01b03821660009081526005602052604090819020815161010081019092528054829082906119b190613806565b80601f01602080910402602001604051908101604052809291908181526020018280546119dd90613806565b8015611a2a5780601f106119ff57610100808354040283529160200191611a2a565b820191906000526020600020905b815481529060010190602001808311611a0d57829003601f168201915b5050505050815260200160018201548152602001600282015481526020016003820160009054906101000a90046001600160a01b03166001600160a01b03166001600160a01b0316815260200160048201805480602002602001604051908101604052809291908181526020018280548015611acf57602002820191906000526020600020905b81546001600160a01b03168152600190910190602001808311611ab1575b5050505050815260200160058201805480602002602001604051908101604052809291908181526020018280548015611b2757602002820191906000526020600020905b815481526020019060010190808311611b13575b505050918352505060068201546020820152600782015460409091019060ff166004811115611b6657634e487b7160e01b600052602160045260246000fd5b6004811115610e2a57634e487b7160e01b600052602160045260246000fd5b600081565b611ba46000805160206138bf8339815191526105f4612438565b80611bc45750611bc460008051602061389f8339815191526105f4612438565b611be05760405162461bcd60e51b815260040161089e9061346e565b60008281526007602090815260408220600c018054600181018255908352918190208351611c15939190910191840190612a12565b506000828152600760205260408120600f015460ff166005811115611c4a57634e487b7160e01b600052602160045260246000fd5b1415611173576000828152600760205260409020600f0180546001919060ff191682806112a6565b60009081526007602052604090206003015490565b6000908152600760205260409020600a015490565b60025490565b6000805160206138bf833981519152611cbd81610e4e612438565b506001600160a01b03909116600090815260056020526040902060010155565b6000908152600760205260409020600201546001600160a01b031690565b6000908152600760205260409020600c015490565b6000816004811115611d3257634e487b7160e01b600052602160045260246000fd5b6001600160a01b03841660009081526005602052604090206007015460ff16600481111561120c57634e487b7160e01b600052602160045260246000fd5b6060610840826125c5565b6000805160206138bf833981519152611d9681610e4e612438565b6001600160a01b0382166000908152600560205260408120600701805460ff19166004179055611dc5836125c5565b905060005b81518110156108ec57600560076000848481518110611df957634e487b7160e01b600052603260045260246000fd5b60200260200101518152602001908152602001600020600f0160006101000a81548160ff02191690836005811115611e4157634e487b7160e01b600052602160045260246000fd5b0217905550611e5181600161243c565b9050611dca565b611e6182610ef0565b611e6d81610e4e612438565b61112c8383612538565b611e916000805160206138bf8339815191526105f4612438565b80611eb15750611eb160008051602061389f8339815191526105f4612438565b611ecd5760405162461bcd60e51b815260040161089e9061346e565b600091825260076020526040909120600a0155565b611efc6000805160206138bf8339815191526105f4612438565b80611f1c5750611f1c60008051602061389f8339815191526105f4612438565b611f385760405162461bcd60e51b815260040161089e9061346e565b6103e88110611f595760405162461bcd60e51b815260040161089e90613441565b6000928352600760205260409092206004810180546001600160a01b0319166001600160a01b03939093169290921790915560050155565b611fab6000805160206138bf8339815191526105f4612438565b80611fcb5750611fcb60008051602061389f8339815191526105f4612438565b611fe75760405162461bcd60e51b815260040161089e9061346e565b6000828152600760209081526040909120825161112c92600d90920191840190612a12565b600090815260076020526040902060088101546009909101549091565b6120436000805160206138bf8339815191526105f4612438565b80612063575061206360008051602061389f8339815191526105f4612438565b61207f5760405162461bcd60e51b815260040161089e9061346e565b6001600160a01b039283166000818152600560209081526040822060048101805460018101825590845291832090910180546001600160a01b031916959096169490941790945590925260020155565b60008051602061389f83398151915281565b6120fb6000805160206138bf8339815191526105f4612438565b8061211b575061211b60008051602061389f8339815191526105f4612438565b6121375760405162461bcd60e51b815260040161089e9061346e565b60009081526007602052604081206004810180546001600160a01b031916905560050155565b6121776000805160206138bf8339815191526105f4612438565b80612197575061219760008051602061389f8339815191526105f4612438565b6121b35760405162461bcd60e51b815260040161089e9061346e565b600091825260076020526040909120600b01805460ff1916911515919091179055565b6000828152600760205260409020600c018054606091908390811061220b57634e487b7160e01b600052603260045260246000fd5b90600052602060002001805461222090613806565b80601f016020809104026020016040519081016040528092919081815260200182805461224c90613806565b80156122995780601f1061226e57610100808354040283529160200191612299565b820191906000526020600020905b81548152906001019060200180831161227c57829003601f168201915b5050505050905092915050565b6001600160a01b031660009081526005602052604090206002015490565b6122de6000805160206138bf8339815191526105f4612438565b806122fe57506122fe60008051602061389f8339815191526105f4612438565b61231a5760405162461bcd60e51b815260040161089e9061346e565b6123288686868686866126c6565b505050505050565b61234a6000805160206138bf8339815191526105f4612438565b8061236a575061236a60008051602061389f8339815191526105f4612438565b6123865760405162461bcd60e51b815260040161089e9061346e565b6000818152600760205260409020600801546123a390600161243c565b600082815260076020908152604080832060088101949094556002909301546001600160a01b03168083526005909152919020600601546123e590600161243c565b6001600160a01b03821660009081526005602052604090206006015560045461240f90600161243c565b6004555050565b80546001019055565b6001600160e01b031981166301ffc9a760e01b14919050565b3390565b6000612448828461378c565b9392505050565b61245982826117e2565b61117357612471816001600160a01b03166014612860565b61247c836020612860565b60405160200161248d9291906132b8565b60408051601f198184030181529082905262461bcd60e51b825261089e916004016133ce565b6124bd82826117e2565b611173576000828152602081815260408083206001600160a01b03851684529091529020805460ff191660011790556124f4612438565b6001600160a01b0316816001600160a01b0316837f2f8788117e7eff1d82e926ec794901d17c78024a50270940304540a733656f0d60405160405180910390a45050565b61254282826117e2565b15611173576000828152602081815260408083206001600160a01b03851684529091529020805460ff19169055612577612438565b6001600160a01b0316816001600160a01b0316837ff6391f5c32d9c69d2a47ea670b442974b53935d1edc7fd64eb21e047a839171b60405160405180910390a45050565b5490565b3b151590565b6001600160a01b0381166000908152600560208190526040822001546060918167ffffffffffffffff81111561260b57634e487b7160e01b600052604160045260246000fd5b604051908082528060200260200182016040528015612634578160200160208202803683370190505b50905060005b82811015611095576001600160a01b03851660009081526005602081905260409091200180548290811061267e57634e487b7160e01b600052603260045260246000fd5b90600052602060002001548282815181106126a957634e487b7160e01b600052603260045260246000fd5b6020908102919091010152806126be81613841565b91505061263a565b6001600160a01b03861660009081526005602052604081206007015460ff16600481111561270457634e487b7160e01b600052602160045260246000fd5b146127215760405162461bcd60e51b815260040161089e90613504565b600081600481111561274357634e487b7160e01b600052602160045260246000fd5b14156127615760405162461bcd60e51b815260040161089e906134e2565b60fa8411156127825760405162461bcd60e51b815260040161089e90613496565b6001600160a01b038616600090815260056020908152604090912086516127ab92880190612a12565b506001600160a01b0386811660009081526005602052604090206001808201879055600282018690556003820180546001600160a01b031916938616939093179092556007018054839260ff199091169083600481111561281c57634e487b7160e01b600052602160045260246000fd5b02179055507f021a687fbe334e9e815cee8b399c0bc42e82356eb7f63a09ddb558a25d3dcdbd86604051612850919061332d565b60405180910390a1505050505050565b6060600061286f8360026137a4565b61287a90600261378c565b67ffffffffffffffff8111156128a057634e487b7160e01b600052604160045260246000fd5b6040519080825280601f01601f1916602001820160405280156128ca576020820181803683370190505b509050600360fc1b816000815181106128f357634e487b7160e01b600052603260045260246000fd5b60200101906001600160f81b031916908160001a905350600f60fb1b8160018151811061293057634e487b7160e01b600052603260045260246000fd5b60200101906001600160f81b031916908160001a90535060006129548460026137a4565b61295f90600161378c565b90505b60018111156129f3576f181899199a1a9b1b9c1cb0b131b232b360811b85600f16601081106129a157634e487b7160e01b600052603260045260246000fd5b1a60f81b8282815181106129c557634e487b7160e01b600052603260045260246000fd5b60200101906001600160f81b031916908160001a90535060049490941c936129ec816137ef565b9050612962565b5083156124485760405162461bcd60e51b815260040161089e906133e1565b828054612a1e90613806565b90600052602060002090601f016020900481019282612a405760008555612a86565b82601f10612a5957805160ff1916838001178555612a86565b82800160010185558215612a86579182015b82811115612a86578251825591602001919060010190612a6b565b50612a92929150612c6c565b5090565b604051806102000160405280606081526020016060815260200160006001600160a01b031681526020016000815260200160006001600160a01b031681526020016000815260200160006001600160a01b031681526020016060815260200160008152602001600081526020016000815260200160001515815260200160608152602001606081526020016060815260200160006005811115612b4957634e487b7160e01b600052602160045260246000fd5b905290565b508054612b5a90613806565b6000825580601f10612b6c5750610eed565b601f016020900490600052602060002090810190610eed9190612c6c565b828054612b9690613806565b90600052602060002090601f016020900481019282612bb85760008555612a86565b82601f10612bc95780548555612a86565b82800160010185558215612a8657600052602060002091601f016020900482015b82811115612a86578254825591600101919060010190612bea565b60405180610100016040528060608152602001600081526020016000815260200160006001600160a01b0316815260200160608152602001606081526020016000815260200160006004811115612b4957634e487b7160e01b600052602160045260246000fd5b5b80821115612a925760008155600101612c6d565b80356001600160a01b038116811461084357600080fd5b8035801515811461084357600080fd5b80356005811061084357600080fd5b600082601f830112612cc7578081fd5b813567ffffffffffffffff80821115612ce257612ce2613888565b604051601f8301601f191681016020018281118282101715612d0657612d06613888565b604052828152848301602001861015612d1d578384fd5b82602086016020830137918201602001929092529392505050565b600060208284031215612d49578081fd5b61244882612c81565b600080600060608486031215612d66578182fd5b612d6f84612c81565b9250612d7d60208501612c81565b9150604084013590509250925092565b60008060408385031215612d9f578182fd5b612da883612c81565b9150612db660208401612ca8565b90509250929050565b60008060408385031215612dd1578182fd5b612dda83612c81565b9150602083013567ffffffffffffffff811115612df5578182fd5b612e0185828601612cb7565b9150509250929050565b600080600080600080600080610100898b031215612e27578384fd5b612e3089612c81565b9750602089013567ffffffffffffffff80821115612e4c578586fd5b612e588c838d01612cb7565b985060408b0135915080821115612e6d578586fd5b612e798c838d01612cb7565b975060608b0135965060808b0135955060a08b01359450612e9c60c08c01612c98565b935060e08b0135915080821115612eb1578283fd5b50612ebe8b828c01612cb7565b9150509295985092959890939650565b60008060008060008060c08789031215612ee6578182fd5b612eef87612c81565b9550602087013567ffffffffffffffff811115612f0a578283fd5b612f1689828a01612cb7565b9550506040870135935060608701359250612f3360808801612c81565b9150612f4160a08801612ca8565b90509295509295509295565b60008060408385031215612f5f578182fd5b612f6883612c81565b946020939093013593505050565b600060208284031215612f87578081fd5b5035919050565b60008060408385031215612fa0578182fd5b82359150612db660208401612c81565b600060208284031215612fc1578081fd5b81356001600160e01b031981168114612448578182fd5b600060208284031215612fe9578081fd5b813567ffffffffffffffff811115612fff578182fd5b61300b84828501612cb7565b949350505050565b600080600060608486031215613027578081fd5b8335925061303760208501612c81565b9150604084013567ffffffffffffffff811115613052578182fd5b61305e86828701612cb7565b9150509250925092565b60008060006060848603121561307c578081fd5b83359250612d7d60208501612c81565b6000806040838503121561309e578182fd5b82359150612db660208401612c98565b600080604083850312156130c0578182fd5b823591506020830135600681106130d5578182fd5b809150509250929050565b600080604083850312156130f2578182fd5b82359150602083013567ffffffffffffffff811115612df5578182fd5b600080600060608486031215613123578081fd5b83359250602084013567ffffffffffffffff80821115613141578283fd5b61314d87838801612cb7565b93506040860135915080821115613162578283fd5b5061305e86828701612cb7565b60008060408385031215613181578182fd5b50508035926020909101359150565b6001600160a01b03169052565b6000815180845260208085019450808401835b838110156131d55781516001600160a01b0316875295820195908201906001016131b0565b509495945050505050565b6000815180845260208085018081965082840281019150828601855b8581101561322657828403895261321484835161328c565b988501989350908401906001016131fc565b5091979650505050505050565b6000815180845260208085019450808401835b838110156131d557815187529582019590820190600101613246565b15159052565b6005811061327857613278613872565b9052565b6006811061327857613278613872565b600081518084526132a48160208601602086016137c3565b601f01601f19169290920160200192915050565b60007f416363657373436f6e74726f6c3a206163636f756e7420000000000000000000825283516132f08160178501602088016137c3565b7001034b99036b4b9b9b4b733903937b6329607d1b60179184019182015283516133218160288401602088016137c3565b01602801949350505050565b6001600160a01b0391909116815260200190565b6001600160a01b03929092168252602082015260400190565b6020808252825182820181905260009190848201906040850190845b8181101561339b5783516001600160a01b031683529284019291840191600101613376565b50909695505050505050565b6000602082526124486020830184613233565b901515815260200190565b90815260200190565b600060208252612448602083018461328c565b6020808252818101527f537472696e67733a20686578206c656e67746820696e73756666696369656e74604082015260600190565b60208082526011908201527029bab838363c903a37b7903630b933b29760791b604082015260600190565b60208082526013908201527224b73b30b634b2102832b931b2b73a30b3b29760691b604082015260600190565b6020808252600e908201526d2737902832b936b4b9b9b4b7b71760911b604082015260600190565b602080825260099082015268496e76616c6964202560b81b604082015260600190565b6020808252600f908201526e2737ba10309031b7b73a3930b1ba1760891b604082015260600190565b60208082526008908201526724b73b30b634b21760c11b604082015260600190565b6020808252600b908201526a3932b3b4b9ba32b932b21760a91b604082015260600190565b6020808252602f908201527f416363657373436f6e74726f6c3a2063616e206f6e6c792072656e6f756e636560408201526e103937b632b9903337b91039b2b63360891b606082015260800190565b600060208252825161010080602085015261359761012085018361328c565b9150602085015160408501526040850151606085015260608501516135bf6080860182613190565b506080850151601f19808685030160a08701526135dc848361319d565b935060a08701519150808685030160c0870152506135fa8382613233565b92505060c085015160e085015260e085015161361882860182613268565b5090949350505050565b600060208252825161020080602085015261364161022085018361328c565b91506020850151601f198086850301604087015261365f848361328c565b9350604087015191506136756060870183613190565b606087015160808701526080870151915061369360a0870183613190565b60a087015160c087015260c087015191506136b160e0870183613190565b60e087015191506101008187860301818801526136ce858461328c565b90880151610120888101919091528801516101408089019190915288015161016080890191909152880151909450915061018061370d81880184613262565b808801519250506101a081878603018188015261372a85846131e0565b9450808801519250506101c0818786030181880152613749858461328c565b9450808801519250506101e0818786030181880152613768858461328c565b945080880151925050506136188286018261327c565b918252602082015260400190565b6000821982111561379f5761379f61385c565b500190565b60008160001904831182151516156137be576137be61385c565b500290565b60005b838110156137de5781810151838201526020016137c6565b838111156108ec5750506000910152565b6000816137fe576137fe61385c565b506000190190565b60028104600182168061381a57607f821691505b6020821081141561383b57634e487b7160e01b600052602260045260246000fd5b50919050565b60006000198214156138555761385561385c565b5060010190565b634e487b7160e01b600052601160045260246000fd5b634e487b7160e01b600052602160045260246000fd5b634e487b7160e01b600052604160045260246000fdfe77d72916e966418e6dc58a19999ae9934bef3f749f1547cde0a86e809f19c89ba49807205ce4d355092ef5a8a18f56e8913cf4a201fbe287825b095693c21775a26469706673582212202932d9d8c6e00c3e9a9107467c564b1c47813a17817ccbadacef9ff221b2e91764736f6c63430008000033",
  "immutableReferences": {},
  "source": "// SPDX-License-Identifier: MEH\n\npragma solidity ^0.8.0;\n\nimport \"./interfaces/IUserDataPoolCreator.sol\";\nimport \"./interfaces/IUserDataPoolSeries.sol\";\nimport \"./oz/Counters.sol\";\nimport \"./oz/AccessControl.sol\";\nimport \"./oz/Context.sol\";\nimport \"./oz/SafeMath.sol\";\nimport \"./oz/Address.sol\";\n\ncontract UserDataPool is IUserDataPoolCreator, IUserDataPoolSeries, AccessControl {\n    using Counters for Counters.Counter;\n    using SafeMath for uint256;\n    using Address for address;\n\n    event CreatorAdded(address _creatorAddress);\n\n    event SeriesAdded(address _creatorAddress, uint256 _seriesId);\n    event SeriesUpdated(uint256 _seriesId);\n    event SeriesPriceUpdated(uint256 _seriesId);\n\n    //Role Creation\n    bytes32 public constant ADMIN_ROLE = keccak256(\"ADMIN_ROLE\");\n    bytes32 public constant PROXY_ROLE = keccak256(\"PROXY_ROLE\");\n\n    uint defaultPlatformPercentage = 80;\n    uint defaultInvitations = 2;\n    string defaultTokenURI = \"https://token.mintcase.io/\";\n    uint256 totalTokensMinted = 0;\n\n    mapping(address => Creator) internal creators;\n\n    uint256 constant ONE_MILLION = 1_000_000;\n    Counters.Counter private nextSeriesId;\n    mapping(uint256 => Series) private seriesList;\n\n    modifier onlyProxyOrAdmin() {\n        \n        require (\n            hasRole(ADMIN_ROLE,_msgSender()) ||\n            hasRole(PROXY_ROLE,_msgSender()),\n            \"No Permission.\");\n        _;\n    }\n\n    constructor() {\n\n        _setupRole(DEFAULT_ADMIN_ROLE, _msgSender());\n        _setupRole(ADMIN_ROLE,_msgSender());\n\n        nextSeriesId.increment();\n    }\n\n    /*\n    ADMIN FUNCTIONS\n    */\n\n    function updateDefaultPlatformPercentage(\n        uint _invitations\n    ) external onlyRole(ADMIN_ROLE) {\n        defaultInvitations = _invitations;\n    }\n\n    function updateDefaultInvitations(\n        uint _defaultInvitations\n    ) external onlyRole(ADMIN_ROLE) {\n        defaultInvitations = _defaultInvitations;\n    }\n\n    function updateDefaultTokenURI(\n        string memory _defaultTokenURI\n    ) external onlyRole(ADMIN_ROLE) {\n        defaultTokenURI = _defaultTokenURI;\n    }\n\n    function updateCreatorPlatformPercentage(\n        address _creatorAddress,\n        uint _platformPercentage\n    ) external onlyRole(ADMIN_ROLE) {\n        creators[_creatorAddress].platformPercentage = _platformPercentage;\n    }\n\n    function updateSeriesPlatformPercentage(\n        uint256 _seriesId,\n        uint _platformPercentage\n    ) external onlyRole(ADMIN_ROLE) {\n        seriesList[_seriesId].platformPercentage = _platformPercentage;\n    }\n\n    //TODO: remove creator role?\n    function banishCreator(\n        address _creatorAddress\n    ) external onlyRole(ADMIN_ROLE) {\n\n        creators[_creatorAddress].status = CreatorStatus.Banished;\n\n        uint256[] memory seriesIds = _getCreatorSeriesIds(_creatorAddress);\n\n        for (uint256 i = 0; i < seriesIds.length; i = i.add(1)) {\n            seriesList[seriesIds[i]].status = SeriesStatus.Delisted;\n        }\n    }\n\n    function getDefaultPlatformPercent(\n    ) external view override returns (uint) {\n        return defaultPlatformPercentage;\n    }\n\n    function getDefaultInvitations(\n    ) external view override returns (uint) {\n        return defaultInvitations;\n    }\n\n    function isAdmin(\n        address _by\n    ) external view onlyProxyOrAdmin() override(IUserDataPoolCreator,IUserDataPoolSeries) returns (bool) {\n        return hasRole(ADMIN_ROLE,_by);\n    }\n\n    function isProxy(\n        address _by\n    ) external view onlyProxyOrAdmin() override returns (bool) {\n        return hasRole(PROXY_ROLE,_by);\n    }\n\n    /*\n    CREATOR IMPLEMENTATION\n    */\n\n    function _addCreator(\n        address _creatorAddress,\n        string memory _name,\n        uint _platformPercentage,\n        uint _remainingInvitations,\n        address _invitedBy,\n        CreatorStatus _status) internal {\n\n        require(creators[_creatorAddress].status == CreatorStatus.NotInvited,\"registered.\");\n        require(_status != CreatorStatus.NotInvited,\"Invalid.\");\n        require(_platformPercentage <= 250,\"Invalid %\");\n        //TODO: verify that out of range status will throw error.\n\n        creators[_creatorAddress].name = _name;\n        creators[_creatorAddress].platformPercentage = _platformPercentage;\n        creators[_creatorAddress].remainingInvitations = _remainingInvitations;\n        creators[_creatorAddress].invitedBy = _invitedBy;\n        creators[_creatorAddress].status = _status;\n\n        emit CreatorAdded(_creatorAddress);\n    }\n\n    function addCreator(\n        address _creatorAddress,\n        string memory _name,\n        uint _platformPercentage,\n        uint _remainingInvitations,\n        address _invitedBy,\n        CreatorStatus _status\n    ) external override onlyProxyOrAdmin() {\n        \n        _addCreator(\n        _creatorAddress,\n        _name,\n        _platformPercentage,\n        _remainingInvitations,\n        _invitedBy,\n        _status);\n\n    }\n\n    function updateCreatorName(\n        address _creatorAddress,\n        string memory _name\n    ) external override onlyProxyOrAdmin() {\n        creators[_creatorAddress].name = _name;\n    }\n\n    function updateCreatorInvitations(\n        address _creatorAddress,\n        address _invitationAddress,\n        uint _remainingInvitations\n    ) external override onlyProxyOrAdmin() {\n        creators[_creatorAddress].invitations.push(_invitationAddress);\n        creators[_creatorAddress].remainingInvitations = _remainingInvitations;\n    }\n\n    function updateCreatorRemainingInvitations(\n        address _creatorAddress,\n        uint _remainingInvitations\n    ) external override onlyProxyOrAdmin() {\n        creators[_creatorAddress].remainingInvitations = _remainingInvitations;\n    }\n    \n    function addCreatorTokensMinted(\n        address _creatorAddress\n    ) external override onlyProxyOrAdmin() {\n        creators[_creatorAddress].totalSeriesTokensMinted = creators[_creatorAddress].totalSeriesTokensMinted.add(1);\n    }\n\n    function updateCreatorStatus(\n        address _creatorAddress,\n        CreatorStatus _status\n    ) external override onlyProxyOrAdmin() {\n        creators[_creatorAddress].status = _status;\n    }\n\n    function getCreator(\n        address _creatorAddress\n    ) external view override returns (\n        Creator memory\n    ) {\n        return creators[_creatorAddress];\n    }\n\n    function getCreatorRemainingInvites(\n        address _creatorAddress\n    ) external view override returns (\n        uint\n    ) {\n        return creators[_creatorAddress].remainingInvitations;\n    }\n\n    function getCreatorInvites(\n        address _creatorAddress\n    ) external view override returns (\n        address[] memory\n    ) {\n        uint256 inviteLength = creators[_creatorAddress].invitations.length;\n        address[] memory invitationList = new address[](inviteLength);\n        uint256 i = 0;\n        for (i = 0; i < inviteLength; i++) {\n            invitationList[i] = creators[_creatorAddress].invitations[i];\n        }\n        return invitationList;\n    }\n\n    function _getCreatorSeriesIds(\n        address _creatorAddress\n    ) internal view returns (\n        uint256[] memory\n    ) {\n        uint256 seriesLength = creators[_creatorAddress].seriesIds.length;\n        uint256[] memory seriesIds = new uint256[](seriesLength);\n        uint256 i = 0;\n        for (i = 0; i < seriesLength; i++) {\n        seriesIds[i] = creators[_creatorAddress].seriesIds[i];\n        }\n\n        return seriesIds;\n    }\n\n    function getCreatorSeriesIds(\n        address _creatorAddress\n    ) external view override returns (\n        uint256[] memory\n    ) {\n\n        return _getCreatorSeriesIds(_creatorAddress);\n    }\n\n    function getCreatorPlatformPercent(\n        address _creatorAddress\n    ) external view override returns (\n        uint\n    ) {\n        return creators[_creatorAddress].platformPercentage;\n    }\n\n    function isCreatorStatus(\n        address _creatorAddress,\n        CreatorStatus _status\n    ) external view override(IUserDataPoolCreator,IUserDataPoolSeries) returns (\n        bool\n    ) {\n        return (creators[_creatorAddress].status == _status);\n    }\n\n    /*\n    SERIES IMPLEMENTATION\n    */\n\n    function addSeries(\n        address _creatorAddress,\n        string memory _name, \n        string memory _description, \n        uint _platformPercentage,\n        uint256 _maxSupply,\n        uint256 _priceInWei,\n        bool _onePerWallet,\n        string memory _scriptConfig\n    ) external override onlyProxyOrAdmin() returns (uint256) {\n    \n        require(\n            _maxSupply <= ONE_MILLION,\n            \"Supply too large.\"\n        );\n\n        uint256 seriesId = nextSeriesId.current();\n        nextSeriesId.increment();\n      \n        seriesList[seriesId].creatorAddress = _creatorAddress;\n        seriesList[seriesId].name = _name;\n        seriesList[seriesId].description = _description;\n        seriesList[seriesId].platformPercentage = _platformPercentage;\n        seriesList[seriesId].maxSupply = _maxSupply;\n        seriesList[seriesId].priceInWei = _priceInWei;\n        seriesList[seriesId].onePerWallet = _onePerWallet;\n        seriesList[seriesId].scriptConfig = _scriptConfig;\n        seriesList[seriesId].tokenURI = defaultTokenURI;\n        \n        creators[_creatorAddress].seriesIds.push(seriesId);\n\n        emit SeriesAdded(_creatorAddress,seriesId);\n\n        return seriesId;\n    }\n\n    function tokenMinted(\n        uint256 _seriesId\n    ) external override onlyProxyOrAdmin() {\n        seriesList[_seriesId].totalMinted = seriesList[_seriesId].totalMinted.add(1);\n\n        address seriesCreator = seriesList[_seriesId].creatorAddress;\n        creators[seriesCreator].totalSeriesTokensMinted = \n            creators[seriesCreator].totalSeriesTokensMinted.add(1);\n        \n        totalTokensMinted = totalTokensMinted.add(1);\n    }\n\n    function updateSeriesNameAndDescription(\n        uint256 _seriesId,\n        string memory _name,\n        string memory _description\n    ) external override onlyProxyOrAdmin() {\n        seriesList[_seriesId].name = _name;\n        seriesList[_seriesId].description = _description;\n    }\n\n    function updateSeriesSecondPayee(\n        uint256 _seriesId,\n        address _secondPayeeAddress,\n        uint _secondPayeePercentage\n    ) external override onlyProxyOrAdmin() {\n        require (\n            _secondPayeePercentage < 1000,\n            \"Invalid Percentage.\"\n        );\n        seriesList[_seriesId].secondPayeeAddress = _secondPayeeAddress;\n        seriesList[_seriesId].secondPayeePercentage = _secondPayeePercentage;\n    }\n\n    function removeSeriesSecondPayee(\n        uint256 _seriesId\n    ) external override onlyProxyOrAdmin() {\n        delete seriesList[_seriesId].secondPayeeAddress;\n        delete seriesList[_seriesId].secondPayeePercentage;\n    }\n\n    function updateSeriesCurrency(\n        uint256 _seriesId,\n        address _currencyContract,\n        string memory _currencySymbol\n    ) external override onlyProxyOrAdmin() {\n\n        require(\n            _currencyContract.isContract(),\n            \"Not a contract.\"\n        );\n\n        seriesList[_seriesId].currencyContract = _currencyContract;\n        seriesList[_seriesId].currencySymbol = _currencySymbol;\n    }\n\n    function removeSeriesCurrency(\n        uint256 _seriesId\n    ) external override onlyProxyOrAdmin() {\n        delete seriesList[_seriesId].currencyContract;\n        delete seriesList[_seriesId].currencySymbol;\n    }\n\n    function updateSeriesMaxSupply(\n        uint256 _seriesId,\n        uint256 _maxSupply\n    ) external override onlyProxyOrAdmin() {\n        seriesList[_seriesId].maxSupply = _maxSupply;\n    }\n\n    function updateSeriesPriceInWei(\n        uint256 _seriesId,\n        uint256 _priceInWei\n    ) external override onlyProxyOrAdmin() {\n        seriesList[_seriesId].priceInWei = _priceInWei;\n    }\n\n    function updateSeriesOnePerWallet(\n        uint256 _seriesId,\n        bool _onePerWallet\n    ) external override onlyProxyOrAdmin() {\n        seriesList[_seriesId].onePerWallet = _onePerWallet;\n    }\n\n    function updateSeriesScriptConfig(\n        uint256 _seriesId,\n        string memory _scriptConfig\n    ) external override onlyProxyOrAdmin() {\n        seriesList[_seriesId].scriptConfig = _scriptConfig;\n    }\n\n    function addScriptToSeries(\n        uint256 _seriesId,\n        string memory _script\n    ) external override onlyProxyOrAdmin() {\n        seriesList[_seriesId].scripts.push(_script);\n\n        if (seriesList[_seriesId].status == SeriesStatus.Uninitialized) {\n            seriesList[_seriesId].status = SeriesStatus.Ready;\n        }\n    }\n\n    function removeLastScriptFromSeries(\n        uint256 _seriesId\n    ) external override onlyProxyOrAdmin() {\n        seriesList[_seriesId].scripts.pop();\n    }\n\n    function updateSeriesStatus(\n        uint256 _seriesId,\n        SeriesStatus _status\n    ) external override onlyProxyOrAdmin() {\n        seriesList[_seriesId].status = _status;\n    }\n\n    function getSeries(\n        uint256 _seriesId\n    ) external view override returns (Series memory) {\n        return seriesList[_seriesId];\n    }\n\n    function getSeriesCreatorAddress(\n        uint256 _seriesId\n    ) external view override returns (\n        address\n    ) {\n        return seriesList[_seriesId].creatorAddress;\n    }\n\n    function getSeriesScriptCount(\n        uint256 _seriesId\n    ) external view override returns (uint256) {\n        return seriesList[_seriesId].scripts.length;\n    }\n\n    function getSeriesScriptAtIndex(\n        uint256 _seriesId,\n        uint256 _scriptIndex\n    ) external view override returns (string memory) {\n        return seriesList[_seriesId].scripts[_scriptIndex];\n    }\n\n    function getSeriesMintInformation(\n        uint256 _seriesId\n    ) external view override returns (\n        uint256 _totalMinted,\n        uint256 _maxSupply\n    ) {\n\n        _totalMinted = seriesList[_seriesId].totalMinted;\n        _maxSupply = seriesList[_seriesId].maxSupply;\n        return (_totalMinted,_maxSupply);\n    }\n\n    function getSeriesPriceInWei(\n        uint256 _seriesId\n    ) external view override returns (\n        uint256\n    ) {\n        return seriesList[_seriesId].priceInWei;\n    }\n\n    function getSeriesPlatformPercent(\n        uint256 _seriesId\n    ) external view override returns (\n        uint\n    ) {\n        return seriesList[_seriesId].platformPercentage;\n    }\n\n    function getSeriesSecondPayeeInformation(\n        uint256 _seriesId\n    ) external view override returns (\n        address _secondPayeeAddress,\n        uint _secondPayeePercent\n    ) {\n        return (\n            seriesList[_seriesId].secondPayeeAddress,\n            seriesList[_seriesId].secondPayeePercentage\n        );\n    }\n\n    function getSeriesOnePerWallet(\n        uint256 _seriesId\n    ) external view override returns (\n        bool\n    ) {\n        return seriesList[_seriesId].onePerWallet;\n    }\n\n    function getSeriesTokenURI(\n        uint256 _seriesId\n    ) external view override returns (\n        string memory\n    ) {\n        return seriesList[_seriesId].tokenURI;\n    }\n\n    function isSeriesStatus(\n        uint256 _seriesId,\n        SeriesStatus _status\n    ) external view override returns (\n        bool\n    ) {\n        return (seriesList[_seriesId].status == _status);\n    }\n\n    function isSeriesCreator(\n        uint256 _seriesId,\n        address _creatorAddress\n    ) external view override returns (\n        bool\n    ) {\n        return (seriesList[_seriesId].creatorAddress == _creatorAddress);\n    }\n\n    function getTotalTokensMinted(\n    )\n    external view override returns (\n        uint256\n    ) {\n        return totalTokensMinted;\n    }\n}",
  "sourcePath": "/Users/jzito/dev/solidity/MintCaseManager/contracts/UserDataPool.sol",
  "compiler": {
    "name": "solc",
    "version": "0.8.0+commit.c7dfd78e.Emscripten.clang"
  },
  "schemaVersion": "3.4.3",
  "updatedAt": "2021-10-11T03:09:32.513Z",
  "networkType": "ethereum",
  "devdoc": {
    "kind": "dev",
    "methods": {
      "getRoleAdmin(bytes32)": {
        "details": "Returns the admin role that controls `role`. See {grantRole} and {revokeRole}. To change a role's admin, use {_setRoleAdmin}."
      },
      "grantRole(bytes32,address)": {
        "details": "Grants `role` to `account`. If `account` had not been already granted `role`, emits a {RoleGranted} event. Requirements: - the caller must have ``role``'s admin role."
      },
      "hasRole(bytes32,address)": {
        "details": "Returns `true` if `account` has been granted `role`."
      },
      "renounceRole(bytes32,address)": {
        "details": "Revokes `role` from the calling account. Roles are often managed via {grantRole} and {revokeRole}: this function's purpose is to provide a mechanism for accounts to lose their privileges if they are compromised (such as when a trusted device is misplaced). If the calling account had been granted `role`, emits a {RoleRevoked} event. Requirements: - the caller must be `account`."
      },
      "revokeRole(bytes32,address)": {
        "details": "Revokes `role` from `account`. If `account` had been granted `role`, emits a {RoleRevoked} event. Requirements: - the caller must have ``role``'s admin role."
      },
      "supportsInterface(bytes4)": {
        "details": "See {IERC165-supportsInterface}."
      }
    },
    "version": 1
  },
  "userdoc": {
    "kind": "user",
    "methods": {},
    "version": 1
  }
}